:020000040800F2
:1000000048070020AD010008293700082F2C000800
:10001000C5350008BD0D000855400008000000006F
:10002000000000000000000000000000E3370008AE
:100030009912000800000000E1370008E5370008C9
:10004000C7010008C7010008C7010008C701000870
:10005000C7010008C7010008C7010008C701000860
:10006000C7010008C7010008C7010008C701000850
:10007000C7010008C7010008C7010008C701000840
:10008000C7010008C7010008C70100080000000000
:100090000000000000000000000000009B120008AB
:1000A000C7010008C7010008C70100088938000817
:1000B0008D380008C7010008C7010008C701000803
:1000C000C7010008C7010008C7010008C7010008F0
:1000D000C701000835400008C70100080000000003
:1000E000C7010008C7010008C701000800000000A0
:1000F000000000000000000000000000C701000830
:1001000000000000C7010008C7010008C70100087F
:1001100000000000000000000000000000000000DF
:10012000C7010008E9110008C7010008C70100085D
:10013000C7010008000000000000000000000000EF
:10014000000000000000000000000000C7010008DF
:10015000C7010008C7010008C701000841400008A6
:10016000C7010008C70100080000000000000000EF
:10017000000000000000000000000000000000007F
:1001800000000000C701000800000000000000009F
:10019000C7010008C7010008DFF80CD000F0A8FB79
:1001A0000048004779640008480700200648804757
:1001B00006480047FEE7FEE7FEE7FEE7FEE7FEE74C
:1001C000FEE7FEE7FEE7FEE7793800089901000840
:1001D0002DE9F05F0546002092469B46884606467C
:1001E000814640241BE0284641464746224600F00F
:1001F00031FA53465A46C01A914110D31146184657
:10020000224600F018FA2D1A67EB01084F462246E5
:100210000120002100F00FFA17EB00094E41201ECB
:10022000A4F10104DFDC484631462A464346BDE8D6
:10023000F09F40EA01039B0703D009E008C9121FA1
:1002400008C0042AFAD203E011F8013B00F8013B90
:10025000521EF9D27047D2B201E000F8012B491EBC
:10026000FBD270470022F6E710B513460A46044653
:100270001946FFF7F0FF204610BD2DE9FE4F8046DE
:1002800081EA0300C00F0C46009021F0004123F0EA
:100290000045B8EB0200A94105D2404621469046F0
:1002A0001C460B46024623F00040104347D0270D62
:1002B000C7F30A00C3F30A510290401A0190402884
:1002C0006BDAC3F3130040F4801B0098924620B110
:1002D0000023D2EB030A63EB0B0B01985946C0F1E4
:1002E0004002504600F0A7F906460D4650465946D2
:1002F000019A00F0BFF910EB08006141002487EA81
:10030000115284EAE7731A4340D0009A62B3019A0B
:10031000012A4FEA075215DC001B61EB02014FF086
:10032000004202EA0752CDE90042001C41F580116B
:1003300032462B4600F0F6F903B0BDE8F08F404698
:100340002146F9E7001B61EB0201001C41F5801317
:1003500000185B412018A2F5001747EB030140EAA3
:10036000D570B6196D4111E06D084FEA360645EAC1
:10037000C0754FEA0752001B61EB0201001C41F5FA
:10038000801149084FEA30000019514132462B468E
:1003900003B0BDE8F04F00F0B6B90098012240006C
:1003A0000023D0EB020263EBE073009821464FEA92
:1003B000E074B8EB000061EB0401E9E783F000436F
:1003C0005BE781F0004158E72DE9FE4F81EA030425
:1003D00004F0004421F0004100944FF0000B23F0A2
:1003E000004350EA01045ED052EA03045BD0C3F339
:1003F0000A54C1F30A552C44A4F2F3340194A0FB2F
:100400000254C1F3130141F48011C3F3130343F405
:10041000801301FB024400FB034E840A970A44EA5E
:10042000815447EA8357A4FB076802958D0A05FBB0
:1004300007854FEA932C04FB0C542705029D4FEAD5
:10044000065847EA1637B5EB08056EEB070C870E22
:10045000920E47EA811742EA8312A7FB0201B6EB2C
:100460000B0164EB00042B0D43EA0C335E1844EBE4
:100470001C50DA465146E7FB0201C5F313044FEA6C
:100480000B3343EA14534FEA0432019C43EA060358
:10049000A4F10C040294009CCDE900B400F042F9F0
:1004A00003B0BDE8F08F00200146F9E72DE9F04DDB
:1004B00081EA030404F0004B21F0004514464FF09C
:1004C000000A23F0004150EA050220D054EA01025C
:1004D0001DD0C5F30A570246C5F31303C1F3130039
:1004E000C1F30A5640F4801543F48013A7EB0608C5
:1004F000101BD64608F2FD3873EB050002D308F155
:10050000010801E092185B41B8F1000F03DA002006
:100510000146BDE8F08D00204FF480110646844668
:100520000EE0171B73EB050705D3121B63EB0503E6
:1005300006434CEA010C49084FEA300092185B412F
:1005400050EA0107EDD152EA030012D082EA04001A
:1005500083EA0501084305D0101BAB4106D20122F6
:10056000002306E000224FF0004302E06FF001029A
:1005700053101AEB06004CEB085110EB0A0041EB4C
:100580000B01BDE8F04D00F0BEB80EB5C10F80EA1A
:10059000E0700844CA07002140F233438DE80E00A2
:1005A0000A460B4600F0BEF803B000BD00F0004262
:1005B00030F000400AD0C10D01F56071C0F31600A3
:1005C00042EA0151C208400711437047002001462A
:1005D000704701F0004330B421F0004150EA0102BD
:1005E00006D00A0DA2F56072C1F31301002A02DCE5
:1005F00030BC00207047440F44EAC104C100E01839
:1006000030BC00EBC25000F047B830B50B46014695
:1006100000202022012409E021FA02F59D4205D3A1
:1006200003FA02F5491B04FA02F52844151EA2F14B
:100630000102F1DC30BD202A04DB203A00FA02F18D
:10064000002070479140C2F1200320FA03F31943C0
:1006500090407047202A04DB203A21FA02F0002162
:10066000704721FA02F3D040C2F1200291400843C2
:1006700019467047202A06DBCB17203A41FA02F0D0
:1006800043EAE07306E041FA02F3D040C2F12002EF
:1006900091400843194670470029A8BF7047401C85
:1006A000490008BF20F00100704710B4B0FA80FC88
:1006B00000FA0CF050EA010404BF10BC704749B1C5
:1006C000CCF1200421FA04F411FA0CF118BF012135
:1006D00021430843A3EB0C01CB1D4FEA00614FEA15
:1006E000102042BF002010BC704700EBC3501044E4
:1006F0000029A4BF10BC7047401C490008BF20F06F
:10070000010010BC704710B5141E73F1000408DA24
:10071000401C41F1000192185B411A4301D120F0C5
:10072000010010BD2DE9F04D92469B4611B1B1FA82
:1007300081F202E0B0FA80F220329046FFF77BFFB0
:1007400004460F4640EA0A0041EA0B0153465A4666
:10075000084313D0114653EA010019D0C8F14002F2
:100760005046FFF777FF05460E465046594642462B
:10077000FFF761FF084305D0012004E02046394619
:10078000BDE8F08D0020054346EAE0762C43374370
:100790000A986305E40AA0EB08000022FD0A44EA77
:1007A00047540A3002D500200146E9E70105101937
:1007B0006941DDE9084500196941BDE8F04DA2E74E
:1007C00070B521F0004303430CD0C1F30A55002457
:1007D000D5EB040564EB0403D617AD1AB34102DB75
:1007E0000020014670BD201841EB025170BD2DE97B
:1007F000F04D00231A461B1A8A4103DB00200146F4
:10080000BDE8F08DC1F30A52C1F3130141F4801524
:100810004FF0000BD10702D100186D41521E002786
:10082000044640F2FF11384601EB620A3E4680461C
:10083000024600204FF48011FFF70CFFC2197141EE
:10084000BB1846EB0100B4EB030C75EB000C04D3B2
:10085000E41A65EB000517460E46241908F101005D
:100860006D4180463428E3DDF91946EB0600091B8B
:10087000A84103D24FF0FF32134601E00022134695
:100880001BEB070046EB0A51BDE8F04DFFF73BBFFD
:10089000C1F30A52C1F3130140F2FF3341F4801156
:1008A0009A4202DA00200146704740F233439A42EE
:1008B000A2F2334202DC5242FFF7CCBEFFF7BBBECE
:1008C00030B5041E71F1000404DB4FF000444042D7
:1008D00064EB0101141E73F1000405DB1C464FF0AC
:1008E0000043524263EB0403994208BF904230BD7B
:1008F000064C074D06E0E06840F0010394E807006D
:1009000098471034AC42F6D3FFF74AFC3067000832
:1009100050670008124800B5007818B100F03CFAA2
:10092000002000BD30EE600ADFED0E0A0E4A0F49CE
:1009300020EE200AFEEE000A01EE200A10EE100A58
:10094000904202DD9FED0A0A05E010EE100A88428F
:1009500001D99FED080ABDEEC00A10EE100A00BDD5
:1009600014000020CDCC4C3F00009643000096C3FD
:1009700000009643000096C31048B7EE000A80EDD1
:10098000000A9FED0F0A80ED010A80ED020A80ED5A
:10099000030A80ED040A80ED050A80ED060A094885
:1009A00080ED000A80ED010A80ED020A80ED030A65
:1009B00080ED040A80ED050A7047000098000020D1
:1009C000000000002C03002070B501EE901A2DED00
:1009D000088B86B0F8EEE11A05469DED140ADDEDB0
:1009E000130A9DED121A9FEDA52A21EE82BA01EE9F
:1009F000902AF8EEE11A61EE829A01EE903AF8EE52
:100A0000E11A21EE829AF8EEC11A9FED9D1AB8EE16
:100A1000C00AF8EEE00A61EE81AA60EE018A2BEED0
:100A20000B0A20EE81AA09EEA90A09EE090A05F0CF
:100A300001FD10EE100A934EB7EE008AB04201DAC3
:100A4000B0EE480A904C6BEE002A29EE803A94ED05
:100A5000011AD4ED030A69EE003AD4ED001A21EE32
:100A6000202A94ED020AB0EE009A01EEC02A62EE4E
:100A7000094A21EE812A00EE202A22EE095A21EEAF
:100A8000A12A01EE412A00EE402A00EEA02A23EE20
:100A9000024A03EEC54A63EEA43A42EEC23A62EE5F
:100AA000852A94ED042A43EE642ADFED789A24EE39
:100AB000095A04EE292A84ED042AD4ED054A43EEAE
:100AC000A94AC4ED054A94ED063A02EEA93A84ED2E
:100AD000063A9FED6F4A63EE893A62EE892A02EE8A
:100AE000045A44EE843A43EE042A35EE2A2A73EE81
:100AF0008A3A72EEA88A21EE423A8DED032ACDEDB4
:100B0000043ACDED058A00EE633A00EEE83A9FED37
:100B1000614AF0EE612A21EEA35AF0EE414A43EE1B
:100B2000042A21EE823A61EEA81A01EE685A00EE1C
:100B3000283A41EE231AC4ED002A00EE825A00EE54
:100B4000E33A40EE421A43EE044AB0EE403A22EE57
:100B5000A20A05EE043A41EE840AC4ED014A04EE0D
:100B6000A40A84ED023AC4ED030A03EE030A00EE80
:100B7000A00A05F05FFC10EE100AB04201DAB0EEF8
:100B8000480AD4ED000AB8EE00AA20EE801A84EDDF
:100B9000001AD4ED010A21EE091A60EE801AC4EDA4
:100BA000011AD4ED020A61EE8A1A60EE800AC4EDE1
:100BB000020A94ED032A22EE000A84ED030A21EED4
:100BC000800A01EE200A10EE100AFFF7EFFC41EC5C
:100BD000100B03F0D5FA9FED301B51EC100B53ECCA
:100BE000112BFFF7F1FBFFF7F4FC009094ED011AD5
:100BF000D4ED020A21EE0A0A60EE011A20EE890AFB
:100C000040EE601A71EE880AD4ED031A20EE210A34
:100C1000D4ED001A61EE891A01EE810A03F0C4FED8
:100C2000DFED1F0A1F4920EE200A68EEA00A8DEDB5
:100C3000010A94ED070A00EEA90ADFED1B0A10EE87
:100C4000100A84ED070A884203DD30EE600A84ED65
:100C5000070A10EE100A1549884203D930EE200A1F
:100C600084ED070A8DED020A182269462846FFF72F
:100C7000E0FA06B0BDEC088B70BD000000008038C3
:100C8000EA758B3ACDCCCC3D980000200AD7A33A28
:100C9000CDCC4C3D0AD7233A00000080D9A54C406A
:100CA000CC2E6542000034430000B443000034C33E
:100CB00070B52A4B1878012812D02948294C0022F7
:100CC00090ED001ADFED280A2848B0EEC10A10EEB8
:100CD000101AA14205DDC0ED030A026102704261F3
:100CE00070BD234909780029416901D1491C41613E
:100CF0000124B1F5C87F06DD10EE101A1D4DA94282
:100D000001DA047002E001780029E9D090ED030ACD
:100D100030EE011A80ED031A0169491C0161B1F539
:100D2000FA6FDDDB00EE101A1349F8EEC01A81EEFF
:100D3000210A81ED000A1C70C0ED030A02610270F5
:100D400010EE100AFFF732FCBDE8704041EC100BCA
:100D50000AA053EC102B03F0C5B9000015000020C9
:100D60002400002000007041000000004800002026
:100D700014000020000020411C0000205A686F6E03
:100D8000677A68692043616C696272617465643A6C
:100D90002025660D0A00000007489FED060A80ED39
:100DA000000A80ED010A80ED020A80ED030A80ED61
:100DB000040A70470000000084000020FEE70000E5
:100DC00070B50D4C0D4B00222060DA704FEA020125
:100DD00003EB4105491CC9B2AA801029F8D3074981
:100DE0008022243101F0BAFC20680068C16841F01B
:100DF0001001C16070BD0000380000208802002092
:100E00003C48B0F80310C1F30A02A0F124018A8023
:100E10000279D308427943EA4213C3F30A03CB8031
:100E20008379920942EA8303C27943EA8223C3F3B6
:100E30000A030B815308027A43EAC213C3F30A037D
:100E40004B811309427A43EA0213C3F30A038B81ED
:100E5000837AD20942EA4303C27A43EA4223C3F3C4
:100E60000A03CB819308027B43EA8213C3F30A038C
:100E70000B82437B520942EAC3024A82C289C2F30F
:100E80000A028A82C27BD308027C43EA4213C3F37C
:100E90000A03CB82437C920942EA8303827C43EAC1
:100EA0008223C3F30A030B835308C27C43EAC213B1
:100EB000C3F30A034B831309027D43EA0213C3F30E
:100EC0000A038B83437DD20942EA4303827D43EACE
:100ED0004223C3F30A03CB839308C27D43EA821300
:100EE000C3F30A030B84007E520942EAC00048841F
:100EF00070470000AC0200202DE9F05F324ADFF8B5
:100F0000CCB0A2F1240113780B700025DBF80000AF
:100F1000C82B07D0CD708022243101F01FFC0020A7
:100F2000BDE8F09F5378182B06D0CD70802226495B
:100F300001F014FC0120F3E79478162C06D0CD7054
:100F40008022214901F00AFC0220E9E78A464B7021
:100F50001A271726941C914600210A464FF0D50CFB
:100F6000A35C59405FF000035FEA016802D58CEA98
:100F7000410100E049005B1CDBB2C9B2082BF3D38E
:100F8000521CD2B2B242EBD309EB07028AF802102C
:100F900012F8012C544691420DD1FFF731FF012088
:100FA000E07080220849DBF8000001F0D7FB00F078
:100FB00079F90420B4E78AF803508022024901F04D
:100FC000CDFB0320ACE70000AC020020380000207D
:100FD0002DE9F05F4FF40051704800F0FDFC01F086
:100FE00027FE6F486F4E704F90ED010A86ED000AA4
:100FF00090ED030A87ED000A05F0C2F9DFF8AC9125
:10100000DFF8AC8100256B4C01280FD189F8005026
:10101000FFF7C2FE98ED000A002284ED070A256260
:10102000656208216448A56200F0DEFC99F80000C2
:10103000002875D1FFF73CFE604900200A7860491E
:101040000AB1086804E05F4A12780AB108684042B1
:101050005D49097809B15D4904E05D49097819B134
:101060004FF4C871A16000E0A5606178DFF864B159
:10107000491CC9B2DFF860A16170022922D36570F2
:10108000DBF80020DAF8001002F0E6FFD8ED000AE5
:10109000F3EE041A30EE801A30EEA10A84ED071A3E
:1010A000B4EEC10AF1EE10FA01D284ED070A30EE77
:1010B000E10AD4ED070AB4EEE00AF1EE10FA01DD20
:1010C00084ED070AA078401CC0B2A070022809D3A2
:1010D000A57097ED001AD6ED000A94ED070AFFF708
:1010E00019FC206297ED000A206A02F01FFB606283
:1010F000E078401CC0B2E070042806D33748E570A1
:1011000090ED000A02F000FDA062D4E90902811806
:10111000801A43F2C8225342914202DD114603E095
:1011200027E0994200DA1946904201DD104602E0BC
:10113000984200DA1846CAF80010CBF8000057466B
:10114000D84696ED000A02F021FD254EC0B10125DA
:10115000C6F8B8520021084602F05AFA9FED210A5B
:10116000012284ED060A89F800500821124800F097
:101170003BFCBDE8F05F4FF40051084800F02CBC88
:10118000D8F80010386802F043FA002208210A4813
:1011900000F02AFCC6F8B852EBE700000008024055
:1011A0002C030020240000202C000020140000202C
:1011B0001C000020480000200004024034000020F1
:1011C00018000020350000203600002070FEFFFFD0
:1011D0003700002004000020000000203000002024
:1011E0000080404200000000014800F087B9000084
:1011F0002802002001681823CAB2103AB2FBF3F2A9
:10120000054B6FF30901032A9B5CC36500D9091DD7
:1012100081650846704700009265000810B50146D8
:1012200000208B698A6A4FF0C07453B1B3F5005F38
:1012300015D072B1012A0CD0022A0AD0032A09D192
:1012400004E01AB1012A06D0022A03D1C96AC901F1
:1012500000D5012010BDC96AA142FAD010BD002AF4
:10126000F7D0012AF2D0022AF3D0032AF3D010BD1E
:1012700030B50468256825F480252560046863601E
:101280008368402B036803D099600068C26030BD5A
:101290009A600068C16030BD7047402000F0A0BA7D
:1012A00072B6FEE72DE9F0434FF47A742DED048B0E
:1012B00081B0C4F10008554F009440F21379F888CA
:1012C00043464A46AC2105F01FF9514D43464A4674
:1012D000286000947889AC2105F016F94D4E4346FC
:1012E0004A4630600094F889AC2105F00DF94A496E
:1012F000086096ED000AB8EEC00A10EE100AFFF77B
:1013000055F995ED000A41EC180BB8EEC00A10EE45
:10131000100AFFF74BF941EC100BB0EE481AF0EE53
:10132000681A03F049FA51EC100BFFF752F996EDE9
:10133000000A0446B8EEC00A10EE100AFFF736F9AC
:101340009FED369B41EC100BB0EE491AF0EE691A96
:1013500003F052FCB0EE408A95ED000AF0EE608A90
:10136000B8EEC00A10EE100AFFF720F941EC100B9E
:10137000B0EE491AF0EE691A03F03EFCB0EE401AE6
:10138000F0EE601A53EC182B51EC110BFEF775FFC1
:1013900041EC100B04F058FA51EC100BFFF719F95F
:1013A0000646204F00212048204A214B214DBE42B5
:1013B0002ADD214EDFF884C0A7190126674502D235
:1013C0000670117009E01E4FDFF870C027440CF161
:1013D000010C674508D8017016701970297001B0AA
:1013E000BDEC048BBDE8F083154F7F42BC4206D2B2
:1013F000114FFF43BC4202DC19702E7001E01E70D9
:10140000297001701170EAE71970F9E7880200206D
:10141000080000200C000020100000200000000048
:101420000000004000004843340000203500002048
:10143000360000203700002025F0B6C009BCCD00E2
:1014400026F0B6402DE9F0410446876D00F0D2FA4F
:10145000064694F835000025022806D080206065F5
:1014600084F834500120BDE8F0812068016821F043
:10147000160101602068416921F080014161206C02
:1014800008B9A06C20B12068016821F00801016052
:101490002068016821F0010101600CE000F0AAFA67
:1014A000801B052807D920206065032084F83500BB
:1014B00084F83450D7E720680068C007EED194F86C
:1014C0005C103F208840B860012084F8350084F823
:1014D00034500020C7E790F83510022903D080214E
:1014E000416501207047052180F8351000680168CA
:1014F00021F0010101600020704700002DE9F84350
:1015000004464FF00009CDF8009063484FF416519F
:10151000A56D0068B0FBF1F72E6894F85C10082008
:1015200000FA01F131420FD021680A6852070BD549
:101530000A6822F004020A6094F85C108840A860EF
:10154000606D40F00100606594F85C104FF0010898
:1015500008FA01F0304208D021684969090604D52B
:10156000A860606D40F00200606594F85C10042093
:101570008840304208D021680968890704D5A860EE
:10158000606D40F00400606594F85C1010208840A5
:10159000304218D021680968090714D5A86020686E
:1015A0000168490304D50068000308D5A16C07E071
:1015B0000168C90503D4016821F008010160216CAC
:1015C00009B12046884794F85C10202088403042BA
:1015D00031D021680968C9062DD5A86094F8350076
:1015E00005282068016806D0490347D50068000334
:1015F0001DD4616C1CE021F0160101602068416976
:1016000021F080014161206C08B9A06C20B12068F4
:10161000016821F00801016094F85C103F208840C7
:10162000A86084F8358084F83490216D1FE0E16B68
:1016300009B120468847606D00282BD0606DC00737
:1016400014D0052084F835002068016821F00101DC
:1016500001600098401C0090B84203D820680068E0
:10166000C007F6D184F8358084F83490E16C002905
:1016700010D001B02046BDE8F04308470168C90515
:10168000D5D4016821F01001016084F8358084F818
:101690003490CCE7BDE8F883800000202DE9F041CC
:1016A000044600F0A7F906465CB1022084F8350034
:1016B000002584F834502068016821F001010160A0
:1016C0000DE00120BDE8F08100F094F9801B0528B1
:1016D00005D920206065032084F83500F2E72068F2
:1016E0000068C007F0D12268116820480140D4E9A1
:1016F00001031843D4E9033633431843636918439D
:10170000A3691843E3691843236A18430843616ACD
:10171000042903D1D4E90B1319430843106020684E
:101720004069666A20F0070130460E43012704280D
:101730000CD1A06A0643E06A40B12046FFF76EFD77
:1017400020B14020606584F83570BAE720684661B2
:101750002046FFF74FFD94F85C203F2191408160C7
:10176000656584F835700020ACE700003F8010F01C
:101770002DE9F0410446866D90F8340000250128DB
:101780000DD0012084F8340094F835700020012F2A
:1017900007D084F8340002252846BDE8F0810220F5
:1017A000FBE7022784F8357060652046FFF760FD8F
:1017B00094F85C103F208840B0602068016841F0D8
:1017C00016010160206C20B12068016841F0080119
:1017D00001602068016841F001010160DCE77047A9
:1017E000044910B50A68024202D00860FFF7F7FF0B
:1017F00010BD0000143C01402DE9F84FDFF8B8A1FE
:101800000022012403254FF00F090AF1040BAAF16D
:10181000040E00BF0B6804FA02F63340B34273D1E2
:101820000F7907F00307012F01D0022F16D1876827
:101830004FEA420805FA08FC27EA0C07D1F80CC069
:101840000CFA08FC4CEA070CC0F808C04768B7431C
:101850000E79C6F3001696403E4346600E79F64375
:10186000B6070DD0C768560005FA06FC27EA0C0734
:10187000D1F808C00CFA06FC4CEA070CC0F80CC002
:101880000E7906F00306022E10D1D60800EB86086A
:10189000D8F8206057074FEAD76C09FA0CF7BE4317
:1018A0000F6907FA0CF73743C8F8207006684FEA4B
:1018B000420C05FA0CF7BE430F7907F0030707FA4D
:1018C0000CF7374307604E6816F4403F6DD03B4E2F
:1018D000376847F480473760366822F0030706F41C
:1018E00080460096364E07EB060CDCF80868970732
:1018F0003F0F09FA07F826EA0806DFF8C8804045D6
:1019000003D14FF000081EE04FE0DFF8BC804045F7
:1019100002D14FF0010816E0DFF8B080404502D157
:101920004FF002080FE0DFF8A880404502D14FF0E9
:10193000030808E0DFF89C80404502D14FF004081E
:1019400001E04FF0070808FA07F848EA0608CCF863
:101950000888DAF800605746D1F804C09E435FEA71
:10196000CC2C00D51E433E60DBF800605F46D1F80A
:1019700004C09E435FEA8C2C00D51E433E60DEF817
:1019800000607746D1F804C09E435FEA8C3C00D5E6
:101990001E433E60084F083F3E68D1F804C09E4396
:1019A0005FEACC3C00D51E433E60521C102AFFF477
:1019B00031AFBDE8F88F0000083C014044380240D8
:1019C00000300140000002400004024000080240D4
:1019D000000C024000100240426921EA02030A4062
:1019E00043EA0241816170470AB18161704709048D
:1019F000FBE7000001488068704700007400002089
:101A000002488168027811448160704774000020A8
:101A10000B4810B5016841F400710160016841F4A0
:101A200080610160016841F480710160032000F071
:101A30006FF8002000F006F800F024F8002010BD38
:101A4000003C024070B50D4D04464FF47A71287881
:101A5000B1FBF0F00A490968B1FBF0F000F00CFBB3
:101A600048B9102C07D200222146501E00F030F851
:101A700000206C6070BD012070BD0000740000206B
:101A8000800000200A4808B5016841F480410160E7
:101A9000006800F4804000900548001F016841F094
:101AA00080510160006800F08050009008BD000087
:101AB00044380240002809DB00F01F020121914058
:101AC0004009800000F1E020C0F8001170470000DC
:101AD000F0B40E4B1B680C46C3F30223C3F1070599
:101AE000042D00D90425191D072901D2002300E087
:101AF000DB1E012606FA05F1491E214099409E4051
:101B0000761E16403143F0BC02F027BB0CED00E01E
:101B1000064900F0070208684FF6FF03184040EA44
:101B20000220034A10430860704700000CED00E0FB
:101B30000000FA052DE9F0470E46050065D0DFF8F4
:101B40001481D8F80000F7B200F00700B04207D2C5
:101B500088F80070D8F8000000F00700B04254D1B7
:101B600028683D4C810712D5400703D5206840F412
:101B7000E05020602878000703D5206840F46040DA
:101B800020602068A96820F0F000084320602878D1
:101B9000C0072DD0304968680839012812D00228C2
:101BA00013D0032811D00968890700292DDA21688C
:101BB00021F0030101432160FFF71CFF814641F240
:101BC000883A0EE009688903EFE709688901ECE7C4
:101BD000FFF710FFA0EB0901514502D90320BDE832
:101BE000F0872068696800F00C00B0EB810FEFD13E
:101BF000D8F80010404601F00701B14207D907703C
:101C0000006800F00700B04201D00120E7E7287823
:101C1000400705D52068E96820F4E05008432060BB
:101C20002878000706D52068296920F4604040EA3A
:101C3000C100206000F038F82168084AC1F30311A0
:101C4000515CC8400649086006480068FFF7FAFE84
:101C50000020C4E7003C0240083802409A650008B2
:101C600080000020780000200448054900680968C9
:101C7000044AC1F38221515CC840704780000020B3
:101C800008380240AA650008044805490068096848
:101C9000044AC1F34231515CC840704780000020C3
:101CA00008380240AA650008154810B5006810F011
:101CB0000C02144813D01449042A0FD0082A0ED15C
:101CC0000F4C241F2268236802F03F025B0207D5F5
:101CD0002068C0F38810A0FB010106E0084610BD93
:101CE0002168C1F38811A1FB00010023FEF770FAFF
:101CF0002168C1F30141491C4900B0FBF1F010BD5E
:101D0000083802400024F40040787D012DE9F84FA6
:101D100004006ED02078DFF84C93C007A9F10405C9
:101D20004AD009F104000168C1F38101012908D0FA
:101D30000068C0F3810002280AD1D9F800004002EF
:101D400006D52868800337D560680028E1D033E0E5
:101D50006068B0F5803F10D0B0F5A02F286810D093
:101D600020F480302860286820F480202860606893
:101D7000A8B1FFF73FFE06460DE0286840F480302A
:101D8000F4E740F480202860F7E700BFFFF732FE59
:101D9000801B642873D828688003F7D50CE0FFF710
:101DA00029FE064605E000BFFFF724FE801B6428DD
:101DB000F0D828688003F7D42078DFF8AC82800759
:101DC0004FF0000A3ED5A748001D016811F00C0F26
:101DD00008D00068C0F3810002280BD1D9F80000B8
:101DE000400207D42868800716D5E068012800D192
:101DF00012E033E1E068B8B10120C8F80000FFF755
:101E0000F9FD064605E000BFFFF7F4FD801B022840
:101E1000C0D828688007F7D52868216920F0F80025
:101E200040EAC10028600DE0C8F800A0FFF7E2FD1D
:101E3000064604E0FFF7DEFD801B02281FD8286855
:101E40008007F7D42078000722D5864F874861693C
:101E5000703771B101210160FFF7CCFD064604E047
:101E6000FFF7C8FD801B022809D838688007F7D51E
:101E70000EE0C0F800A0FFF7BDFD064605E082E0D9
:101E8000FFF7B8FD801B02287DD838688007F7D49B
:101E90002078400768D5DFF8CCB100270BF13C0B68
:101EA000DBF80000C0000BD4DBF8001041F08051DB
:101EB000CBF80010DBF80000012700F08050009004
:101EC0006B4E3068C00510D4306840F480703060CC
:101ED000FFF790FD009005E0FFF78CFD0099401A98
:101EE000022850D83068C005F6D55E4EA0686C3622
:101EF00001280FD00528306810D020F00100306094
:101F0000306820F004003060A068B8B1FFF772FDBF
:101F100000900FE0306840F00100F4E740F004006A
:101F20003060F7E7FFF766FD0099411A41F288300B
:101F3000814266D830688007F4D50EE0FFF75AFD7D
:101F4000009007E0FFF756FD0099411A41F28830F2
:101F5000814256D830688007F4D42FB1DBF80010E6
:101F600021F08051CBF80010A069C8B33D49091D8C
:101F70000968C1F3810102294AD00228504607D0DE
:101F8000C8F8600000E03CE0FFF734FD04463BE0A9
:101F90004746C8F86000FFF72DFD064605E000BF84
:101FA000FFF728FD801B02282BD828688001F7D472
:101FB000D4E907010843A16A2E4A490802EB01410E
:101FC000626A41EA8211084394F82C1040EA0161E8
:101FD000C9F8001001203866FFF70CFD044606E042
:101FE0003EE000BFFFF706FD001B022809D8286865
:101FF0008001F7D534E000BFFFF7FCFC001B02288E
:1020000002D90320BDE8F88F28688001F4D427E0C6
:102010000128F7D0D9F80000E26900F4800191426C
:102020001CD1226A00F03F01914217D147F6C071DE
:10203000626A0140B1EB821F10D1A26A4FF0FF33F8
:1020400000F4403103EB5202B1EB024F06D194F899
:102050002C1000F07060B0EB016F01D00120D1E7CF
:102060000020CFE70438024000004742800E47427C
:10207000007000400000FFFF10B5401EB0F1807FEF
:1020800001D3012010BD4FF0E02460610F216017E3
:1020900002F063F80020A06107202061002010BD3D
:1020A0007047704710B590F83C20012A22D00122D9
:1020B00080F83C20CA688C6822F4407222434C6845
:1020C00022F4806222430C6822F4006222430C69ED
:1020D00022F4805222434C6922F400522243C969FF
:1020E000002322F480420A4301684A6480F83C30AD
:1020F000002010BD022010BD70B590F83C20012AD0
:102100002CD0012480F83C40022280F83D20036856
:102110005A689D6822F070060A6832435A60104B74
:1021200002689A420ED0B2F1804F0BD00D4B9A420A
:1021300008D00D4B9A4205D00C4B9A4202D00C4B62
:102140009A4204D1496825F080031943916080F8D0
:102150003D40002180F83C10084670BD022070BD53
:10216000000001400004004000080040000C004056
:102170000040014010B5040003D094F83D0010B1B8
:1021800007E0012010BD002084F83C00204600F04C
:102190001FF8022084F83D00211D206801F07CFB1F
:1021A000012084F8460084F83E0084F83F0084F85B
:1021B000400084F8410084F8420084F8430084F829
:1021C000440084F8450084F83D00002010BD000064
:1021D00010B586B0044614216846FEF743F82A4934
:1021E0002268002329488A4218D1284914310A68F4
:1021F00042F001020A60096801F0010105910168DD
:1022000041F0010101600068002200F0010005902A
:1022100011461B20FFF75CFC06B010BD1B491031B6
:10222000B2F1804F1FD01A4CA242F5D10A6842F099
:1022300004020A60096801F004010591016841F097
:10224000020101600068032100F002000590A01562
:1022500000900220CDE90103CDE9031069460D4845
:10226000FFF7CAFAD8E7086840F00100086008687C
:10227000002200F00100059001211C20FFF728FC3E
:102280001C20FFF717FCC7E7000001403038024070
:10229000000800400004024090F83D10012901D0E0
:1022A00001207047022180F83D100168CA6842F0A1
:1022B0000102CA6000680E4988420ED0B0F1804F1A
:1022C0000BD00C49884208D00B49884205D00B49F5
:1022D000884202D00A49884204D1816801F007018E
:1022E000062903D0016841F0010101600020704718
:1022F000000001400004004000080040000C0040C5
:102300000040014070B5044690F83C0000250128CB
:1023100017D0012684F83C60022084F83D00206834
:10232000826822F0770222F47F4282600868502897
:1023300038D00DDC20284FD005DC90B3102811D107
:102340004AE0022070BD302846D040280AD13BE048
:1023500060282FD070280DD0B0F5805F03D0B0F585
:10236000005F12D0012584F83D60002084F83C0015
:10237000284670BDCB68D1E90121206801F0EBFA55
:102380002068816841F0770109E0CB68D1E901213B
:10239000206801F0E0FA2068816841F480418160A2
:1023A000E1E719E0CA684968206801F089FB50211B
:1023B000206806E0CA684968206801F092FB602145
:1023C000206801F0D2FACEE7CA684968206801F0B7
:1023D00077FB40212068F4E7226801461046F0E7C9
:1023E00070472DE9F04104460068C66805694FF062
:1023F0000007A90713D5B10711D5F91E0161012006
:102400002077206880698007204602D0FFF7E8FF28
:1024100004E000F0ADF8204600F03FF927776807A8
:1024200016D5700714D521686FF0040008610220EA
:1024300020772068806910F4407F204602D0FFF7A3
:10244000CFFF04E000F094F8204600F026F927774B
:10245000280715D5300713D521686FF008000861EB
:10246000042020772068C0698007204602D0FFF74B
:10247000B7FF04E000F07CF8204600F00EF9277763
:10248000E80616D5F00614D521686FF01000086133
:10249000082020772068C06910F4407F204602D0D1
:1024A000FFF79EFF04E000F063F8204600F0F5F827
:1024B0002777E80708D0F00706D021686FF0010001
:1024C0000861204600F042F9280608D5300606D5F6
:1024D00021686FF0800008612046FFF7E1FD680683
:1024E00008D5700606D521686FF0400008612046C7
:1024F00000F033F9A8060AD5B00608D521686FF0B8
:10250000200008612046BDE8F041FFF7CABDBDE8E4
:10251000F081000010B586B0044614216846FDF72E
:10252000A1FE23680E4C0021A2150220A34208D16F
:102530000092CDE901010122CDE903026946094873
:102540000AE0094CA34209D10092CDE9010103211F
:10255000CDE9031069460548FFF74EF906B010BDF6
:10256000000001400000024000080040000402405A
:10257000704770B5044690F83C0000260D460128CF
:102580000FD0012084F83C006AB1042A1DD0082A2B
:102590002FD00C2A3FD00126002084F83C00304682
:1025A00070BD022070BD206801F0E8F920688169E3
:1025B00041F0080181612068816921F00401816195
:1025C000206881692A69114311E0206801F0FEF951
:1025D0002068816941F4006181612068816921F48A
:1025E00080618161206881692A6941EA02218161F3
:1025F000D2E7206801F016FA2068C16941F00801AD
:10260000C1612068C16921F00401C1612068C1690C
:102610002A69114311E0206801F030FA2068C1698D
:1026200041F40061C1612068C16921F48061C16128
:102630002068C1692A6941EA0221C161ACE710B58D
:10264000040003D094F83D0010B107E0012010BD54
:10265000002084F83C00204600F01EF8022084F898
:102660003D00211D206801F017F9012084F8460083
:1026700084F83E0084F83F0084F8400084F841006C
:1026800084F8420084F8430084F8440084F845004C
:1026900084F83D00002010BD7047704710B5044617
:1026A000022249B104290ED0082913D094F8410020
:1026B000012816D0012010BD94F83E000128F9D160
:1026C00084F83E200FE094F83F000128F2D184F80E
:1026D0003F2008E094F840000128EBD184F8402026
:1026E00001E084F841200122206801F027F9124915
:1026F0002068884203D1426C42F400424264206860
:1027000088420ED0B0F1804F0BD00C49884208D0DF
:102710000B49884205D00B49884202D00A498842B9
:1027200004D1816801F00701062903D0016841F056
:1027300001010160002010BD0000014000040040C4
:1027400000080040000C0040004001400068B0F16B
:10275000804F01D1FEF73CBC7047704738B5044646
:1027600090F84200202801D0022038BD61B15AB152
:102770000120206300206063204601F0D9FB00287F
:10278000F3D1216B012901D0012038BD21680A68ED
:102790004968009121680C3151E8002F42F0100285
:1027A00041E80023002BF5D138BD70477047000089
:1027B000F8B5016804460868CA684B6910F00F0F45
:1027C0004FF0000559D003F0010602F4907737432B
:1027D00065D0C10705D0D10503D5616C41F0010179
:1027E0006164410705D5D90703D0616C41F002014E
:1027F0006164810705D5D90703D0616C41F00401FC
:102800006164010707D502F02001314303D0616CF8
:1028100041F008016164616C00293AD0800604D55A
:10282000900602D5204601F09BFA20684069616C51
:10283000C0F38010090700D460B3204601F05BFAB2
:1028400020684069400621D52068143050E8001FF8
:1028500021F0400140E80012002AF5D1E06BA8B158
:102860006E490165E06BFEF736FE002811D0E06B83
:10287000016D01B0BDE8F040084783060FD593060F
:102880000DD52046BDE8F84001F06ABA2046FFF7B2
:102890008DFFF8BD2046FFF789FF6564F8BD266B04
:1028A0002023012E7DD1C6067BD5D60679D50868B2
:1028B0004868009048694FF00206400641D5E16B38
:1028C000086840680004000CE8D0A28D8242E5D977
:1028D000E085C869B0F5807F2DD020680C3050E8C5
:1028E000001F21F4807140E80012002AF5D1206811
:1028F000143050E8001F21F0010140E80012002AC6
:10290000F5D12068143050E8001F21F0400140E864
:102910000012002AF5D184F84230256320680C307B
:1029200050E8001F21F0100140E80012002AF5D104
:10293000E06BFEF787FD6663A08DE18D401A81B2E2
:102940002AE0A08DE18D401A81B2E08D0028A5D04B
:102950000029A3D022680C3252E8000F20F49070B6
:1029600042E80007002FF5D12068143050E8002F0E
:1029700022F0010240E80027002FF5D184F8423010
:10298000256320680C3050E8002F22F0100240E848
:102990000023002BF5D166632046FFF706FFF8BD44
:1029A000FFE705062BD5150629D594F84100212807
:1029B000F5D1A068B0F5805F01D12069B0B1206A7F
:1029C000411C2162216800784860E08C401E0004B0
:1029D000000CE084E3D12068C16821F08001C1606F
:1029E0002068C16841F04001C160D8E7206A0088D2
:1029F000C0F308004860206A801C2062E5E74006BA
:102A0000CDD55006CBD5CA68204622F04002CA6018
:102A100084F8413000F00AF9C1E70000F93B0008F2
:102A200070B5040004D094F84100002510B106E010
:102A3000012070BD84F84050204600F023F8242087
:102A400084F841002068C16821F40051C16020462B
:102A500001F0E8F92068016921F4904101612068E2
:102A6000416921F02A0141612068C16841F40051A7
:102A7000C1606564202084F8410084F842006563E9
:102A8000002070BDF0B587B0064614216846FDF7FA
:102A9000E9FB3849DFF8D8C03768002535481439D4
:102AA00002220324344B674521D1066846F0100604
:102AB0000660006800F010000590086840F0010012
:102AC00008600868694600F0010005904FF4044072
:102AD0008DE825000720CDE903401846FEF78CFE5F
:102AE000002207212520FEF7F3FF25203BE0DFF839
:102AF0008CC0674539D1076847F020070760006838
:102B000000F020000590086840F0010008600868A7
:102B1000694600F0010005904FF4C0508DE8250093
:102B20000820CDE903401846FEF766FE154C144810
:102B300020608005C4E901054FF48060C4E90350BA
:102B40006561A561E561256220466562FEF7A6FD27
:102B500008B1FEF7A5FBF463002205214720A66318
:102B6000FEF7B6FF4720FEF7A5FF07B0F0BD000057
:102B700000100140443802400000024000140140AF
:102B80002864024028020020704770472DE9F8436E
:102B9000044690F84100984616460D46202802D07B
:102BA0000220BDE8F88385B17EB100206064212059
:102BB00084F84100FEF71EFFA6848146E684A068E3
:102BC0002027B0F5805F02D003E00120E9E720690B
:102BD00010B12E4600250EE000260CE08021204694
:102BE00001F0EEF9A8B9C6B116F8010B21684860EA
:102BF000E08C401EE084E08C4B464FF00002CDF8A4
:102C000000800028EAD14FF04001204601F0D8F9B9
:102C100040B184F841700320C3E735F8020BC0F3DC
:102C20000800E3E784F841700020BAE77047FEE748
:102C300000B58FB008AA07A906A800F0DAF805AA1F
:102C400004A903A800F0BCF8BDF91800BDF92020C4
:102C5000BDF91C108DE80700BDF91430BDF9102036
:102C6000BDF90C1009A8FDF7AFFE182209A90A4802
:102C7000FDF7DFFA0848094990ED000A81ED000AE6
:102C8000074990ED010A81ED000A90ED020A05481E
:102C900080ED000A0FB000BD2C03002020000020B2
:102CA000240000202800002010B500F0DBF880216F
:102CB0006B2000F08CFA00282ED020A001F012FA30
:102CC000642003F083FB00216B2000F080FA0320D6
:102CD00000F049FA002000F041FA322000F060FADA
:102CE0000021382000F073FA00216A2000F06FFA0A
:102CF0000021232000F06BFA8021372000F067FAD2
:102D0000752000F0D7F90446014614A001F0EAF955
:102D1000682C03D0012010BD17A0CFE701216B2044
:102D200000F055FA00216C2000F051FAC82000F0A4
:102D300037FA19A001F0D6F9002010BD7772697436
:102D4000696E67206F7065726174696F6E20697358
:102D50002077726F6E672021200D0A004D50553686
:102D600030353020646576696365204E6F2E2069AA
:102D700073202578200D0A0077726974696E6720C8
:102D80006F7065726174696F6E2069732072696714
:102D9000687421200D0A00004D5055363035305FE3
:102DA000496E6974207375636365737366756C6CC3
:102DB000792066696E697368656421200D0A0000D8
:102DC0007CB514460D4606466B4606223B2168201C
:102DD00000F08EF900280BD1BDF8001049BA3180FF
:102DE000BDF8021049BA2980BDF8041049BA218003
:102DF0007CBD7CB514460D4606466B460622432133
:102E0000682000F075F900280BD1BDF8001049BA10
:102E10003180BDF8021049BA2980BDF8041049BAC2
:102E200021807CBD70B50D4C0025C4F898520C482B
:102E3000016821F440410160016841F48041016072
:102E4000C4F89C52012004F5267403F0D3FA012043
:102E5000206003F0CFFA256070BD00000080404282
:102E60000004024010B586B014216846FDF7FAF957
:102E70000E48016841F00201016000680C4C00F04E
:102E800002000590C02000900120019003200390D3
:102E900069462046FEF7B0FC0122C0212046FEF71D
:102EA000A3FD04A001F01EF906B010BD30380240A9
:102EB0000004024049494320696E69746961746580
:102EC0006421210D0A00000070B50D4C0025C4F8E6
:102ED00098520C48016821F440410160016841F4B6
:102EE000804101600126C4F89C62304604F52674D6
:102EF00003F080FA2660012003F07CFA256070BDA3
:102F000000804042000402402DE9F0478146164807
:102F10000024016821F44041016001680160134E02
:102F2000254627464FF00108C6F89872012003F0A5
:102F300061FAC6F898826006040ED6F81C0208B141
:102F4000641CE4B2012003F055FA6D1CEDB2082DAB
:102F5000EAD3B9F1000F04D0FFF764FF2046BDE8C3
:102F6000F087FFF7B1FFF9E700040240008040421C
:102F70002DE9F04106461448016821F44041016002
:102F8000016841F480410160104C0027C4F8987238
:102F90003D464FF00108F009C4F89C027006060E89
:102FA000012003F027FAC4F89882012003F022FAE6
:102FB000C4F89872012003F01DFA6D1CEDB2082DC3
:102FC000E9D3BDE8F08100000004024000804042E7
:102FD00070B51148016821F440410160016841F475
:102FE000804101600D4C0120C4F89C02D4F81C12F1
:102FF00049B1C4F8980203F0FDF90025C4F89C52C9
:10300000D4F81C0208B1002070BD012003F0F2F9D1
:10301000C4F89852012070BD000402400080404274
:103020000D4810B5016821F440410160016841F488
:1030300080410160094C0020C4F89802C4F89C0249
:10304000012004F5267403F0D5F9012020606060AA
:10305000BDE8104003F0CEB90004024000804042B9
:1030600070B512480024016821F4404101600168F4
:1030700001600F4D0126C5F89C62304603F0BAF995
:10308000C5F8986207E0641CE4B2FA2C03D9FFF794
:10309000C7FF012070BD012003F0ACF9D5F81C0278
:1030A0000028F0D1C5F8980270BD0000000402406D
:1030B0000080404210B50446FFF78AFFD020FFF79A
:1030C00057FFFFF7CDFF2046FFF752FFFFF7C8FF7E
:1030D000FFF77EFFD120FFF74BFFFFF7C1FF002076
:1030E000FFF712FF0446FFF79BFF204610BD0000CC
:1030F0002DE9F0411D4614460F460646FFF768FFCE
:103100007006000EFFF734FFFFF7AAFF20B1FFF7AC
:1031100087FF0120BDE8F0813846FFF729FFFFF760
:103120009FFFFFF755FF012000EB4600C0B2FFF7FD
:103130001FFFFFF795FF09E0012C0DD05FF00100A4
:10314000FFF7E2FE641E05F8010BE4B2002CF3D198
:10315000FFF766FF0020DDE70020F1E7C006010E63
:103160001C2000F034B8C006010E1B2000F02FB860
:10317000BC2801D3012110E0622801D302210CE018
:103180002A2801D3032108E0142801D3042104E0F4
:103190000A2801D3052100E006211A2000F017B803
:1031A00010B504464FF47A70844201D9044602E017
:1031B000042C00D20424B0FBF4F0401EC1B219204C
:1031C00000F005F86008BDE81040FFF7D1BF70B50A
:1031D0000C460546FFF7FCFED020FFF7C9FEFFF7BF
:1031E0003FFF50B92846FFF7C3FEFFF739FF2046DF
:1031F000FFF7BEFEFFF734FF18B1FFF711FF012004
:1032000070BDFFF70DFF002070BD0000094808B534
:10321000016841F4800101600068002200F4800030
:10322000009009213920FEF753FCBDE80840392001
:10323000FEF740BC303802402DE9F04387B014213E
:103240006846FDF70FF849480025016841F0040180
:103250000160016801F004010591016841F08001FD
:103260000160016801F080010591016841F00101F0
:103270000160016801F001010591016841F002015E
:1032800001600068012200F00200394F54030590EC
:1032900021463846FEF7A8FB660000223146384634
:1032A000FEF7A2FBDFF8CC8000221A214046FEF791
:1032B0009BFBDFF8C4900022CF214846FEF794FB29
:1032C000012231464846FEF78FFB009401246946EF
:1032D00038460194CDE90245FEF78EFA1A208DE8B2
:1032E0003100694640460395FEF786FA402000907B
:1032F0004FF40410CDE9010469464046FEF77CFA1C
:10330000CDE9006469463846CDE90245FEF774FA16
:10331000C7208DE831000320039069464846FEF738
:103320006BFACDE9006469464846CDE90245FEF7EF
:1033300063FA0820CDE900040220CDE902056946C0
:103340004846FEF759FA1020CDE900056946029477
:103350004846FEF751FA002202211720FEF7B8FB7B
:103360001720FEF7A7FB07B0BDE8F0833038024016
:1033700000080240000002400004024010B596B070
:1033800000240F9410941194129413941C2108A8F3
:103390001494FCF767FF20216846FCF763FF2A4876
:1033A000284901606321C0E9011440F2E731C0E916
:1033B00003148021C0E90541FEF7DCFE08B1FDF7EA
:1033C0006FFF4FF480500F900FA91F48FEF79AFF30
:1033D00008B1FDF765FF1C48FFF731F908B1FDF7AB
:1033E0005FFF139413A918481494FEF785FE08B1E3
:1033F000FDF756FF602008904FF4FA70CDE90904FC
:103400000420CDE90B400D94002208A90E480E942B
:10341000FFF7AFF808B1FDF743FF00944FF40050F9
:10342000CDE9044002940194039469460648079448
:10343000FEF738FE08B1FDF733FF0348FFF76AF8DF
:1034400016B010BD00000140C000002010B586B0CD
:1034500000241648009401940294039404944FF0BD
:103460008041059401606321C0E9011440F2E1410B
:10347000C0E903148461FEF77DFE08B1FDF710FF7B
:103480004FF48050009069460848FEF73BFF08B1B2
:10349000FDF706FF049404A904480594FEF72CFEEA
:1034A000002801D0FDF7FCFE06B010BD0801002089
:1034B00010B58EB000240794089409940A940B94D4
:1034C0001C2168460C94FCF7CDFE20481E49016083
:1034D0006321C0E9011440F2E731C0E903148021FF
:1034E0008161FEF747FE08B1FDF7DAFE4FF4805028
:1034F000079007A91548FEF705FF08B1FDF7D0FEB4
:103500001248FFF79CF808B1FDF7CAFE0B940BA90F
:103510000E480C94FEF7F0FD08B1FDF7C1FE6020E7
:1035200000904FF4FA70CDE90104042004900822C1
:1035300069460648FFF71DF808B1FDF7B1FE0348DC
:10354000FEF7E8FF0EB010BD00080040500100205B
:103550000C4810B50A4901604FF4E1314160002187
:1035600081600C22C160C0E904128161C161FFF772
:1035700057FA002803D0BDE81040FDF791BE10BDFA
:1035800000100140980100200C4810B50A49016064
:103590000B494160002181600C22C160C0E9041226
:1035A0008161C161FFF73CFA002803D0BDE81040FB
:1035B000FDF776BE10BD000000140140E0010020C0
:1035C000A0680600FEE7000010B500210D48FFF7D7
:1035D00065F808210C48FFF761F80A4900200968DE
:1035E000486309490968C863084C02460821204617
:1035F000FEF7FAF920460022BDE810401021FEF740
:10360000F3B90000C000002050010020000002407B
:103610002DE9F047DFF8FC900D462DED068B061ED8
:1036200005DD002208214846FEF7DEF906E004DA4F
:10363000012208214846FEF7D7F97642364800278E
:103640009FED368A9FED36AA44F620644FF08048FD
:10365000B0EE009AF7EE009A322E02DA0068476365
:103660001DE0A64200DD264600EE106AB8EEC00A54
:1036700020EE080ACAEE008A18EE901A414501DAD7
:10368000F0EE498A38EEE90ABCEEC00A10EE102AC4
:10369000510800D10121036859630068C262002DFE
:1036A00007DD4FF000024FF010014846FEF79CF98D
:1036B00008E006DA4FF001024FF010014846FEF72D
:1036C00093F96D421749322D05DA0868C763BDECDE
:1036D000068BBDE8F087A54200DD254600EE105AB6
:1036E000B8EEC00A20EE080A8AEE008A18EE100A28
:1036F000404501DAB0EE498A38EE690ABCEEC00AEC
:1037000010EE102A500800D101200B68D863086819
:10371000C262DCE700000240C00000200000C84296
:1037200020BCBE4C50010020FEE70000204900B53F
:10373000097819B1FDF730FB002000BD00EE900ABA
:103740001D481E4AF8EEE00A90ED041A70EEC00A19
:103750009FED180A20EE800A71EE200A10EE901AF2
:10376000C0ED040A914202DDDFED150A06E010EE1D
:10377000901A144A914203D9DFED130AC0ED040AEE
:103780009FED121A124A134900EE810A10EE100A38
:10379000904202DD9FED100A05E010EE100A88420B
:1037A00001D99FED0E0ABDEEC00A10EE100A00BD51
:1037B000140000200000B4C28400002000007A45FC
:1037C00000007A4500007AC500007AC59A9971C157
:1037D00000803B4600803BC600803B4600803BC6E5
:1037E00070477047FEF70CB930B593B0302168468A
:1037F000FCF738FD14210CA8FCF734FD1C4800250B
:10380000016841F080510160006800F08050119023
:103810001848016841F4404101600068022400F446
:103820004040119001200090000401908001CDE9FA
:1038300006400C2008906020CDE9090404200B907C
:103840006846FEF763FA08B172B6FEE70CA90F20CE
:1038500081E831004FF48050CDE90F0503210CA819
:10386000FEF768F9002801D072B6FEE713B030BD4C
:1038700040380240007000400248016841F4700185
:103880000160704788ED00E0704700000148FEF7D6
:10389000A8BD000008010020F0B50268204B214CB3
:1038A0009F03214D214E984207D0B84205D0A04237
:1038B00003D0A84201D0B04204D122F0700C4A6873
:1038C00042EA0C02984210D0B8420ED0A0420CD06E
:1038D000A8420AD0B04208D0154CA04205D0154CE1
:1038E000A04202D0144CA04203D122F44074CA6812
:1038F00022434C6922F08002224302608A68C2623D
:103900000A688262984201D109690163012141611B
:103910000169C90703D0016921F001010161F0BD0E
:10392000000001400004004000080040000C00407E
:1039300000400140004401400048014010B501F042
:103940001F030121046A99408C430462016A9A4072
:103950001143016210BD10B5846842EA032224F4C9
:103960007F440A432243826010BD826822F07002C5
:103970000A4342F0070181607047000030B5036AD6
:10398000026A22F0010202624268846924F073052F
:103990000C682C4323F002058B682B430A4DA84288
:1039A0000BD123F00805CB6822F440722B434D69FC
:1039B00023F0040315438A692A43426084614968FD
:1039C0004163036230BD00000000014030B5026A6F
:1039D000036A23F010030362436884690D6824F4CA
:1039E000E64444EA05248D6822F0200242EA0512EA
:1039F0000B4DA8420ED1CD6822F0800242EA05129A
:103A00004D6923F4406343EA85038D6922F0400247
:103A100043EA85034360846149688163026230BD83
:103A20000000014030B5036A026A22F4807202622B
:103A30004268C46923F4007324F073050C682C43B6
:103A40008D6843EA05230C4DA8420ED1CD6823F4BE
:103A5000006343EA05234D6922F4405242EA05120D
:103A60008D6923F4806342EA05124260C4614968AB
:103A7000C163036230BD00000000014030B5046A3C
:103A8000026A22F4805202624268C3690D6823F41C
:103A9000E64343EA05238D6824F4005444EA0534E0
:103AA000064DA84204D14D6922F4804242EA8512B3
:103AB0004260C36149680164046230BD0000014096
:103AC00010B5036A046A24F001040462846924F0D6
:103AD000F00444EA021423F00A020A4384610262F9
:103AE00010BD10B5036A046A24F0100404628469EE
:103AF00023F0A00324F4704444EA023243EA0111A3
:103B00008261016210BD0000184800B5007818B14C
:103B1000FDF742F9002000BD1548184A1849D0EDBC
:103B2000000A1448B8EEE01AD0ED000A1248F8EE88
:103B3000E00A71EE200A70EEC00AB2EE040AC0ED8F
:103B4000030A20EE800A10EE100A904202DD9FED7B
:103B50000D0A05E010EE100A884201D99FED0A0A0D
:103B6000BDEEC00A10EE100A00BD000014000020D7
:103B70005000002044000020840000200000FA458E
:103B80000000FAC50000FA450000FAC570B51048FB
:103B900040F257210568A5F22130884208D2F0EEA4
:103BA000C00A10EE900A0B49884201DA00240CE0AA
:103BB000012410EE100AFCF7F9FC41EC100B294629
:103BC00053EC102B04A000F08DFA204670BD0000CD
:103BD000100000200000204241726D5F63683620B3
:103BE0006973202564202C20616E676C65206973E1
:103BF000202566200D0A000010B5806B0021C185CC
:103C0000C184FEF7D3FD10BD70B5846B2068406998
:103C100094F84110C0F3C0100025212904D118B137
:103C2000E584204600F08EF82068406994F8421040
:103C3000C0F38010222904D118B1E585204600F098
:103C40005AF8606C40F0100060642046FEF7AEFD4C
:103C500070BD10B50146806B096809684FF000021D
:103C6000C9052ED4C28501680C3151E8003F23F408
:103C7000807341E80034002CF5D10168143151E81B
:103C8000003F23F0010341E80034002CF5D1016826
:103C9000143151E8003F23F0400341E80034002C88
:103CA000F5D1202180F84210016B012909D101686A
:103CB0000C3151E8003F23F0100341E80034002CA0
:103CC000F5D14263016B012902D0FEF75DFF10BD03
:103CD000818DFEF76AFD10BD10B5806B0121416337
:103CE000016B012902D0FEF750FF10BD818D4908FC
:103CF000FEF75BFD10BD01680C3151E8002F22F486
:103D0000907241E80023002BF5D10168143151E88D
:103D1000002F22F0010241E80023002BF5D1016BB6
:103D2000012909D101680C3151E8002F22F010025D
:103D300041E80023002BF5D1202180F8421000211A
:103D40000163704701680C3151E8002F22F0C00276
:103D500041E80023002BF5D1202180F84110704765
:103D600008B590F84210222901D0022008BD8268CF
:103D70004FF480539A4201D1016921B1816A9A427C
:103D80001BD04AB10AE00268816A5268C2F3080295
:103D90000A80816A891C08E0026972B1026852686F
:103DA00002F07F020A70816A491C8162C18D491E3E
:103DB0000904090CC18503D01BE002685268F1E7D1
:103DC0000168CA6822F02002CA600168CA6822F449
:103DD0008072CA6001684A6922F001024A612021AA
:103DE00080F8421000214163026B012A03D0FEF7E4
:103DF000CBFE002008BD016301680C3151E8002FA3
:103E000022F0100241E80023002BF5D101680A6876
:103E1000D20602D50A6849680091818DFEF7C5FC7B
:103E2000E7E7000070B5044600680169E26821F424
:103E30004051114301612169A068E2690843616949
:103E4000114308432168CA6849F20C639A4302434C
:103E5000CA6020684169A26921F44071114341613F
:103E600031492068884202D03049884202D1FDF7AA
:103E70000BFF01E0FDF7F8FEE2690023192164253C
:103E80003226B2F5004F626828D0A0FB0101930FE3
:103E90009200FCF79DF90146B0FBF5F06FF01802B7
:103EA000504301EB800006EB0010B0FBF5F000F092
:103EB000F002B1FBF5F002EB0012B1FBF5F06FF090
:103EC0001803584301EB800006EB0010B0FBF5F03F
:103ED00000F00F0021681044886070BDA0FB010154
:103EE00092185B41FCF774F90146B0FBF5F0020152
:103EF000B1FBF5F06FF01803584301EB800006EBBF
:103F0000C000B0FBF5F000F0F80002EB4002B1FB9E
:103F1000F5F0584301EB800006EBC000B0FBF5F074
:103F200000F00700D6E70000001001400014014037
:103F300038B58162044682850020134660642222DF
:103F400084F84220E56B1B4AEA63E56B1A4A2A644F
:103F5000E56B1A4AEA64E26B10650A462168E06B79
:103F6000091DFDF705FC2068016840680090206984
:103F700048B120680C3050E8001F41F4807140E8DF
:103F80000012002AF5D12068143050E8001F41F0DB
:103F9000010140E80012002AF5D12068143050E8F1
:103FA000001F41F0400140E80012002AF5D1002036
:103FB00038BD0000533C0008D93C0008093C00080B
:103FC0002DE9F843984617460D460446089E24E01E
:103FD000701C22D0FDF70EFDA0EB0800B0421AD8ED
:103FE000CEB12068C168490717D5802D15D0402D66
:103FF00013D00168C94309070FD401680025406840
:1040000000902046FFF777FE0820606484F8405057
:104010000120BDE8F8830320FBE72068006835EA4B
:10402000000004D00020B842D2D00020F1E70120E7
:10403000F9E700000148FEF7BBBB00009801002033
:1040400010B50348FEF7B4FBBDE81040FCF754BFC1
:10405000E0010020FEE700001A4B00B51B7823B1F9
:10406000FCF79AFE9FED180A00BD114400EE101AED
:10407000DFED160A194AB8EEC00A194920EE200AE7
:1040800000EE900A1248B8EEE01AD0ED000A12488D
:10409000F8EEE00A71EE200A70EEC00A9FED0D0AFC
:1040A000C0ED000A20EE800A10EE100A904202DDF8
:1040B000B2EE0E0A00BD10EE100A8842FAD9BAEE2E
:1040C0000E0A00BD14000020000000006F12833AA9
:1040D00040000020CDCC4C3D840000200000704109
:1040E000000070C10FB4054B10B503A9044A029833
:1040F00001F0A6FD10BC5DF814FB0000616400082F
:10410000B800002003B401984100009850EAC12093
:1041100018BF04204A0D18BF40F0010040F2FF72A2
:10412000B2EB515F08BF40F00200012808BF052034
:1041300002B070474100080218BF04200A0E18BFE1
:1041400040F001004FF07F4232EA010108BF40F029
:104150000200012808BF052070470907090E002842
:1041600004DB00F1E02080F80014704700F00F003D
:1041700000F1E02080F8141D7047000000000000EE
:1041800070B5C1482DED020B2DED0E8B82B0119D47
:1041900025F000449FEDBEDB9FEDBFEB84423EDB8C
:1041A000A4F140511098A1F17F6108430FD0BC48A1
:1041B000844202DC28D1109830B39DED100B02B080
:1041C000BDEC0E8B02B0BDE8704001F011BC9DED5E
:1041D000100B53EC1D2B51EC100BFCF7F5F89DED7B
:1041E000100B41EC180B53EC1E2B51EC100BFCF791
:1041F000EBF853EC182BFCF740F841EC100B02B035
:10420000BDEC0E8B02B070BD012001F051FC02B07C
:10421000BDEC0E8B02B0BDE8704001F0FDBBA148C3
:104220009FEDA18B844256DA9DED100BB4F1795FBE
:104230000ADA51EC100BFFF765FF042808BF01F004
:104240000BFC9DED100BDAE753EC102B51EC100B2F
:10425000FCF7BAF841EC190B95480621B0EE490A73
:10426000F0EE690A784401F02CFB53EC192B51EC69
:10427000100BFCF7A9F841EC1A0B8E48B0EE490A76
:10428000F0EE690A0421784401F01BFB53EC192B72
:1042900051EC100BFCF798F853EC182BFBF7EDFFE3
:1042A00041EC100B51EC1A0B53EC102BFCF7FEF801
:1042B000CDE900019DED000B53EC102B9DED100B93
:1042C00051EC100BFCF780F89DED101B53EC112BFB
:1042D000FBF7D3FFD2E09DED100B51EC100B02F079
:1042E0009DF853EC182BFCF76CF89FED730BCDE9A0
:1042F000000153EC102B9DED000B51EC100BFCF763
:1043000063F841EC190B6E480621B0EE490AF0EE55
:10431000690A784401F0D5FA53EC192B51EC100BD3
:10432000FCF752F841EC1B0B6648B0EE490AF0EE80
:10433000690A0421784401F0C4FA53EC192B51ECBA
:10434000100BFCF741F853EC182BFBF796FF41ECF0
:104350001C0B51EC190B02F0E5F841EC180B5A4814
:104360009FED5BABA04222DC53EC1C2B51EC1B0BF2
:10437000FCF79CF8CDE900019DED000B51EC180B0A
:1043800053EC102BFCF720F853EC182BFBF775FFC0
:1043900053EC1A2BFCF718F853EC1D2BFCF70EF816
:1043A00053EC1E2BFCF70DF841EC100B5FE08DED8C
:1043B000008B002000909DED000B51EC180B53EC8E
:1043C000102BFBF75AFF9DED000B41EC1E0B53EC3D
:1043D000102B51EC100BFBF7F7FF53EC192BFBF7ED
:1043E000F0FF53EC1E2BFCF761F841EC190B53EC7A
:1043F0001C2B51EC1B0BFCF759F841EC1B0B53EC3D
:104400001A2B51EC190BFBF7DFFF53EC1D2BFBF7BD
:10441000D8FF41EC190B53EC1A2B51EC180BFBF79E
:10442000D3FF53EC1B2BFBF7CFFF53EC192BFBF700
:10443000C5FF9DED000B41EC180B53EC1A2B51EC12
:10444000100BFBF7C1FF9FED249B53EC192BFBF7DF
:10445000B8FF41EC100B51EC180B53EC102BFBF791
:10446000ADFF53EC192BFBF7ACFF41EC100B002D0B
:104470003FF7C5AE51EC100B81F0004141EC100B41
:10448000BDE60000000000000000F03F000000005A
:10449000075C143326A6913C182D4454FB21F93FA8
:1044A0000000F07F0000E03F000000000000F03F4F
:1044B000502300005E230000000000000000E03FE9
:1044C000A2220000B02200003333EF3F00000000C2
:1044D0000000000000000040182D4454FB21E93F7B
:1044E00070B59B482DED020B2DED068B079D25F039
:1044F0000044A04218DC9748844202DC0AD10698A6
:1045000040B19DED060BBDEC068B02B0BDE87040DE
:1045100001F06EBA002DCCBF9FED8F0B9FED900B7D
:10452000BDEC068B02B070BD8F48A04215DD8F48F0
:10453000A042D8BF4FF0FF3458DD9DED060B51EC83
:10454000100BFFF7DFFD042808BF01F085FA9DED91
:10455000060BBDEC068B02B070BD9DED060B51EC59
:10456000100B01F05BFFCDE9060181489FED828BC6
:10457000A0423CDD8248A0421FDD00249FED82ABBB
:104580009DED060B53EC1A2B51EC100BFBF775FE4F
:104590009DED060B41EC190B53EC1A2B51EC100B53
:1045A000FBF712FF53EC182BFBF708FF53EC192B0A
:1045B000FBF77CFFCDE9060149E09DED060B0124E8
:1045C00053EC182B51EC100BFBF757FE9DED060B2F
:1045D00041EC190B53EC182B51EC100BFBF7EEFED2
:1045E00053EC192BFBF762FFCDE906012FE0684879
:1045F000A0421FDD02249FED689B9DED060B53EC4E
:10460000192B51EC100BFBF7DFFE53EC182BFBF7CB
:1046100034FE9DED060B41EC180B53EC192B51ECBD
:10462000100BFBF7CBFE53EC182BFBF73FFFCDE94C
:1046300006010CE09DED060B032453EC102B9FEDBF
:10464000580B51EC100BFBF731FFCDE906019DED46
:10465000060B53EC102B51EC100BFBF7B5FE41ECA5
:10466000180B53EC182BFBF7AFFE41EC190B4E481F
:104670000621B0EE490AF0EE690A784401F021F90A
:1046800053EC182B51EC100BFBF79EFE41EC180B72
:104690004648B0EE490AF0EE690A0521784401F077
:1046A00010F953EC192B51EC100BFBF78DFE41EC7C
:1046B000100B51EC180B53EC102B002C0EDAFBF7FF
:1046C000DCFD9DED061B53EC112BFBF77DFE9DEDF4
:1046D000061B53EC112BFBF774FE35E0FBF7CDFD09
:1046E0009DED061B53EC112BFBF76EFE41EC100BFE
:1046F0002F48784400EBC40090ED001B51EC100BE8
:1047000053EC112BFBF75AFE9DED061B53EC112BBE
:10471000FBF754FE41EC100B2648784400EBC40034
:1047200090ED001B51EC100B53EC112BFBF749FEE5
:1047300041EC100B002DA2BFBDEC068B02B070BD8A
:1047400051EC100B81F0004141EC100B01E700002F
:10475000000010440000F07F182D4454FB21F93F65
:10476000182D4454FB21F9BF0000DC3F0000203E1F
:104770000000F33F00000000000000000000F03FD8
:104780000000E63F000000000000000000000040C4
:104790000080034000000000000000000000F83F1F
:1047A000000000000000F0BF7A2000003020000070
:1047B000BA1F0000721F000070B56B4E2DED040B88
:1047C0002DED028B82B0DDF81CC0DDE905235C42D3
:1047D0002CF000411C4341EAD474049D22F00040B7
:1047E000B44205D86C422C4340EAD474B4420BD98D
:1047F0009DED061B9DED040B02B0BDEC028B04B0D9
:10480000BDE8704001F0FEB8ACF14054A4F17F6403
:104810001C430BD0022404EAAC7444EAD27405436E
:104820009FED538B9FED542B07D015E09DED040BAE
:1048300051EC100B01F09BFD42E0002C11BF012C4C
:104840009DED040B02B0BDEC028B04BF04B070BD43
:10485000022C38D0032C3BD00B439FED491B9FED1E
:104860004A0B0AD0B14218D1B04209D121F080419F
:1048700020F08040079105900FE0002A15DA10E043
:10488000434B7B44002C08BF93ED000B0DD0012C53
:1048900010D0022C17D0032C1AD0B0421DD1002A00
:1048A00003DAB0EE410AF0EE610A02B0BDEC028B11
:1048B00004B070BD93ED000B51EC100B81F0004182
:1048C00041EC100BF1E7B0EE480AF0EE680AECE7B5
:1048D000B0EE420AF0EE620AE7E7401A00153C2803
:1048E000C8BF8DED000B19DCBCF1000FBEBF10F18D
:1048F0003C0F9FED290B8DED000B0FDB9DED060BA3
:1049000053EC102B9DED040B51EC100BFBF7CEFD7F
:1049100001F084FD01F02BFDCDE90001002C08BF62
:104920009DED000BC1D0012C10D0022C9FED1C0B73
:1049300053EC102B9DED000B51EC100B0DD0FBF741
:104940003DFD53EC182BFBF739FDB9E7019880F0DA
:10495000004001909DED000BA7E7FBF72FFD53EC06
:10496000182BFBF72EFDABE70000F07F00000000E6
:10497000182D4454FB210940182D4454FB2109C033
:10498000182D4454FB21F9BF182D4454FB21F93F45
:10499000A21E000000000000000000000000000057
:1049A000075C143326A6A13C10EE100A10B510EED9
:1049B000901A4FF0684202EB40032DED028BB3F1E9
:1049C000654F3CBF02EB4102B2F1654F7CD200BFA4
:1049D000C0F3C753C1F3C7529A1A1B2A09DD10F05E
:1049E000004F14BF9FED6E0A9FED6E0ABDEC028B67
:1049F00010BD12F11A0F1BDA11F0004F09D010F0A0
:104A0000004F0CBF9FED680A9FED680ABDEC028B5A
:104A100010BD80EE208A18EE100AFFF78BFB0428E9
:104A200008BF01F02DF8B0EE480ABDEC028B10BDB6
:104A30004200B2EB410F37D910F0004F19BFDFED44
:104A40005C1A9FED5C1ADFED5C1A9FED5C1AB0EE0C
:104A5000602A0A46F1EE400A80F00041B0EE420AB8
:104A600010460A1A5200B2F1807F34D2484010F04A
:104A7000004FDFED532A9FED533A1DBFBEEE002AD3
:104A800071EEE21A31EE431AB6EE002A04BF71EE5F
:104A9000A21A31EE031AF0EE402A42EE602A40EEEE
:104AA000020A82EEA02A18E011F0004F04BF9FED29
:104AB000461AF0EE411AD4D010F0004F1CBFDFEDC3
:104AC000431A9FED431A00E026E004BFDFED411AD0
:104AD0009FED411AC5E780EE202A22EE020ADFEDA3
:104AE0003F0ADFED3F2ABDEC028B40EE202ADFEDCE
:104AF0003D0A40EE220ADFED3C2A40EE202ADFED9F
:104B00003B0A40EE220A22EE000A00EE201A31EEA5
:104B1000020A30EE210A10BD4FF07F42B2EB400F87
:104B200028BFB2EB410F05D2BDEC028BBDE81040AF
:104B300000F0A2BF40EA01035B0008BF41F0FF4163
:104B40000BD0B2EB400F08BFB2EB410F08D120F001
:104B5000804000EE100A21F0804100EE901A37E705
:104B6000B2EB400F12BF5FEA410240F0FF4001F09C
:104B700000413FF42DAF4A0092EA40033FF528AFD1
:104B8000002AACBF9FED1A1A9FED1A1A20EE010AF7
:104B900060EE810A10EE100A10EE901A18E700007D
:104BA000DB0FC9BFDB0FC93FDB0F4940DB0F49C03B
:104BB0000000C9BF22AAFDB90000C93F22AAFD39E1
:104BC0000060ED3EC30ACE3700000000000049C07F
:104BD00022AA7DBA0000494022AA7D3A2DAD65BDCA
:104BE0008FB8D53D0FB511BE61C84C3EA8AAAABE6C
:104BF0000000804F0000802F2DE9F04D2DED040BBB
:104C00002DED0E8B96B0DDE92550279CDDF890A0A8
:104C100025F0004624F00048BAF1000F14BF01212E
:104C2000002101EB4502FC4953184A1093422AD354
:104C3000002814BF0123002303EB44030B44F7496E
:104C40008B4220D358EA00019FEDF59B76D0DFF828
:104C5000D8B35D4503D1BAF1000F05D188E0BAF1B0
:104C6000000F08BF002100D0012101EB450111F523
:104C7000001F08D8002814BF0121002101EB4401C6
:104C800011F5001F0BD99DED261B9DED240B16B0D1
:104C9000BDEC0E8B04B0BDE8F04D00F0B3BE0027B4
:104CA000002DBCBFE149884521DAE1498845A8BF0C
:104CB00002271CDAC3451ADCDE4901EB285114290E
:104CC00008DDC1F1340220FA02F101FA02F2824257
:104CD0000DD108E058B9C1F1140228FA02F101FA25
:104CE00002F2424503D101F00101C1F1020756EA87
:104CF0000A0124D1002C22DA002D18BF022F01D086
:104D0000012F0AD0022000F0D3FE16B0BDEC0E8BAE
:104D100004B0BDE8F04D00F053BE022000F0C8FE24
:104D200000F04EFE51EC100B81F0004141EC100BF5
:104D300016B0BDEC0E8B04B0BDE8F08D18E09FED11
:104D4000BEAB9FEDBF8B002871D1B848804522D102
:104D500005F1804010F5801008BFBAF1000F07D0B0
:104D6000B3450ADC002CA8BF9DED260BE0DA0DE070
:104D7000B0EE490AF0EE690ADAE7002C06DA9DED9A
:104D8000260B51EC100B81F000416FE0AE487844E7
:104D900090ED000BCCE7D8454DD1002C48DA2EB170
:104DA00086423AD1BAF1000F42D126E0BAF1000FA3
:104DB00013D0022000F07CFE00F03EFE8DED020BD1
:104DC0009DED240B8DED000B10EE900A039961F31D
:104DD0001E0003909DED020BAAE78DED02AB9DED49
:104DE000240B1AEE901A10EE900A8DED000B61F371
:104DF0001E0003909DED020B9AE78DED028B9DED59
:104E0000240B18EE901A10EE900A8DED000B61F352
:104E10001E0003909DED020B8AE709DA9DED240B3D
:104E200051EC190B53EC102BFBF740FB1EE020E07C
:104E30009DED240B7CE786421BDAB4F1804F0DD048
:104E4000A4F10050B0F1FF5013D1002D11DB9DED06
:104E5000240B51EC100B01F065FB07E09DED240BDA
:104E600053EC102B51EC100B00F0C2BC41EC100BBA
:104E70005EE79DED240B51EC100B01F0CFFABAF177
:104E8000000FCDE90E0142D19FED710B46B3A6F1A3
:104E9000E040B0F17F600CD05E4538D1002D00DAE3
:104EA000A7B3022F0CBF01204FF0FF30FBF76DFBC3
:104EB000DCE7002D01DD002C0DDA002D01DD002CDA
:104EC0001FDB002D16DA002C14DB012F08BF9FED2D
:104ED000620B3FF42DAFB0EE4A0AF0EE6A0A27E704
:104EE000022F18BF002D0CD0012F0AD1002DFFF684
:104EF0001FAF06E0002DB8BF002C08DA012F3FF4E9
:104F000017AFB0EE480AF0EE680A11E71BE0012087
:104F100000EBE57050EA070115D0791EB0EE498A22
:104F2000F0EE698A084308BF9FED4D8B4E4800257F
:104F3000804570DD4D494E48884514DDB0420DDB9B
:104F4000002C19DB2FE0012000F0B2FD16B0BDEC03
:104F50000E8B04B0BDE8F04D00F05EBDB34502DC41
:104F6000002C09DC1FE0864202DA002C1BDA03E089
:104F70005E452BDD002C16DD022000F099FD00F0CF
:104F80005BFD8DED020B53EC1A2B51EC180BFBF76C
:104F90001BFACDE900010399019861F31E0003900B
:104FA0009DED020BC4E6022000F082FD00F054FDEE
:104FB00010EE901A18EE900A8DED020B8DED008B1D
:104FC00061F31E0003909DED020BB1E69DED0E0B0B
:104FD00053EC192B51EC100BFBF7F0F99FED260B5E
:104FE000CDE9080153EC102B9DED080B51EC100B93
:104FF000FBF7EAF99FED221B53EC112BFBF7E1F9CC
:105000009DED081B53EC112BFBF7DEF99FED1E1BEA
:1050100053EC112B3CE08CE0FFFF1F00FFFF0F0063
:10502000000000000000F03F0000F03F0000F07FB3
:105030000000404301FCFFFF000000000000F07F83
:1050400000000000000000009619000000000000B1
:105050000000000000000080000000000000F0FFE1
:10506000000000000000F0BF0000E0410000F0433D
:10507000FFFFEF3F00000000000000000000D03FF5
:10508000555555555555D53F000000000000E03FEF
:10509000FBF797F99DED080B41EC1A0B53EC102B25
:1050A00051EC100BFBF790F953EC1A2BFBF78CF932
:1050B00041EC1A0B9FEDFE0B53EC102B9DED080BF2
:1050C00051EC100BFBF780F941EC1B0B9FEDFA0B39
:1050D00051EC1A0B53EC102BFBF776F941EC1A0B41
:1050E0009FEDF70B53EC102B9DED080B51EC100BC3
:1050F000FBF76AF953EC1A2BFBF760F941EC1A0B3A
:1051000051EC1B0B53EC1A2BFBF7B7F80690CDE9CB
:1051100006519DED060B53EC1B2B51EC100BFBF7CE
:105120004DF953EC1A2BFBF74CF941EC100B00F046
:10513000A1B90020B6F5801F0EDA9FEDE30B53EC0A
:10514000102B9DED0E0B51EC100BFBF73DF9CDE94B
:105150000E016FF034000E4600EB2650A0F2FF3730
:10516000C6F31300DA4940F07F6646F040568842A5
:10517000D8BF002408DDD7498142C8BF012403DC21
:105180000024A6F580167F1CD348784400EBC400A9
:105190000F9690ED00CB9DED0E0B53EC1C2B51ECBC
:1051A000100BFBF70BF99DED0E0B41EC1B0B53ECB9
:1051B0001C2B51EC100BFBF760F841EC100B51EC81
:1051C000190B53EC102BFBF771F941EC1D0B51EC53
:1051D0001B0B53EC1D2BFBF7F7F841EC1A0BBF48E8
:1051E0008DED10AB7844109590ED000B4FF0005012
:1051F00040EA660000EB84408DED080B00F50020CE
:1052000009909DED080B53EC1C2B51EC100BFBF798
:10521000D5F89DED0E1B53EC112BFBF7D2F841ECAA
:10522000100B53EC102B9DED100B51EC100BFBF7FA
:10523000CBF89DED080B41EC1C0B53EC102B9DEDB6
:10524000100B51EC100BFBF7BFF853EC1B2BFBF7CB
:10525000B8F853EC1C2BFBF7B1F853EC1D2BFBF704
:10526000B3F841EC1C0B53EC1A2B51EC1A0BFBF767
:10527000ABF841EC1B0B9A480621B0EE4B0AF0EE5E
:105280006B0A784400F01DFBB0EE401AF0EE601A95
:10529000B0EE41DAF0EE61DA53EC1B2B51EC1B0B54
:1052A000FBF792F853EC1D2BFBF78EF89DED100BDE
:1052B00041EC1B0B53EC1A2B51EC100BFAF7DDFFF2
:1052C00053EC1C2BFBF780F853EC1B2BFAF7D5FFA4
:1052D0009DED100B41EC1B0B53EC102B51EC100B04
:1052E000FBF772F841EC1D0B9FED7FEB53EC1E2B8F
:1052F000FAF7C3FF53EC1B2BFAF7BFFF0890CDE979
:1053000008519DED080B53EC1E2B51EC100BFBF7D5
:1053100055F853EC1D2BFBF751F853EC1B2BFBF707
:1053200050F89DED080B41EC1D0B53EC102B9DED3F
:10533000100B51EC100BFBF747F841EC1B0B53EC37
:105340001A2B51EC1D0BFBF73FF89DED080B41ECC0
:105350001A0B53EC102B51EC1C0BFBF735F853ECEC
:105360001A2BFAF78AFF41EC1A0B51EC1B0B53EC8A
:105370001A2BFAF782FF0C90CDE90C519DED0C0B26
:1053800053EC1B2B51EC100BFBF718F853EC1A2BBA
:10539000FBF717F841EC1B0B9FED550B53EC102B53
:1053A0009DED0C0B51EC100BFBF70EF841EC1A0BBA
:1053B0009FED510B51EC1B0B53EC102BFBF704F83A
:1053C00041EC1B0B9FED4E0B53EC102B9DED0C0B8A
:1053D00051EC100BFAF7F8FF53EC1B2BFAF74DFFCB
:1053E00041EC100B4848784400EBC40090ED001BE2
:1053F00051EC100B53EC112BFAF73FFF41EC1B0B58
:105400003846FBF7C2F8CDE9080153EC1B2B51ECF1
:105410001A0BFAF732FF41EC100B3C48784400EBD2
:10542000C40090ED00CB51EC100B53EC1C2BFAF7A1
:1054300024FF9DED081B53EC112BFAF71EFF06907D
:10544000CDE906519DED080B53EC102B9DED060B9D
:1054500051EC100BFAF7B2FF53EC1C2BFAF7AEFF2E
:1054600053EC1A2BFAF7AAFF53EC1B2BFAF7A9FF00
:1054700041EC100B9DED261B53EC102B8DED001B0A
:1054800000959DED260B51EC100BFAF79DFF9DED5D
:10549000000B41EC1A0B53EC102B9DED260B51EC3D
:1054A000100BFAF78BFF9DED061B53EC112B2FE031
:1054B000000000604715F73FFE822B654715F73F58
:1054C00044DF5DF80BAE543E000000000000404396
:1054D0008E9803007AB60B007A1400004015000085
:1054E000B2130000000000000000000000000840AF
:1054F000000000E009C7EE3FFD033ADC09C7EE3FBC
:10550000F5015B14E02F3EBE3E120000F8110000D2
:10551000FAF75AFF53EC1A2BFAF7AFFE9DED060B84
:1055200041EC1A0B53EC102B9DED000B51EC100BC2
:10553000FAF74AFFCDE90C019DED0C0B51EC1A0B6B
:1055400053EC102BFAF799FECDE902010C46AA495B
:105550008C422FDB611A084318D19DED0C0B53ECE4
:10556000102B9DED020B51EC100BFAF727FF41ECCD
:105570001B0B9FEDA30B51EC1A0B53EC102BFAF7FE
:105580007CFE53EC1B2BFBF79BF92DD2022000F085
:105590008FFA00F051FA10EE901A18EE900A8DED85
:1055A000020B8DED008B61F31E0003909DED020B4D
:1055B000FFF7BEBB944A24F00041914214D39349B3
:1055C000214408437FF4EFAC9DED0C0B53EC102B02
:1055D0009DED020B51EC100BFAF7F0FE53EC1A2B79
:1055E000FBF76EF97FF6DFAC24F000408849894A6A
:1055F000002601EB205182422BDA481C4FF4801127
:1056000021FA00F02044844AC0F30A517A44A1F2FE
:10561000FF3192ED000B814A8DED080BCA4020EA64
:105620000202C0F3130040F48010C1F1140120FA0B
:1056300001F60992002CB8BF76429DED080B53ECA1
:10564000102B9DED0C0B51EC100BFAF7B7FECDE9CA
:105650000C019DED0C0B51EC1A0B53EC102BFAF7CF
:105660000CFE9FED6F0B0890CDE9085153EC102B09
:105670009DED080B51EC100BFAF7A6FE41EC1B0B4D
:105680009FED690B53EC102B9DED080B51EC100BAB
:10569000FAF79AFE9DED0C0B41EC1C0B53EC102B12
:1056A0009DED080B51EC100BFAF788FE53EC1A2B0A
:1056B000FAF787FE9FED5E1B53EC112BFAF784FE81
:1056C00053EC1C2BFAF7D9FD41EC1A0B51EC1B0BD8
:1056D00053EC1A2BFAF7D1FDCDE902019DED020B37
:1056E00053EC1B2B51EC100BFAF768FE53EC1A2B02
:1056F000FAF767FE9DED020B41EC1A0B53EC102BF1
:1057000051EC100BFAF760FECDE908014A489DED17
:10571000080B0521784400F0D4F89DED081B51ECEE
:10572000100B53EC112BFAF74FFE9DED021B53ECBF
:10573000112BFAF746FECDE906019DED020B53EC65
:105740001A2B51EC100BFAF73FFE53EC1A2BFAF719
:1057500094FD9FED3B0B41EC1A0B53EC102B9DED90
:10576000060B51EC100BFAF729FE9DED060B41ECF0
:105770001B0B53EC102B9DED020B51EC100BFAF7A9
:1057800023FE53EC1B2BFAF791FE53EC1A2BFAF77E
:1057900015FE9DED021B53EC112BFAF70FFE53EC97
:1057A000192BFAF70EFECDE9020101EB06500115A7
:1057B0000029C8BF039015DC9DED020B324651EC69
:1057C000100BFAF7FDFFFEF79DFC042808BF00F060
:1057D00043F932469DED020B51EC100BFAF7F0FF46
:1057E000CDE902019DED020B51EC180B53EC102B8F
:1057F000FAF7EAFDFFF73ABB000090400000000016
:10580000FE822B654715973C00CC904000346F3FDB
:1058100001FCFFFF0000E03F18110000FFFF0F0038
:1058200000000000432EE63F396CA80C615C20BEEE
:10583000EF39FAFE422EE63F500F00000000000054
:10584000000000000000004000B52DED048BB0EE1C
:10585000409AF0EE609A83B051EC190BFAF7C7FF4B
:1058600041EC180B18EE100A18EE901A8DED008B13
:10587000002818BF0120084320F00040C0F17F60DD
:1058800000F1E040C00F14D019EE101A19EE900A82
:105890008DED009B002918BF0121084320F0004036
:1058A000C0F17F6000F1E040C00F04BF012000F0B4
:1058B000FFF8B0EE480A03B0F0EE680ABDEC048BC6
:1058C00000BD70B504462DED028B4D1E00EBC500EA
:1058D000B0EE408AF0EE608A90ED000B35F00600E5
:1058E00017D053EC182B51EC100BFAF76DFD41EC6F
:1058F000100B6D1E04EBC50090ED001B51EC100B5E
:1059000053EC112BFAF7B9FC41EC100B35F0060003
:10591000E7D1022D36D0042D1CD0062D1CBFBDECC6
:10592000028B70BD53EC182B51EC100BFAF74CFDA9
:1059300094ED0A1B53EC112BFAF79FFC53EC182B38
:10594000FAF742FD94ED081B53EC112BFAF795FC86
:1059500041EC100B53EC182B51EC100BFAF734FD03
:1059600094ED061B53EC112BFAF787FC53EC182B24
:10597000FAF72AFD94ED040B53EC102BFAF77DFC9B
:1059800041EC100B53EC182B51EC100BFAF71CFDEB
:1059900094ED021B53EC112BFAF76FFC53EC182B10
:1059A000FAF712FD94ED001B53EC112BFAF765FC8E
:1059B000BDEC028B41EC100B70BD0000000000003C
:1059C0009FED070B10B553EC102B9FED070B51EC1F
:1059D000100BFAF76BFD41EC100B10BD000000003E
:1059E0000000000000000000000000000000F03F88
:1059F00010B553EC102B51EC100BFAF73EFC41ECB8
:105A0000100B10BD10B553EC112B51EC100BFAF725
:105A100034FC41EC100B10BD9FED050B10B553ECA1
:105A2000102B51EC100BFAF741FD41EC100B10BD9F
:105A300000000000000000009FED050B10B553ECC6
:105A4000102B51EC100BFAF7BFFC41EC100B10BD02
:105A500000000000000000709FED050B10B553EC36
:105A6000102B51EC100BFAF7AFFC41EC100B10BDF2
:105A7000000000000000001030EE200A7047000017
:105A80009FED020A20EE000A70470000000000109F
:105A900002E008C8121F08C1002AFAD170477047F7
:105AA000002001E001C1121F002AFBD17047000055
:105AB0000149086070470000BC0000202DE9FF5F2D
:105AC00082B00021DDE90430020DDDF840B003436F
:105AD00018D044F61050A2F2FF3242431514119828
