:020000040800F2
:1000000028070020AD010008753300082B2A0008DE
:10001000D9320008990A00088D3D00080000000050
:100020000000000000000000000000001F34000875
:1000300031110008000000001D340008B53400082C
:10004000C7010008C7010008C7010008C701000870
:10005000C7010008C7010008C7010008C701000860
:10006000C7010008C7010008C7010008C701000850
:10007000C7010008C7010008C7010008C701000840
:10008000C7010008C7010008C70100080000000000
:100090000000000000000000000000003311000814
:1000A000C7010008C7010008C7010008593500084A
:1000B0005D350008C7010008C7010008C701000836
:1000C000C7010008C7010008C7010008C7010008F0
:1000D000C70100084D3D0008C701000800000000EE
:1000E000C7010008C7010008C701000800000000A0
:1000F000000000000000000000000000C701000830
:1001000000000000C7010008C7010008C70100087F
:1001100000000000000000000000000000000000DF
:10012000C701000881100008C7010008C7010008C6
:10013000C7010008000000000000000000000000EF
:10014000000000000000000000000000C7010008DF
:10015000C7010008C7010008C7010008593D000891
:10016000C7010008C70100080000000000000000EF
:10017000000000000000000000000000000000007F
:1001800000000000C701000800000000000000009F
:10019000C7010008C7010008DFF80CD000F0A4FB7D
:1001A00000480047456700082807002006488047A8
:1001B00006480047FEE7FEE7FEE7FEE7FEE7FEE74C
:1001C000FEE7FEE7FEE7FEE7493500089901000873
:1001D0002DE9F05F0546002092469B46884606467C
:1001E000814640241BE0284641464746224600F00F
:1001F0002CFA53465A46C01A914110D3114618465C
:10020000224600F013FA2D1A67EB01084F462246EA
:100210000120002100F00AFA17EB00094E41201ED0
:10022000A4F10104DFDC484631462A464346BDE8D6
:10023000F09FD2B201E000F8012B491EFBD27047BB
:100240000022F6E710B513460A4604461946FFF7A2
:10025000F0FF204610BD30B504460020034600E004
:100260005B1C934203D2E05CCD5C401BF8D030BDF8
:100270002DE9FE4F804681EA0300C00F0C46009036
:1002800021F0004123F00045B8EB0200A94105D25E
:100290004046214690461C460B46024623F000404D
:1002A000104347D0270DC7F30A00C3F30A51029049
:1002B000401A019040286BDAC3F3130040F4801B0E
:1002C0000098924620B10023D2EB030A63EB0B0B9C
:1002D00001985946C0F14002504600F0A7F9064681
:1002E0000D4650465946019A00F0BFF910EB080040
:1002F0006141002487EA115284EAE7731A4340D02F
:10030000009A62B3019A012A4FEA075215DC001BDA
:1003100061EB02014FF0004202EA0752CDE90042D0
:10032000001C41F5801132462B4600F0F6F903B06F
:10033000BDE8F08F40462146F9E7001B61EB020162
:10034000001C41F5801300185B412018A2F500172E
:1003500047EB030140EAD570B6196D4111E06D0815
:100360004FEA360645EAC0754FEA0752001B61EBBB
:100370000201001C41F5801149084FEA30000019C4
:10038000514132462B4603B0BDE8F04F00F0B6B9FC
:100390000098012240000023D0EB020263EBE073DF
:1003A000009821464FEAE074B8EB000061EB0401CD
:1003B000E9E783F000435BE781F0004158E72DE96E
:1003C000FE4F81EA030404F0004421F00041009450
:1003D0004FF0000B23F0004350EA01045ED052EAD4
:1003E00003045BD0C3F30A54C1F30A552C44A4F2AE
:1003F000F3340194A0FB0254C1F3130141F48011C2
:10040000C3F3130343F4801301FB024400FB034EC8
:10041000840A970A44EA815447EA8357A4FB076891
:1004200002958D0A05FB07854FEA932C04FB0C54BB
:100430002705029D4FEA065847EA1637B5EB08052F
:100440006EEB070C870E920E47EA811742EA831281
:10045000A7FB0201B6EB0B0164EB00042B0D43EA92
:100460000C335E1844EB1C50DA465146E7FB0201A0
:10047000C5F313044FEA0B3343EA14534FEA043233
:10048000019C43EA0603A4F10C040294009CCDE90C
:1004900000B400F042F903B0BDE8F08F002001463F
:1004A000F9E72DE9F04D81EA030404F0004B21F057
:1004B000004514464FF0000A23F0004150EA0502BF
:1004C00020D054EA01021DD0C5F30A570246C5F3F5
:1004D0001303C1F31300C1F30A5640F4801543F42B
:1004E0008013A7EB0608101BD64608F2FD3873EB05
:1004F000050002D308F1010801E092185B41B8F150
:10050000000F03DA00200146BDE8F08D00204FF413
:100510008011064684460EE0171B73EB050705D3D2
:10052000121B63EB050306434CEA010C49084FEA32
:10053000300092185B4150EA0107EDD152EA030006
:1005400012D082EA040083EA0501084305D0101B9B
:10055000AB4106D20122002306E000224FF0004307
:1005600002E06FF0010253101AEB06004CEB085149
:1005700010EB0A0041EB0B01BDE8F04D00F0BEB8F6
:100580000EB5C10F80EAE0700844CA07002140F2AE
:1005900033438DE80E000A460B4600F0BEF803B068
:1005A00000BD00F0004230F000400AD0C10D01F55E
:1005B0006071C0F3160042EA0151C20840071143BE
:1005C000704700200146704701F0004330B421F02D
:1005D000004150EA010206D00A0DA2F56072C1F393
:1005E0001301002A02DC30BC00207047440F44EAAB
:1005F000C104C100E01830BC00EBC25000F047B8A5
:1006000030B50B46014600202022012409E021FAE2
:1006100002F59D4205D303FA02F5491B04FA02F5DF
:100620002844151EA2F10102F1DC30BD202A04DBB2
:10063000203A00FA02F1002070479140C2F12003F5
:1006400020FA03F3194390407047202A04DB203A34
:1006500021FA02F00021704721FA02F3D040C2F1E2
:1006600020029140084319467047202A06DBCB1729
:10067000203A41FA02F043EAE07306E041FA02F35D
:10068000D040C2F12002914008431946704700292A
:10069000A8BF7047401C490008BF20F00100704708
:1006A00010B4B0FA80FC00FA0CF050EA010404BF68
:1006B00010BC704749B1CCF1200421FA04F411FABE
:1006C0000CF118BF012121430843A3EB0C01CB1D02
:1006D0004FEA00614FEA102042BF002010BC704773
:1006E00000EBC35010440029A4BF10BC7047401C4D
:1006F000490008BF20F0010010BC704710B5141E5F
:1007000073F1000408DA401C41F1000192185B41CA
:100710001A4301D120F0010010BD2DE9F04D9246A1
:100720009B4611B1B1FA81F202E0B0FA80F22032B8
:100730009046FFF77BFF04460F4640EA0A0041EA75
:100740000B0153465A46084313D0114653EA0100A1
:1007500019D0C8F140025046FFF777FF05460E4614
:10076000504659464246FFF761FF084305D0012035
:1007700004E020463946BDE8F08D0020054346EAF6
:10078000E0762C4337430A986305E40AA0EB08009F
:100790000022FD0A44EA47540A3002D500200146EF
:1007A000E9E7010510196941DDE9084500196941CA
:1007B000BDE8F04DA2E770B521F0004303430CD033
:1007C000C1F30A550024D5EB040564EB0403D617E6
:1007D000AD1AB34102DB0020014670BD201841EB89
:1007E000025170BD2DE9F04D00231A461B1A8A41B3
:1007F00003DB00200146BDE8F08DC1F30A52C1F3CE
:10080000130141F480154FF0000BD10702D10018FD
:100810006D41521E0027044640F2FF11384601EB9D
:10082000620A3E468046024600204FF48011FFF7E0
:100830000CFFC2197141BB1846EB0100B4EB030C6D
:1008400075EB000C04D3E41A65EB000517460E4661
:10085000241908F101006D4180463428E3DDF919BF
:1008600046EB0600091BA84103D24FF0FF321346A6
:1008700001E0002213461BEB070046EB0A51BDE8DE
:10088000F04DFFF73BBFC1F30A52C1F3130140F231
:10089000FF3341F480119A4202DA0020014670478A
:1008A00040F233439A42A2F2334202DC5242FFF753
:1008B000CCBEFFF7BBBE000030B5041E71F10004D2
:1008C00004DB4FF00044404264EB0101141E73F15D
:1008D000000405DB1C464FF00043524263EB040367
:1008E000994208BF904230BD064C074D06E0E068D3
:1008F00040F0010394E8070098471034AC42F6D367
:10090000FFF74EFCB0840008D08400081A48DFEDE1
:100910001B1A01781A48012928D030EE600ADFED51
:10092000190A9FED193A21EE202AC2EE032A81EE20
:10093000812A90ED021A70EE411A61EEA00AF0EEE3
:10094000401A42EE800AF0EE002A41EE621AD0ED23
:10095000032A80ED031A80ED020A71EEA21A42EE1C
:10096000210ABDEEE00A10EE100A7047C0ED021A2F
:10097000C0ED031A0020704718000020000000009E
:10098000CC000020000034428FC2F53D70B52A4BE8
:100990001878012813D02948294C002190ED001A1D
:1009A000DFED280A2848B1EE410AB0EEC00A10EE89
:1009B000102AA24204DDC0ED030A0161017070BD7E
:1009C000224A1278002A426901D1521C4261012454
:1009D000B2F5C87F06DD10EE102A1D4DAA4201DADD
:1009E000047002E00278002AE9D090ED030A30EEAC
:1009F000411A80ED031A0269521C0261B2F5FA6FC6
:100A0000DDDB00EE102A134AF8EEC01A81EE210A4F
:100A100082ED000A1C70C0ED030A0161017010EE46
:100A2000100AFFF7BEFDBDE8704041EC100B0AA0B4
:100A300053EC102B03F000BA19000020280000200E
:100A40000000704100000000840000201800002019
:100A500000002041200000205A686F6E677A6869A4
:100A60003A2025660D0A00000A489FED090A80ED2C
:100A7000000A80ED010A80ED020A80ED030A80ED94
:100A8000040A80ED050A80ED060A80ED070A70472A
:100A900000000000CC000020FEE7000010B50A486E
:100AA00086B00DF1040C0179C479837942798CE820
:100AB0001E00C178009183784278017803A003F08A
:100AC000BBF906B010BD00009802002025782C2547
:100AD000782C25782C25782C25782C25782C2578B1
:100AE0002C25780A0000000070B50D4C0D4B00223B
:100AF0002060DA704FEA020103EB4105491CC9B2DC
:100B0000AA801029F8D307498022243101F024FD5E
:100B100020680068C16841F01001C16070BD00002C
:100B20003C000020740200203C48B0F80310C1F3E0
:100B30000A02A0F124018A800279D308427943EAAB
:100B40004213C3F30A03CB808379920942EA8303F9
:100B5000C27943EA8223C3F30A030B815308027A62
:100B600043EAC213C3F30A034B811309427A43EAEF
:100B70000213C3F30A038B81837AD20942EA430347
:100B8000C27A43EA4223C3F30A03CB819308027B70
:100B900043EA8213C3F30A030B82437B520942EAFE
:100BA000C3024A82C289C2F30A028A82C27BD30884
:100BB000027C43EA4213C3F30A03CB82437C9209CB
:100BC00042EA8303827C43EA8223C3F30A030B8352
:100BD0005308C27C43EAC213C3F30A034B831309CD
:100BE000027D43EA0213C3F30A038B83437DD209D8
:100BF00042EA4303827D43EA4223C3F30A03CB83E1
:100C00009308C27D43EA8213C3F30A030B84007E78
:100C1000520942EAC0004884704700009802002050
:100C20002DE9F05F314ADFF8C8B0A2F12401137852
:100C30000B700025DBF80000C82B07D0CD70802298
:100C4000243101F089FC0020BDE8F09F5378182B77
:100C500006D0CD708022254901F07EFC0120F3E70B
:100C60009478162C06D0CD708022204901F074FCB7
:100C70000220E9E78A464B701A271726941C9146F2
:100C800000210A464FF0D50CA35C59405FF00003E9
:100C90005FEA016802D58CEA410100E049005B1C73
:100CA000DBB2C9B2082BF3D3521CD2B2B242EBD39F
:100CB00009EB07028AF8021012F8012C54469142FF
:100CC0000BD1FFF731FF0120E07080220749DBF8EC
:100CD000000001F041FC0420B6E78AF803508022AE
:100CE000024901F039FC0320AEE700009802002021
:100CF0003C0000202DE9F04F2DED028B81B04FF428
:100D00000051B84800F09CFDB74AB849B84805F012
:100D1000B5FDB84CB84AB9496071B94801F012FF45
:100D2000B24FD4ED0A1AD4ED0B0A97ED001AC4EDB8
:100D30000B1AB34D31EE210A84ED0A1A30EE202A47
:100D4000F0EE080A82EE200A87ED000AB5F90000ED
:100D5000D4ED0C1A01EE100A94ED0D2AC4ED0D1A13
:100D6000B8EEC11A31EE211A31EE022A82EE201AB3
:100D700000EE900AF8EEE00AC4ED0C0AFDEEC10A9E
:100D800010EE900A06B22E8010EE100AFFF709FC52
:100D900041EC100B9BA053EC102B009603F04CF889
:100DA00000F0CCF905F04CF89FED9D8ADFF874B2A5
:100DB000DFF874A2002601280DD18AF80060FFF741
:100DC00053FE84ED068AE661266200220821584619
:100DD000666200F03DFD9AF80000E8B10021084687
:100DE00002F09CFA01220821584600F031FDFFF77D
:100DF0003BFE84ED068AE661266266626670A67036
:100E000084F8036001B04FF40051BDEC028B7548CB
:100E1000BDE8F04F00F014BDFFF7B8FD8349002096
:100E20000A7883490AB1086804E0824A12780AB154
:100E3000086840428049097809B1804904E0804946
:100E4000097819B14FF4C871A16000E0A66061781B
:100E5000491CC9B261709FED7B8ADFF8EC91DFF825
:100E6000EC8102292ED36670B0EE480AD9F8002032
:100E7000D8F8001002F08CFF6178754811B1D4EDFC
:100E8000060A03E0D0ED000AC4ED060A30EE800A3F
:100E9000F3EE040A84ED060A90ED001A71EE201AB2
:100EA000F4EEC01AF1EE10FA01D2C4ED061A31EEDA
:100EB000600AD4ED060AB4EEE00AF1EE10FA01DDA4
:100EC00084ED060AA078401CC0B2A07002280BD3A3
:100ED000A670B0EE481AD7ED000A94ED060AFFF7A7
:100EE00015FDE1690844E0619FED5A0AB5F900106B
:100EF000002002F041FA216A08442062E078401C98
:100F0000C0B2E07004280CD3E670DFED530A3A4813
:100F1000B0F9000000EE100AB8EEC00A02F05CFC66
:100F20006062216A4DA00D462C4602F085FF43F217
:100F3000C8204142854201DD054602E08D4200DACB
:100F40000D46844201DD044602E08C4200DA0C4684
:100F50006FF06300002D0BD002DAC5F1000100E054
:100F60002946642904DA002D01DD642500E00546E8
:100F7000002C0BD002DAC4F1000100E02146642904
:100F800004DA002C01DD642400E00446C8F80050B7
:100F9000294636A0C9F8004002F04EFF97ED000A3E
:100FA00002F084FC354C70B10125C4F8B852002120
:100FB000084602F0B3F98AF8005001220821584689
:100FC00000F046FC1EE7D9F80010D8F8000002F047
:100FD000A5F900220821584600F03AFCC4F8B8628E
:100FE00010E70000000802402C000020280000202C
:100FF0002400002084000020340000203200002063
:1010000030000020726F6C6C2069732025662C20E4
:101010006779726F78206973202564200D0A0000BB
:1010200000000000000402401800002036000020EC
:101030001C000020370000203800002070FEFFFF59
:10104000390000200AD7233B0800002004000020BC
:10105000200000200AD7A33A0AD7A33B70776D5F20
:101060004C20697320256420200D0A004D31206931
:101070007320256420200D0A0000000000804042FB
:10108000014800F06FB90000140200200168182325
:10109000CAB2103AB2FBF3F2054B6FF30901032A0F
:1010A0009B5CC36500D9091D816508467047000037
:1010B000C882000810B5014600208B698A6A4FF08B
:1010C000C07453B1B3F5005F15D072B1012A0CD0D2
:1010D000022A0AD0032A09D104E01AB1012A06D053
:1010E000022A03D1C96AC90100D5012010BDC96A0D
:1010F000A142FAD010BD002AF7D0012AF2D0022A6C
:10110000F3D0032AF3D010BD30B50468256825F468
:1011100080252560046863608368402B036803D0E2
:1011200099600068C26030BD9A600068C16030BDDF
:101130007047402000F088BA72B6FEE72DE9F04310
:101140004FF47A742DED048B81B0C4F10008494F3F
:10115000009440F21379F88843464A46AC2105F0E2
:1011600057FB454D43464A46286000947889AC2198
:1011700005F04EFB414E43464A4630600094F889E4
:10118000AC2105F045FB3E4908603068FFF7F8F9EF
:1011900041EC180B2868FFF7F3F941EC100BB0EEA7
:1011A000481AF0EE681A03F09BF951EC100BFFF7A8
:1011B0000BFA04463068FFF7E3F99FED329B41ECF0
:1011C000100BB0EE491AF0EE691A03F081FAB0EE96
:1011D000408AF0EE608A2868FFF7D2F941EC100BE4
:1011E000B0EE491AF0EE691A03F072FA53EC182BBC
:1011F00051EC100BFFF73CF841EC100B04F090F8A9
:1012000051EC100BFFF7E0F90646204F0021204873
:10121000204A214B214DBE422ADD214EDFF884C0F9
:10122000A7190126674502D80670117009E01E4F04
:10123000DFF870C027440CF1010C674508D201703B
:1012400016701970297001B0BDEC048BBDE8F083F5
:10125000154F7F42BC4206D2114FFF43BC4202DC15
:1012600019702E7001E01E70297001701170EAE78C
:101270001970F9E7740200200C0000201000002013
:10128000140000200000000000000040000048435F
:1012900036000020370000203800002039000020F0
:1012A00025F0B6C009BCCD0026F0B6402DE9F041CE
:1012B0000446876D00F0D2FA064694F83500002502
:1012C000022806D08020606584F834500120BDE8F3
:1012D000F0812068016821F01601016020684169F1
:1012E00021F080014161206C08B9A06C20B1206818
:1012F000016821F0080101602068016821F0010106
:1013000001600CE000F0AAFA801B052807D9202014
:101310006065032084F8350084F83450D7E72068EE
:101320000068C007EED194F85C103F208840B86098
:10133000012084F8350084F834500020C7E790F885
:101340003510022903D08021416501207047052115
:1013500080F835100068016821F00101016000206B
:10136000704700002DE9F84304464FF00009CDF81E
:10137000009063484FF41651A56D0068B0FBF1F77B
:101380002E6894F85C10082000FA01F131420FD069
:1013900021680A6852070BD50A6822F004020A6025
:1013A00094F85C108840A860606D40F001006065B2
:1013B00094F85C104FF0010808FA01F0304208D0B0
:1013C00021684969090604D5A860606D40F00200F3
:1013D000606594F85C1004208840304208D0216891
:1013E0000968890704D5A860606D40F00400606555
:1013F00094F85C1010208840304218D021680968A9
:10140000090714D5A86020680168490304D500685D
:10141000000308D5A16C07E00168C90503D4016881
:1014200021F008010160216C09B12046884794F839
:101430005C1020208840304231D021680968C906FC
:101440002DD5A86094F8350005282068016806D0DD
:10145000490347D5006800031DD4616C1CE021F0EE
:10146000160101602068416921F080014161206C12
:1014700008B9A06C20B12068016821F00801016062
:1014800094F85C103F208840A86084F8358084F888
:101490003490216D1FE0E16B09B120468847606DF3
:1014A00000282BD0606DC00714D0052084F83500CB
:1014B0002068016821F0010101600098401C009043
:1014C000B84203D820680068C007F6D184F8358098
:1014D00084F83490E16C002910D001B02046BDE8BA
:1014E000F04308470168C905D5D4016821F010010F
:1014F000016084F8358084F83490CCE7BDE8F88347
:10150000C80000202DE9F041044600F0A7F9064686
:101510005CB1022084F83500002584F8345020683E
:10152000016821F0010101600DE00120BDE8F081BA
:1015300000F094F9801B052805D920206065032060
:1015400084F83500F2E720680068C007F0D122680F
:10155000116820480140D4E901031843D4E9033657
:101560003343184363691843A3691843E369184375
:10157000236A18430843616A042903D1D4E90B1391
:1015800019430843106020684069666A20F007012B
:1015900030460E43012704280CD1A06A0643E06AB6
:1015A00040B12046FFF786FD20B14020606584F8F9
:1015B0003570BAE7206846612046FFF767FD94F86A
:1015C0005C203F2191408160656584F83570002082
:1015D000ACE700003F8010F02DE9F0410446866D35
:1015E00090F83400002501280DD0012084F8340043
:1015F00094F835700020012F07D084F834000225BC
:101600002846BDE8F0810220FBE7022784F8357008
:1016100060652046FFF778FD94F85C103F20884015
:10162000B0602068016841F016010160206C20B1B3
:101630002068016841F0080101602068016841F0FC
:1016400001010160DCE77047044910B50A680242F5
:1016500002D00860FFF7F7FF10BD0000143C014006
:101660002DE9F84FDFF8B8A10022012403254FF03F
:101670000F090AF1040BAAF1040E00BF0B6804FA6B
:1016800002F63340B34273D10F7907F00307012FFD
:1016900001D0022F16D187684FEA420805FA08FCEC
:1016A00027EA0C07D1F80CC00CFA08FC4CEA070C2E
:1016B000C0F808C04768B7430E79C6F300169640D5
:1016C0003E4346600E79F643B6070DD0C768560014
:1016D00005FA06FC27EA0C07D1F808C00CFA06FC4C
:1016E0004CEA070CC0F80CC00E7906F00306022E77
:1016F00010D1D60800EB8608D8F8206057074FEACB
:10170000D76C09FA0CF7BE430F6907FA0CF7374399
:10171000C8F8207006684FEA420C05FA0CF7BE4381
:101720000F7907F0030707FA0CF7374307604E6895
:1017300016F4403F6DD03B4E376847F48047376022
:10174000366822F0030706F480460096364E07EB13
:10175000060CDCF8086897073F0F09FA07F826EA35
:101760000806DFF8C880404503D14FF000081EE0AE
:101770004FE0DFF8BC80404502D14FF0010816E091
:10178000DFF8B080404502D14FF002080FE0DFF8EB
:10179000A880404502D14FF0030808E0DFF89C80A4
:1017A000404502D14FF0040801E04FF0070808FA65
:1017B00007F848EA0608CCF80888DAF800605746C7
:1017C000D1F804C09E435FEACC2C00D51E433E6096
:1017D000DBF800605F46D1F804C09E435FEA8C2CC2
:1017E00000D51E433E60DEF800607746D1F804C0A5
:1017F0009E435FEA8C3C00D51E433E60084F083F85
:101800003E68D1F804C09E435FEACC3C00D51E433D
:101810003E60521C102AFFF431AFBDE8F88F000083
:10182000083C0140443802400030014000000240C2
:101830000004024000080240000C02400010024078
:10184000426921EA02030A4043EA0241816170478A
:101850000AB1816170470904FBE700000148806814
:1018600070470000BC0000200248816802781144E3
:1018700081607047BC0000200B4810B5016841F43E
:1018800000710160016841F480610160016841F408
:1018900080710160032000F06FF8002000F006F86E
:1018A00000F024F8002010BD003C024070B50D4D42
:1018B00004464FF47A712878B1FBF0F00A490968C0
:1018C000B1FBF0F000F00CFB48B9102C07D200225D
:1018D0002146501E00F030F800206C6070BD0120E1
:1018E00070BD0000BC000020C80000200A4808B5F8
:1018F000016841F480410160006800F4804000907C
:101900000548001F016841F080510160006800F047
:101910008050009008BD000044380240002809DBD8
:1019200000F01F02012191404009800000F1E020F9
:10193000C0F8001170470000F0B40E4B1B680C4655
:10194000C3F30223C3F10705042D00D90425191D93
:10195000072901D2002300E0DB1E012606FA05F16B
:10196000491E214099409E40761E16403143F0BCEE
:1019700002F08ABA0CED00E0064900F007020868A0
:101980004FF6FF03184040EA0220034A1043086064
:10199000704700000CED00E00000FA052DE9F0476B
:1019A0000E46050065D0DFF81481D8F80000F7B2C4
:1019B00000F00700B04207D288F80070D8F80000A5
:1019C00000F00700B04254D128683D4C810712D581
:1019D000400703D5206840F4E050206028780007D5
:1019E00003D5206840F4604020602068A96820F09A
:1019F000F000084320602878C0072DD0304968687F
:101A00000839012812D0022813D0032811D0096800
:101A1000890700292DDA216821F0030101432160A3
:101A2000FFF71CFF814641F2883A0EE009688903FE
:101A3000EFE709688901ECE7FFF710FFA0EB090168
:101A4000514502D90320BDE8F0872068696800F09D
:101A50000C00B0EB810FEFD1D8F80010404601F038
:101A60000701B14207D90770006800F00700B042D3
:101A700001D00120E7E72878400705D52068E9680C
:101A800020F4E050084320602878000706D520683D
:101A9000296920F4604040EAC100206000F038F875
:101AA0002168084AC1F30311515CC8400649086027
:101AB00006480068FFF7FAFE0020C4E7003C024039
:101AC00008380240D0820008C8000020C000002072
:101AD0000448054900680968044AC1F38221515C41
:101AE000C8407047C800002008380240E082000863
:101AF0000448054900680968044AC1F34231515C51
:101B0000C8407047C800002008380240E082000842
:101B1000154810B5006810F00C02144813D0144991
:101B2000042A0FD0082A0ED10F4C241F22682368E4
:101B300002F03F025B0207D52068C0F38810A0FBCB
:101B4000010106E0084610BD2168C1F38811A1FB20
:101B500000010023FEF73CFB2168C1F30141491C51
:101B60004900B0FBF1F010BD083802400024F40039
:101B700040787D012DE9F84F04006ED02078DFF821
:101B80004C93C007A9F104054AD009F1040001688B
:101B9000C1F38101012908D00068C0F38100022847
:101BA0000AD1D9F80000400206D52868800337D54D
:101BB00060680028E1D033E06068B0F5803F10D065
:101BC000B0F5A02F286810D020F480302860286855
:101BD00020F4802028606068A8B1FFF73FFE064629
:101BE0000DE0286840F48030F4E740F4802028605D
:101BF000F7E700BFFFF732FE801B642873D8286820
:101C00008003F7D50CE0FFF729FE064605E000BF8C
:101C1000FFF724FE801B6428F0D828688003F7D4DF
:101C20002078DFF8AC8280074FF0000A3ED5A74845
:101C3000001D016811F00C0F08D00068C0F381008E
:101C400002280BD1D9F80000400207D42868800789
:101C500016D5E068012800D112E033E1E068B8B1A0
:101C60000120C8F80000FFF7F9FD064605E000BFB7
:101C7000FFF7F4FD801B0228C0D828688007F7D53D
:101C80002868216920F0F80040EAC10028600DE0D2
:101C9000C8F800A0FFF7E2FD064604E0FFF7DEFD0E
:101CA000801B02281FD828688007F7D420780007F7
:101CB00022D5864F87486169703771B10121016073
:101CC000FFF7CCFD064604E0FFF7C8FD801B0228A5
:101CD00009D838688007F7D50EE0C0F800A0FFF7F4
:101CE000BDFD064605E082E0FFF7B8FD801B022837
:101CF0007DD838688007F7D42078400768D5DFF8AA
:101D0000CCB100270BF13C0BDBF80000C0000BD47A
:101D1000DBF8001041F08051CBF80010DBF8000038
:101D2000012700F0805000906B4E3068C00510D441
:101D3000306840F480703060FFF790FD009005E05F
:101D4000FFF78CFD0099401A022850D83068C00572
:101D5000F6D55E4EA0686C3601280FD00528306895
:101D600010D020F001003060306820F004003060B6
:101D7000A068B8B1FFF772FD00900FE0306840F046
:101D80000100F4E740F004003060F7E7FFF766FD7C
:101D90000099411A41F28830814266D83068800744
:101DA000F4D50EE0FFF75AFD009007E0FFF756FD6F
:101DB0000099411A41F28830814256D83068800734
:101DC000F4D42FB1DBF8001021F08051CBF80010D3
:101DD000A069C8B33D49091D0968C1F38101022901
:101DE0004AD00228504607D0C8F8600000E03CE026
:101DF000FFF734FD04463BE04746C8F86000FFF7B4
:101E00002DFD064605E000BFFFF728FD801B0228D8
:101E10002BD828688001F7D4D4E907010843A16AC8
:101E20002E4A490802EB0141626A41EA82110843E5
:101E300094F82C1040EA0161C9F8001001203866BE
:101E4000FFF70CFD044606E03EE000BFFFF706FD8D
:101E5000001B022809D828688001F7D534E000BFAC
:101E6000FFF7FCFC001B022802D90320BDE8F88F15
:101E700028688001F4D427E00128F7D0D9F80000C1
:101E8000E26900F4800191421CD1226A00F03F0116
:101E9000914217D147F6C071626A0140B1EB821FCF
:101EA00010D1A26A4FF0FF3300F4403103EB52022D
:101EB000B1EB024F06D194F82C1000F07060B0EB3B
:101EC000016F01D00120D1E70020CFE704380240A4
:101ED00000004742800E4742007000400000FFFFB4
:101EE00010B5401EB0F1807F01D3012010BD4FF02E
:101EF000E02460610F21601701F0C6FF0020A0619F
:101F000007202061002010BD7047704710B590F881
:101F10003C20012A22D0012280F83C20CA688C682B
:101F200022F4407222434C6822F4806222430C68FF
:101F300022F4006222430C6922F4805222434C694D
:101F400022F400522243C969002322F480420A434A
:101F500001684A6480F83C30002010BD022010BDAA
:101F600070B590F83C20012A2CD0012480F83C4028
:101F7000022280F83D2003685A689D6822F07006AE
:101F80000A6832435A60104B02689A420ED0B2F18E
:101F9000804F0BD00D4B9A4208D00D4B9A4205D082
:101FA0000C4B9A4202D00C4B9A4204D1496825F05E
:101FB00080031943916080F83D40002180F83C1077
:101FC000084670BD022070BD0000014000040040C2
:101FD00000080040000C00400040014010B5040023
:101FE00003D094F83D0010B107E0012010BD00209F
:101FF00084F83C00204600F01FF8022084F83D00E1
:10200000211D206801F0B0FA012084F8460084F810
:102010003E0084F83F0084F8400084F8410084F8D2
:10202000420084F8430084F8440084F8450084F8B2
:102030003D00002010BD000008B500681549884229
:102040000FD11548016841F00101016000680022CC
:1020500000F001000090BDE8084011461B20FFF78A
:102060006BBCB0F1804F13D10B48001F016841F0E9
:10207000010101600068002200F0010000900121D0
:102080001C20FFF759FCBDE808401C20FFF746BCA8
:1020900008BD0000000001404438024090F83D10A7
:1020A000012901D001207047022180F83D1001680C
:1020B000CA6842F00102CA6000680E4988420ED028
:1020C000B0F1804F0BD00C49884208D00B498842B0
:1020D00005D00B49884202D00A49884204D1816860
:1020E00001F00701062903D0016841F001010160F8
:1020F000002070470000014000040040000800403C
:10210000000C00400040014070B5044690F83C00CF
:102110000025012817D0012684F83C60022084F8AD
:102120003D002068826822F0770222F47F428260BC
:102130000868502838D00DDC20284FD005DC90B33B
:10214000102811D14AE0022070BD302846D0402826
:102150000AD13BE060282FD070280DD0B0F5805F09
:1021600003D0B0F5005F12D0012584F83D60002057
:1021700084F83C00284670BDCB68D1E90121206875
:1021800001F051FA2068816841F0770109E0CB68DD
:10219000D1E90121206801F046FA2068816841F404
:1021A00080418160E1E719E0CA684968206801F070
:1021B000EFFA5021206806E0CA684968206801F0FB
:1021C000F8FA6021206801F038FACEE7CA68496859
:1021D000206801F0DDFA40212068F4E7226801461A
:1021E0001046F0E770472DE9F04104460068C668E4
:1021F00005694FF00007A90713D5B10711D5F91EDE
:10220000016101202077206880698007204602D084
:10221000FFF7E8FF04E000F0A9F8204600F03BF9E2
:102220002777680716D5700714D521686FF004006A
:102230000861022020772068806910F4407F2046E2
:1022400002D0FFF7CFFF04E000F090F8204600F046
:1022500022F92777280715D5300713D521686FF0A5
:1022600008000861042020772068C06980072046A4
:1022700002D0FFF7B7FF04E000F078F8204600F046
:102280000AF92777E80616D5F00614D521686FF00D
:1022900010000861082020772068C06910F4407F92
:1022A000204602D0FFF79EFF04E000F05FF82046D2
:1022B00000F0F1F82777E80708D0F00706D021688A
:1022C0006FF001000861204600F03EF9280608D5AD
:1022D000300606D521686FF0800008612046FFF7C0
:1022E00013FE680608D5700606D521686FF0400019
:1022F0000861204600F02FF9A8060AD5B00608D5D7
:1023000021686FF0200008612046BDE8F041FFF72A
:10231000FCBDBDE8F081000010B586B00446142174
:102320006846FDF78DFF0E492068884216D10D489A
:102330000021026842F001020260006800F0010022
:1023400005904FF4407000900220CDE90101039008
:102350000120049069460448FFF782F906B010BDD9
:10236000000001403038024000000240704770B564
:10237000044690F83C0000260D4601280FD00120AD
:1023800084F83C006AB1042A1DD0082A2FD00C2AF8
:102390003FD00126002084F83C00304670BD02206A
:1023A00070BD206801F052F92068816941F0080190
:1023B00081612068816921F004018161206881695F
:1023C0002A69114311E0206801F068F920688169E9
:1023D00041F4006181612068816921F4806181613B
:1023E000206881692A6941EA02218161D2E7206877
:1023F00001F080F92068C16941F00801C1612068DD
:10240000C16921F00401C1612068C1692A691143D1
:1024100011E0206801F09AF92068C16941F4006177
:10242000C1612068C16921F48061C1612068C1690E
:102430002A6941EA0221C161ACE710B5040003D06A
:1024400094F83D0010B107E0012010BD002084F891
:102450003C00204600F01EF8022084F83D00211DBB
:10246000206801F081F8012084F8460084F83E00DD
:1024700084F83F0084F8400084F8410084F842006A
:1024800084F8430084F8440084F8450084F83D0053
:10249000002010BD7047704710B50446022249B1B4
:1024A00004290ED0082913D094F84100012816D031
:1024B000012010BD94F83E000128F9D184F83E2097
:1024C0000FE094F83F000128F2D184F83F2008E0A3
:1024D00094F840000128EBD184F8402001E084F812
:1024E00041200122206801F091F8124920688842B9
:1024F00003D1426C42F400424264206888420ED00C
:10250000B0F1804F0BD00C49884208D00B4988426B
:1025100005D00B49884202D00A49884204D181681B
:1025200001F00701062903D0016841F001010160B3
:10253000002010BD000001400004004000080040E1
:10254000000C0040004001400068B0F1804F01D114
:10255000FEF7D0BB7047704738B5044690F842008C
:10256000202801D0022038BD61B15AB1012020637A
:1025700000206063204601F067FB0028F3D1216B47
:10258000012901D0012038BD21680A6849680091FD
:1025900021680C3151E8002F42F0100241E800237D
:1025A000002BF5D138BD704770470000F8B50168C1
:1025B00004460868CA684B6910F00F0F4FF0000519
:1025C00059D003F0010602F49077374365D0C10774
:1025D00005D0D10503D5616C41F00101616441076B
:1025E00005D5D90703D0616C41F002016164810710
:1025F00005D5D90703D0616C41F00401616401077E
:1026000007D502F02001314303D0616C41F008018D
:102610006164616C00293AD0800604D5900602D529
:10262000204601F029FA20684069616CC0F38010EF
:10263000090700D460B3204601F0E9F92068406939
:10264000400621D52068143050E8001F21F04001D9
:1026500040E80012002AF5D1E06BA8B16E4901658F
:10266000E06BFEF76CFE002811D0E06B016D01B04D
:10267000BDE8F040084783060FD593060DD52046E8
:10268000BDE8F84001F0F8B92046FFF78DFFF8BD2E
:102690002046FFF789FF6564F8BD266B2023012ED5
:1026A0007DD1C6067BD5D60679D5086848680090E6
:1026B00048694FF00206400641D5E16B0868406862
:1026C0000004000CE8D0A28D8242E5D9E085C869FB
:1026D000B0F5807F2DD020680C3050E8001F21F429
:1026E000807140E80012002AF5D12068143050E8CB
:1026F000001F21F0010140E80012002AF5D12068F6
:10270000143050E8001F21F0400140E80012002A78
:10271000F5D184F84230256320680C3050E8001F62
:1027200021F0100140E80012002AF5D1E06BFEF71D
:10273000BDFD6663A08DE18D401A81B22AE0A08DB7
:10274000E18D401A81B2E08D0028A5D00029A3D0E8
:1027500022680C3252E8000F20F4907042E8000723
:10276000002FF5D12068143050E8002F22F001022C
:1027700040E80027002FF5D184F842302563206817
:102780000C3050E8002F22F0100240E80023002B0C
:10279000F5D166632046FFF706FFF8BDFFE70506A3
:1027A0002BD5150629D594F841002128F5D1A0682C
:1027B000B0F5805F01D12069B0B1206A411C21626F
:1027C000216800784860E08C401E0004000CE08422
:1027D000E3D12068C16821F08001C1602068C16830
:1027E00041F04001C160D8E7206A0088C0F30800CA
:1027F0004860206A801C2062E5E74006CDD550067F
:10280000CBD5CA68204622F04002CA6084F8413025
:1028100000F00AF9C1E700001139000870B50400A2
:1028200004D094F84100002510B106E0012070BDED
:1028300084F84050204600F023F8242084F841001A
:102840002068C16821F40051C160204601F076F98A
:102850002068016921F4904101612068416921F0FB
:102860002A0141612068C16841F40051C16065647A
:10287000202084F8410084F842006563002070BD88
:10288000F0B587B0064614216846FDF7D9FC3849F3
:10289000DFF8D8C0376800253548143902220324F0
:1028A000344B674521D1066846F010060660006883
:1028B00000F010000590086840F00100086008680A
:1028C000694600F0010005904FF404408DE82500B2
:1028D0000720CDE903401846FEF7C2FE002207217B
:1028E0002520FFF729F825203BE0DFF88CC067455D
:1028F00039D1076847F020070760006800F0200022
:102900000590086840F0010008600868694600F01A
:10291000010005904FF4C0508DE825000820CDE956
:1029200003401846FEF79CFE154C144820608005B5
:10293000C4E901054FF48060C4E903506561A561F5
:10294000E561256220466562FEF7DCFD08B1FEF711
:10295000F3FBF463002205214720A663FEF7ECFF9A
:102960004720FEF7DBFF07B0F0BD0000001001407C
:102970004438024000000240001401402864024034
:1029800014020020704770472DE9F843044690F880
:102990004100984616460D46202802D00220BDE888
:1029A000F88385B17EB100206064212084F8410065
:1029B000FEF754FFA6848146E684A0682027B0F580
:1029C000805F02D003E00120E9E7206910B12E46C4
:1029D00000250EE000260CE08021204601F07CF965
:1029E000A8B9C6B116F8010B21684860E08C401EFA
:1029F000E084E08C4B464FF00002CDF800800028C8
:102A0000EAD14FF04001204601F066F940B184F868
:102A100041700320C3E735F8020BC0F30800E3E779
:102A200084F841700020BAE77047FEE710B500F067
:102A3000C3F880216B2000F074FA00282ED020A06B
:102A400001F0FAF9642003F021FA00216B2000F074
:102A500068FA032000F031FA002000F029FA322051
:102A600000F048FA0021382000F05BFA00216A20CB
:102A700000F057FA0021232000F053FA802137207C
:102A800000F04FFA752000F0BFF90446014614A08B
:102A900001F0D2F9682C03D0012010BD17A0CFE7B8
:102AA00001216B2000F03DFA00216C2000F039FA82
:102AB000C82000F01FFA19A001F0BEF9002010BDD7
:102AC00077726974696E67206F7065726174696F7F
:102AD0006E2069732077726F6E672021200D0A00C7
:102AE0004D50553630353020646576696365204E2B
:102AF0006F2E206973202578200D0A007772697483
:102B0000696E67206F7065726174696F6E2069739A
:102B100020726967687421200D0A00004D505536F7
:102B20003035305F496E6974207375636365737304
:102B300066756C6C792066696E69736865642120BE
:102B40000D0A00007CB514460D4606466B4606226B
:102B50004321682000F076F900280BD1BDF8001061
:102B600049BA3180BDF8021049BA2980BDF8041075
:102B700049BA21807CBD000070B50D4C0025C4F819
:102B800098520C48016821F440410160016841F409
:102B900080410160C4F89C52012004F5267403F0C2
:102BA00089F90120206003F085F9256070BD0000DF
:102BB000008040420004024010B586B014216846EF
:102BC000FDF73EFB0E48016841F00201016000681C
:102BD0000C4C00F002000590C020009001200190F4
:102BE0000320039069462046FEF73AFD0122C021EA
:102BF0002046FEF72DFE04A001F01EF906B010BD20
:102C0000303802400004024049494320696E69742B
:102C1000696174656421210D0A00000070B50D4CD6
:102C20000025C4F898520C48016821F44041016025
:102C3000016841F4804101600126C4F89C6230467D
:102C400004F5267403F036F92660012003F032F90A
:102C5000256070BD00804042000402402DE9F0472D
:102C6000814616480024016821F440410160016852
:102C70000160134E254627464FF00108C6F89872AA
:102C8000012003F017F9C6F898826006040ED6F802
:102C90001C0208B1641CE4B2012003F00BF96D1CA6
:102CA000EDB2082DEAD3B9F1000F04D0FFF764FFAD
:102CB0002046BDE8F087FFF7B1FFF9E700040240C6
:102CC000008040422DE9F04106461448016821F495
:102CD00040410160016841F480410160104C0027CF
:102CE000C4F898723D464FF00108F009C4F89C0200
:102CF0007006060E012003F0DDF8C4F8988201206A
:102D000003F0D8F8C4F89872012003F0D3F86D1CD2
:102D1000EDB2082DE9D3BDE8F081000000040240C7
:102D20000080404270B51148016821F440410160C3
:102D3000016841F4804101600D4C0120C4F89C02FF
:102D4000D4F81C1249B1C4F8980203F0B3F8002576
:102D5000C4F89C52D4F81C0208B1002070BD0120B8
:102D600003F0A8F8C4F89852012070BD0004024096
:102D7000008040420D4810B5016821F440410160D7
:102D8000016841F480410160094C0020C4F89802B8
:102D9000C4F89C02012004F5267403F08BF801208E
:102DA00020606060BDE8104003F084B80004024079
:102DB0000080404270B512480024016821F440416F
:102DC0000160016801600F4D0126C5F89C62304624
:102DD00003F070F8C5F8986207E0641CE4B2FA2CBE
:102DE00003D9FFF7C7FF012070BD012003F062F88F
:102DF000D5F81C020028F0D1C5F8980270BD00007B
:102E0000000402400080404210B50446FFF78AFFEC
:102E1000D020FFF757FFFFF7CDFF2046FFF752FF07
:102E2000FFF7C8FFFFF77EFFD120FFF74BFFFFF74B
:102E3000C1FF0020FFF712FF0446FFF79BFF20466B
:102E400010BD00002DE9F0411D4614460F46064610
:102E5000FFF768FF7006000EFFF734FFFFF7AAFFC9
:102E600020B1FFF787FF0120BDE8F0813846FFF76A
:102E700029FFFFF79FFFFFF755FF012000EB4600FA
:102E8000C0B2FFF71FFFFFF795FF09E0012C0DD03F
:102E90005FF00100FFF7E2FE641E05F8010BE4B2EB
:102EA000002CF3D1FFF766FF0020DDE70020F1E7FB
:102EB000C006010E1C2000F034B8C006010E1B2015
:102EC00000F02FB8BC2801D3012110E0622801D303
:102ED00002210CE02A2801D3032108E0142801D3A1
:102EE000042104E00A2801D3052100E006211A206C
:102EF00000F017B810B504464FF47A70844201D937
:102F0000044602E0042C00D20424B0FBF4F0401E7E
:102F1000C1B2192000F005F86008BDE81040FFF7C5
:102F2000D1BF70B50C460546FFF7FCFED020FFF779
:102F3000C9FEFFF73FFF50B92846FFF7C3FEFFF772
:102F400039FF2046FFF7BEFEFFF734FF18B1FFF749
:102F500011FF012070BDFFF70DFF002070BD2DE9AE
:102F6000F0411E4615460F460446FFF7DBFE60069D
:102F7000000EFFF7A7FEFFF71DFF60B93846FFF709
:102F8000A1FEFFF717FF00240CE0305DFFF79AFE6B
:102F9000FFF710FF20B1FFF7EDFE0120BDE8F08143
:102FA000641CE4B2AC42F0D3FFF7E4FE0020F5E786
:102FB000094808B5016841F48001016000680022F9
:102FC00000F48000009009213920FEF7B5FCBDE82F
:102FD00008403920FEF7A2BC303802402DE9F0430A
:102FE00087B014216846FDF72BF949480025016890
:102FF00041F004010160016801F0040105910168DC
:1030000041F080010160016801F0800105910168D3
:1030100041F001010160016801F0010105910168C1
:1030200041F0020101600068012200F00200394F06
:103030005403059021463846FEF70AFC660000223C
:1030400031463846FEF704FCDFF8CC8000221A2116
:103050004046FEF7FDFBDFF8C4900022CF21484632
:10306000FEF7F6FB012231464846FEF7F1FB0094DD
:103070000124694638460194CDE90245FEF7F0FA8D
:103080001A208DE83100694640460395FEF7E8FABC
:10309000402000904FF40410CDE9010469464046F9
:1030A000FEF7DEFACDE9006469463846CDE902450F
:1030B000FEF7D6FAC7208DE8310003200390694659
:1030C0004846FEF7CDFACDE9006469464846CDE9A9
:1030D0000245FEF7C5FA0820CDE900040220CDE93B
:1030E000020569464846FEF7BBFA1020CDE9000507
:1030F000694602944846FEF7B3FA002202211720DF
:10310000FEF71AFC1720FEF709FC07B0BDE8F083B4
:103110003038024000080240000002400004024033
:1031200010B596B000240F94109411941294139437
:103130001C2168461494FDF783F8202107A8FDF7A9
:103140007FF82E482C4901600921C0E9011440F2A2
:10315000E731C0E903148021C0E90541FEF73EFFD5
:1031600008B1FDF7E9FF4FF480500F900FA92348F5
:10317000FEF7CAFF08B1FDF7DFFF2048FFF75DF952
:1031800008B1FDF7D9FF139413A91C481494FEF756
:10319000E7FE08B1FDF7D0FF6020009040F2F31089
:1031A000CDE901040420CDE90340059400226946DD
:1031B00012480694FFF7DBF808B1FDF7BDFF0422C3
:1031C00069460E48FFF7D3F808B1FDF7B5FF07943D
:1031D000089409944FF400500A94CDE90B4007A9D4
:1031E00006480E94FEF792FE08B1FDF7A5FF0348CE
:1031F000FFF792F816B010BD00000140F400002067
:1032000010B586B0002416480094019402940394EB
:1032100004944FF08041059401606321C0E90114DA
:1032200040F2E141C0E903148461FEF7D7FE08B122
:10323000FDF782FF4FF48050009069460848FEF782
:1032400063FF08B1FDF778FF049404A904480594CE
:10325000FEF786FE002801D0FDF76EFF06B010BD18
:103260003C0100200C4810B50A4901604FF4E131DF
:103270004160002181600C22C160C0E904128161BB
:10328000C161FFF7CBFA002803D0BDE81040FDF77D
:1032900053BF10BD00100140840100200C4810B540
:1032A0000A4901600B494160002181600C22C16024
:1032B000C0E904128161C161FFF7B0FA002803D0B0
:1032C000BDE81040FDF738BF10BD000000140140FC
:1032D000CC010020A0680600FEE7000010B5002128
:1032E0000C48FFF7D9F804210A48FFF7D5F8094937
:1032F00000200A68506309688863074C0246082169
:103300002046FEF7A5FA20460022BDE81040102115
:10331000FEF79EBAF40000200000024070B5144E83
:103320000C46051E01DD002201E004DA012208211D
:103330003046FEF78DFA002D00DC6D422946002054
:1033400000F06EF8002C02DD4FF0000202E006DA19
:103350004FF001024FF010013046FEF779FA002CD1
:1033600000DC64422146BDE87040042000F058B8FB
:1033700000000240FEE70000214A1378214A012B99
:1033800036D000EE900ADFED202ADFED201AB8EEED
:10339000E01A00EE901AF8EEE00A71EE600A20EEF4
:1033A000221A81EE212A9FED1A1AC1EE001A92ED1F
:1033B000041A30EEC10A20EE220AF0EE002A02EED4
:1033C000200AB0EE602A01EE622AD2ED052A82EDD3
:1033D000051AC2ED040ADFED0F0A32EE222A01EED1
:1033E000820A20EE200ABDEEC00A10EE100A7047D5
:1033F0009FED090A002082ED040A82ED050A70475C
:1034000018000020CC000020666636C0B81EC53EFD
:1034100000000080CDCC4C3F00000000704770479A
:1034200010B5224CC82922680DDA002128B10428E1
:1034300005D0082805D0116410BD516310BD9163FB
:1034400010BDD16310BD44F62063994200DD1946DA
:1034500000EE101AF2EE040A9FED151AB8EEC00A3B
:1034600060EE200A81EE200A10EE101AB1F1804FB2
:1034700001DAB0EE000AF7EE000A30EE600ABCEEA8
:10348000C00A10EE103A590800D1012138B10428C1
:1034900007D0082807D011642068C36210BD5163AB
:1034A000FAE79163F8E7D163F6E70000F400002043
:1034B0008096184BFEF7D8B930B593B030216846E6
:1034C000FCF7BEFE14210CA8FCF7BAFE1C48002530
:1034D000016841F080510160006800F08050119057
:1034E0001848016841F4404101600068022400F47A
:1034F0004040119001200090000401908001CDE92E
:1035000006400C2008906020CDE9090404200B90AF
:103510006846FEF72FFB08B172B6FEE70CA90F2034
:1035200081E831004FF48050CDE90F0503210CA84C
:10353000FEF734FA002801D072B6FEE713B030BDB2
:1035400040380240007000400248016841F47001B8
:103550000160704788ED00E0704700000148FEF709
:1035600042BE00003C010020F0B50268204B214C17
:103570009F03214D214E984207D0B84205D0A0426A
:1035800003D0A84201D0B04204D122F0700C4A68A6
:1035900042EA0C02984210D0B8420ED0A0420CD0A1
:1035A000A8420AD0B04208D0154CA04205D0154C14
:1035B000A04202D0144CA04203D122F44074CA6845
:1035C00022434C6922F08002224302608A68C26270
:1035D0000A688262984201D109690163012141614F
:1035E0000169C90703D0016921F001010161F0BD42
:1035F000000001400004004000080040000C0040B2
:1036000000400140004401400048014010B501F075
:103610001F030121046A99408C430462016A9A40A5
:103620001143016210BD10B5846842EA032224F4FC
:103630007F440A432243826010BD826822F07002F8
:103640000A4342F0070181607047000030B5036A09
:10365000026A22F0010202624268846924F0730562
:103660000C682C4323F002058B682B430A4DA842BB
:103670000BD123F00805CB6822F440722B434D692F
:1036800023F0040315438A692A4342608461496830
:103690004163036230BD00000000014030B5026AA2
:1036A000036A23F010030362436884690D6824F4FD
:1036B000E64444EA05248D6822F0200242EA05121D
:1036C0000B4DA8420ED1CD6822F0800242EA0512CD
:1036D0004D6923F4406343EA85038D6922F040027B
:1036E00043EA85034360846149688163026230BDB7
:1036F0000000014030B5036A026A22F4807202625F
:103700004268C46923F4007324F073050C682C43E9
:103710008D6843EA05230C4DA8420ED1CD6823F4F1
:10372000006343EA05234D6922F4405242EA051240
:103730008D6923F4806342EA05124260C4614968DE
:10374000C163036230BD00000000014030B5046A6F
:10375000026A22F4805202624268C3690D6823F44F
:10376000E64343EA05238D6824F4005444EA053413
:10377000064DA84204D14D6922F4804242EA8512E6
:103780004260C36149680164046230BD00000140C9
:1037900010B5036A046A24F001040462846924F009
:1037A000F00444EA021423F00A020A43846102622C
:1037B00010BD10B5036A046A24F010040462846921
:1037C00023F0A00324F4704444EA023243EA0111D6
:1037D0008261016210BD0000284801782848012953
:1037E00044D028499FED292ADFED292A91ED001ABE
:1037F0002549294AF8EEC11A91ED001AB8EEC11A0E
:1038000031EE811A31EE400A20EE821AC1EE221A00
:10381000DFED202A82EEA01AD0ED070A70EE800AB2
:1038200010EE901AC0ED070A914203DDDFED1B0A8E
:10383000C0ED070A10EE901A194A914203D9DFED44
:10384000190AC0ED070A60EE020A90ED072A41EE60
:10385000820AD0ED061A80ED060A70EE611A41EE7A
:10386000210ABDEEE00A10EE100A70479FED0E0A25
:1038700080ED060A80ED070A00207047180000203E
:10388000CC0000208C00002080000020CDCC4CBF5C
:103890000000C843000000800000FA440000FA4421
:1038A0000000FAC40000FAC40000000070B510481F
:1038B00040F257210568A5F22130884208D2F0EE87
:1038C000C00A10EE900A0B49884201DA00240CE08D
:1038D000012410EE100AFCF764FE41EC100B29469F
:1038E00053EC102B04A000F0A7FA204670BD000096
:1038F000140000200000A04141726D3A20256C6444
:103900002C20416E676C653A2025660D0A00000088
:1039100010B5806B0021C185C184FEF745FE10BD46
:1039200070B5846B2068406994F84110C0F3C010F2
:103930000025212904D118B1E584204600F08EF835
:103940002068406994F84210C0F38010222904D105
:1039500018B1E585204600F05AF8606C40F0100080
:1039600060642046FEF720FE70BD10B50146806BF6
:10397000096809684FF00002C9052ED4C2850168A4
:103980000C3151E8003F23F4807341E80034002CEF
:10399000F5D10168143151E8003F23F0010341E8FB
:1039A0000034002CF5D10168143151E8003F23F0B8
:1039B000400341E80034002CF5D1202180F842106A
:1039C000016B012909D101680C3151E8003F23F056
:1039D000100341E80034002CF5D14263016B01294A
:1039E00002D0FEF7CFFF10BD818DFEF7DCFD10BDCC
:1039F00010B5806B01214163016B012902D0FEF7F4
:103A0000C2FF10BD818D4908FEF7CDFD10BD0168D4
:103A10000C3151E8002F22F4907241E80023002B72
:103A2000F5D10168143151E8002F22F0010241E87C
:103A30000023002BF5D1016B012909D101680C315C
:103A400051E8002F22F0100241E80023002BF5D1AD
:103A5000202180F8421000210163704701680C3179
:103A600051E8002F22F0C00241E80023002BF5D1DD
:103A7000202180F84110704708B590F842102229A3
:103A800001D0022008BD82684FF480539A4201D1D0
:103A9000016921B1816A9A421BD04AB10AE00268E9
:103AA000816A5268C2F308020A80816A891C08E0B0
:103AB000026972B10268526802F07F020A70816A7C
:103AC000491C8162C18D491E0904090CC18503D0BE
:103AD0001BE002685268F1E70168CA6822F0200220
:103AE000CA600168CA6822F48072CA6001684A69C3
:103AF00022F001024A61202180F842100021416336
:103B0000026B012A03D0FEF73DFF002008BD0163D0
:103B100001680C3151E8002F22F0100241E8002327
:103B2000002BF5D101680A68D20602D50A684968F7
:103B30000091818DFEF737FDE7E7000070B5044680
:103B400000680169E26821F4405111430161216973
:103B5000A068E26908436169114308432168CA68A3
:103B600049F20C639A430243CA6020684169A26922
:103B700021F440711143416131492068884202D0EB
:103B80003049884202D1FDF7B3FF01E0FDF7A0FF05
:103B9000E2690023192164253226B2F5004F6268DC
:103BA00028D0A0FB0101930F9200FCF711FB014606
:103BB000B0FBF5F06FF01802504301EB800006EB0C
:103BC0000010B0FBF5F000F0F002B1FBF5F002EBF5
:103BD0000012B1FBF5F06FF01803584301EB8000C1
:103BE00006EB0010B0FBF5F000F00F002168104468
:103BF000886070BDA0FB010192185B41FCF7E8FAF8
:103C00000146B0FBF5F00201B1FBF5F06FF01803CF
:103C1000584301EB800006EBC000B0FBF5F000F06C
:103C2000F80002EB4002B1FBF5F0584301EB8000D5
:103C300006EBC000B0FBF5F000F00700D6E700008F
:103C4000001001400014014038B5816204468285AD
:103C5000002013466064222284F84220E56B1B4A50
:103C6000EA63E56B1A4A2A64E56B1A4AEA64E26B76
:103C700010650A462168E06B091DFDF7ADFC206860
:103C8000016840680090206948B120680C3050E815
:103C9000001F41F4807140E80012002AF5D120682D
:103CA000143050E8001F41F0010140E80012002AE2
:103CB000F5D12068143050E8001F41F0400140E881
:103CC0000012002AF5D1002038BD00006B39000831
:103CD000F1390008213900082DE9F84398461746C4
:103CE0000D460446089E24E0701C22D0FDF7B6FD68
:103CF000A0EB0800B0421AD8CEB12068C1684907CD
:103D000017D5802D15D0402D13D00168C943090760
:103D10000FD401680025406800902046FFF777FE29
:103D20000820606484F840500120BDE8F883032037
:103D3000FBE72068006835EA000004D00020B842A4
:103D4000D2D00020F1E70120F9E700000148FEF79A
:103D50002DBC00008401002010B50548FEF726FCAC
:103D6000FCF75EFFBDE8104002A000F065B800005F
:103D7000CC010020656E74657220696E746F2069D5
:103D80006E74657275707420210D0A00FEE70000E4
:103D9000224B10B51C78224B012C38D0114400EE78
:103DA000901AB6EE001ADFED202AF8EEE00A60EE77
:103DB000810A01EE100A1B48F8EEC11A90ED001AB4
:103DC000B8EEC11A31EE811ADFED181A71EE600AF1
:103DD00020EE221A81EE212A9FED151AC1EE001A5B
:103DE00093ED001A30EEC10A20EE220AF0EE002A0E
:103DF00002EE200AB0EE602A01EE622AD3ED012A1B
:103E0000C3EC020A32EE222A01EE820A10BD9FEDB7
:103E1000090A83ED000A83ED010A10BD1800002095
:103E2000CC0000207C0000209A9919BFCDCCCC3E5C
:103E300000000080000000000FB4054B10B503A97E
:103E4000044A029801F05CFC10BC5DF814FB000011
:103E5000C1660008EC00002003B4019841000098FE
:103E600050EAC12018BF04204A0D18BF40F00100DD
:103E700040F2FF72B2EB515F08BF40F00200012830
:103E800008BF052002B070470907090E002804DBAF
:103E900000F1E02080F80014704700F00F0000F1FE
:103EA000E02080F8141D704770B5C1482DED020B5D
:103EB0002DED0E8B82B0119D25F000449FEDBEDBF1
:103EC0009FEDBFEB84423EDBA4F140511098A1F17D
:103ED0007F6108430FD0BC48844202DC28D110988F
:103EE00030B39DED100B02B0BDEC0E8B02B0BDE8FF
:103EF000704001F0E9BA9DED100B53EC1D2B51EC15
:103F0000100BFCF75CFA9DED100B41EC180B53EC19
:103F10001E2B51EC100BFCF752FA53EC182BFCF74C
:103F2000A7F941EC100B02B0BDEC0E8B02B070BDD6
:103F3000012001F01DFB02B0BDEC0E8B02B0BDE80C
:103F4000704001F0D5BAA1489FEDA18B844256DAAA
:103F50009DED100BB4F1795F0ADA51EC100BFFF70D
:103F60007BFF042808BF01F0E3FA9DED100BDAE7B0
:103F700053EC102B51EC100BFCF721FA41EC190B10
:103F800095480621B0EE490AF0EE690A784401F03E
:103F900004FA53EC192B51EC100BFCF710FA41EC1E
:103FA0001A0B8E48B0EE490AF0EE690A04217844F3
:103FB00001F0F3F953EC192B51EC100BFCF7FFF95E
:103FC00053EC182BFCF754F941EC100B51EC1A0B85
:103FD00053EC102BFCF765FACDE900019DED000BC9
:103FE00053EC102B9DED100B51EC100BFCF7E7F987
:103FF0009DED101B53EC112BFCF73AF9D2E09DED2F
:10400000100B51EC100B02F04FFB53EC182BFCF78C
:10401000D3F99FED730BCDE9000153EC102B9DED0F
:10402000000B51EC100BFCF7CAF941EC190B6E4870
:104030000621B0EE490AF0EE690A784401F0ADF9C4
:1040400053EC192B51EC100BFCF7B9F941EC1B0B9D
:104050006648B0EE490AF0EE690A0421784401F09E
:104060009CF953EC192B51EC100BFCF7A8F953EC0D
:10407000182BFCF7FDF841EC1C0B51EC190B03F06D
:10408000C9FA41EC180B5A489FED5BABA04222DC09
:1040900053EC1C2B51EC1B0BFCF703FACDE9000190
:1040A0009DED000B51EC180B53EC102BFCF787F92E
:1040B00053EC182BFCF7DCF853EC1A2BFCF77FF9C8
:1040C00053EC1D2BFCF775F953EC1E2BFCF774F920
:1040D00041EC100B5FE08DED008B002000909DED1A
:1040E000000B51EC180B53EC102BFCF7C1F89DEDB5
:1040F000000B41EC1E0B53EC102B51EC100BFCF79A
:104100005EF953EC192BFCF757F953EC1E2BFCF717
:10411000C8F941EC190B53EC1C2B51EC1B0BFCF7B1
:10412000C0F941EC1B0B53EC1A2B51EC190BFCF7AB
:1041300046F953EC1D2BFCF73FF941EC190B53ECFE
:104140001A2B51EC180BFCF73AF953EC1B2BFCF72C
:1041500036F953EC192BFCF72CF99DED000B41ECD3
:10416000180B53EC1A2B51EC100BFCF728F99FEDB0
:10417000249B53EC192BFCF71FF941EC100B51EC6D
:10418000180B53EC102BFCF714F953EC192BFCF71C
:1041900013F941EC100B002D3FF7C5AE51EC100B9D
:1041A00081F0004141EC100BBDE600000000000072
:1041B0000000F03F00000000075C143326A6913C8D
:1041C000182D4454FB21F93F0000F07F0000E03F30
:1041D000000000000000F03F58430000664300006C
:1041E000000000000000E03FAA420000B8420000CA
:1041F0003333EF3F000000000000000000000040EB
:10420000182D4454FB21E93F70B59B482DED020B5E
:104210002DED068B079D25F00044A04218DC974841
:10422000844202DC0AD1069840B19DED060BBDEC3C
:10423000068B02B0BDE8704001F046B9002DCCBF3E
:104240009FED8F0B9FED900BBDEC068B02B070BD08
:104250008F48A04215DD8F48A042D8BF4FF0FF34F1
:1042600058DD9DED060B51EC100BFFF7F5FD042812
:1042700008BF01F05DF99DED060BBDEC068B02B0A9
:1042800070BD9DED060B51EC100B02F00DFACDE95F
:10429000060181489FED828BA0423CDD8248A0420E
:1042A0001FDD00249FED82AB9DED060B53EC1A2B16
:1042B00051EC100BFBF7DCFF9DED060B41EC190BED
:1042C00053EC1A2B51EC100BFCF779F853EC182B2C
:1042D000FCF76FF853EC192BFCF7E3F8CDE9060176
:1042E00049E09DED060B012453EC182B51EC100B0B
:1042F000FBF7BEFF9DED060B41EC190B53EC182BA1
:1043000051EC100BFCF755F853EC192BFCF7C9F8DE
:10431000CDE906012FE06848A0421FDD02249FED91
:10432000689B9DED060B53EC192B51EC100BFCF721
:1043300046F853EC182BFBF79BFF9DED060B41EC69
:10434000180B53EC192B51EC100BFCF732F853EC13
:10435000182BFCF7A6F8CDE906010CE09DED060B45
:10436000032453EC102B9FED580B51EC100BFCF772
:1043700098F8CDE906019DED060B53EC102B51EC9E
:10438000100BFCF71CF841EC180B53EC182BFCF746
:1043900016F841EC190B4E480621B0EE490AF0EE32
:1043A000690A784400F0F9FF53EC182B51EC100B1C
:1043B000FCF705F841EC180B4648B0EE490AF0EE60
:1043C000690A0521784400F0E8FF53EC192B51EC01
:1043D000100BFBF7F4FF41EC100B51EC180B53ECF6
:1043E000102B002C0EDAFBF743FF9DED061B53EC60
:1043F000112BFBF7E4FF9DED061B53EC112BFBF794
:10440000DBFF35E0FBF734FF9DED061B53EC112B72
:10441000FBF7D5FF41EC100B2F48784400EBC400AC
:1044200090ED001B51EC100B53EC112BFBF7C1FF6F
:104430009DED061B53EC112BFBF7BBFF41EC100B62
:104440002648784400EBC40090ED001B51EC100BA3
:1044500053EC112BFBF7B0FF41EC100B002DA2BF6A
:10446000BDEC068B02B070BD51EC100B81F0004129
:1044700041EC100B01E70000000010440000F07F49
:10448000182D4454FB21F93F182D4454FB21F9BF4A
:104490000000DC3F0000203E0000F33F0000000071
:1044A000000000000000F03F0000E63F00000000B8
:1044B00000000000000000400080034000000000F9
:1044C000000000000000F83F000000000000F0BF06
:1044D0008240000038400000C23F00007A3F0000E8
:1044E00070B56B4E2DED040B2DED028B82B0DDF817
:1044F0001CC0DDE905235C422CF000411C4341EA6D
:10450000D474049D22F00040B44205D86C422C4380
:1045100040EAD474B4420BD99DED061B9DED040B0B
:1045200002B0BDEC028B04B0BDE8704000F0D6BF15
:10453000ACF14054A4F17F641C430BD0022404EA84
:10454000AC7444EAD27405439FED538B9FED542B1A
:1045500007D015E09DED040B51EC100B01F067FC4A
:1045600042E0002C11BF012C9DED040B02B0BDEC0C
:10457000028B04BF04B070BD022C38D0032C3BD09A
:104580000B439FED491B9FED4A0B0AD0B14218D156
:10459000B04209D121F0804120F080400791059080
:1045A0000FE0002A15DA10E0434B7B44002C08BFD3
:1045B00093ED000B0DD0012C10D0022C17D0032C42
:1045C0001AD0B0421DD1002A03DAB0EE410AF0EE53
:1045D000610A02B0BDEC028B04B070BD93ED000B1C
:1045E00051EC100B81F0004141EC100BF1E7B0EE03
:1045F000480AF0EE680AECE7B0EE420AF0EE620A12
:10460000E7E7401A00153C28C8BF8DED000B19DC08
:10461000BCF1000FBEBF10F13C0F9FED290B8DEDDB
:10462000000B0FDB9DED060B53EC102B9DED040BE7
:1046300051EC100BFBF735FF02F036F801F0F7FBF9
:10464000CDE90001002C08BF9DED000BC1D0012C6D
:1046500010D0022C9FED1C0B53EC102B9DED000B8A
:1046600051EC100B0DD0FBF7A4FE53EC182BFBF70D
:10467000A0FEB9E7019880F0004001909DED000B8D
:10468000A7E7FBF796FE53EC182BFBF795FEABE77D
:104690000000F07F00000000182D4454FB21094069
:1046A000182D4454FB2109C0182D4454FB21F9BF97
:1046B000182D4454FB21F93FAA3E000000000000E1
:1046C0000000000000000000075C143326A6A13C97
:1046D0002DE9F04D2DED040B2DED0E8B96B0DDE99F
:1046E0002550279CDDF890A025F0004624F00048D6
:1046F000BAF1000F14BF0121002101EB4502FC4972
:1047000053184A1093422AD3002814BF01230023D0
:1047100003EB44030B44F7498B4220D358EA0001D2
:104720009FEDF59B76D0DFF8D8B35D4503D1BAF1A4
:10473000000F05D188E0BAF1000F08BF002100D0BA
:10474000012101EB450111F5001F08D8002814BF15
:104750000121002101EB440111F5001F0BD99DED52
:10476000261B9DED240B16B0BDEC0E8B04B0BDE8EE
:10477000F04D00F0B3BE0027002DBCBFE1498845D5
:1047800021DAE1498845A8BF02271CDAC3451ADCB3
:10479000DE4901EB2851142908DDC1F1340220FA69
:1047A00002F101FA02F282420DD108E058B9C1F1DA
:1047B000140228FA02F101FA02F2424503D101F093
:1047C0000101C1F1020756EA0A0124D1002C22DAC4
:1047D000002D18BF022F01D0012F0AD0022000F0B7
:1047E000C7FE16B0BDEC0E8B04B0BDE8F04D00F076
:1047F00053BE022000F0BCFE00F04EFE51EC100B48
:1048000081F0004141EC100B16B0BDEC0E8B04B0F2
:10481000BDE8F08D18E09FEDBEAB9FEDBF8B00288B
:1048200071D1B848804522D105F1804010F5801043
:1048300008BFBAF1000F07D0B3450ADC002CA8BFAF
:104840009DED260BE0DA0DE0B0EE490AF0EE690AC4
:10485000DAE7002C06DA9DED260B51EC100B81F007
:1048600000416FE0AE48784490ED000BCCE7D845AE
:104870004DD1002C48DA2EB186423AD1BAF1000F60
:1048800042D126E0BAF1000F13D0022000F070FEF2
:1048900000F03EFE8DED020B9DED240B8DED000B27
:1048A00010EE900A039961F31E0003909DED020B38
:1048B000AAE78DED02AB9DED240B1AEE901A10EED7
:1048C000900A8DED000B61F31E0003909DED020B2D
:1048D0009AE78DED028B9DED240B18EE901A10EEE9
:1048E000900A8DED000B61F31E0003909DED020B0D
:1048F0008AE709DA9DED240B51EC190B53EC102BD0
:10490000FBF7CFFD1EE020E09DED240B7CE7864207
:104910001BDAB4F1804F0DD0A4F10050B0F1FF507C
:1049200013D1002D11DB9DED240B51EC100B02F087
:1049300071FE07E09DED240B53EC102B51EC100B96
:1049400000F0C2BC41EC100B5EE79DED240B51EC76
:10495000100B01F0A9FEBAF1000FCDE90E0142D112
:104960009FED710B46B3A6F1E040B0F17F600CD033
:104970005E4538D1002D00DAA7B3022F0CBF01200D
:104980004FF0FF30FBF7FCFDDCE7002D01DD002CD4
:104990000DDA002D01DD002C1FDB002D16DA002CB6
:1049A00014DB012F08BF9FED620B3FF42DAFB0EE7B
:1049B0004A0AF0EE6A0A27E7022F18BF002D0CD032
:1049C000012F0AD1002DFFF61FAF06E0002DB8BF62
:1049D000002C08DA012F3FF417AFB0EE480AF0EED2
:1049E000680A11E71BE0012000EBE57050EA0701BF
:1049F00015D0791EB0EE498AF0EE698A084308BFE7
:104A00009FED4D8B4E480025804570DD4D494E4849
:104A1000884514DDB0420DDB002C19DB2FE00120AE
:104A200000F0A6FD16B0BDEC0E8B04B0BDE8F04D55
:104A300000F05EBDB34502DC002C09DC1FE08642BD
:104A400002DA002C1BDA03E05E452BDD002C16DDBC
:104A5000022000F08DFD00F05BFD8DED020B53ECAC
:104A60001A2B51EC180BFBF7AAFCCDE900010399B6
:104A7000019861F31E0003909DED020BC4E6022035
:104A800000F076FD00F054FD10EE901A18EE900A3A
:104A90008DED020B8DED008B61F31E0003909DEDFB
:104AA000020BB1E69DED0E0B53EC192B51EC100BE4
:104AB000FBF77FFC9FED260BCDE9080153EC102B93
:104AC0009DED080B51EC100BFBF779FC9FED221BC1
:104AD00053EC112BFBF770FC9DED081B53EC112BD5
:104AE000FBF76DFC9FED1E1B53EC112B3CE08CE0A3
:104AF000FFFF1F00FFFF0F00000000000000F03F5D
:104B00000000F03F0000F07F0000404301FCFFFF89
:104B1000000000000000F07F000000000000000026
:104B2000EE3B0000000000000000000000000080DC
:104B3000000000000000F0FF000000000000F0BFD7
:104B40000000E0410000F043FFFFEF3F00000000E5
:104B5000000000000000D03F555555555555D53F34
:104B6000000000000000E03FFBF726FC9DED080B75
:104B700041EC1A0B53EC102B51EC100BFBF71FFC04
:104B800053EC1A2BFBF71BFC41EC1A0B9FEDFE0BB1
:104B900053EC102B9DED080B51EC100BFBF70FFCA9
:104BA00041EC1B0B9FEDFA0B51EC1A0B53EC102B45
:104BB000FBF705FC41EC1A0B9FEDF70B53EC102BA8
:104BC0009DED080B51EC100BFBF7F9FB53EC1A2B86
:104BD000FBF7EFFB41EC1A0B51EC1B0B53EC1A2BC0
:104BE000FBF746FB0690CDE906519DED060B53EC15
:104BF0001B2B51EC100BFBF7DCFB53EC1A2BFBF7D8
:104C0000DBFB41EC100B00F0A1B90020B6F5801FD2
:104C10000EDA9FEDE30B53EC102B9DED0E0B51ECD8
:104C2000100BFBF7CCFBCDE90E016FF034000E4604
:104C300000EB2650A0F2FF37C6F31300DA4940F02C
:104C40007F6646F040568842D8BF002408DDD74929
:104C50008142C8BF012403DC0024A6F580167F1C16
:104C6000D348784400EBC4000F9690ED00CB9DED47
:104C70000E0B53EC1C2B51EC100BFBF79AFB9DED2C
:104C80000E0B41EC1B0B53EC1C2B51EC100BFBF7E8
:104C9000EFFA41EC100B51EC190B53EC102BFBF716
:104CA00000FC41EC1D0B51EC1B0B53EC1D2BFBF7D7
:104CB00086FB41EC1A0BBF488DED10AB7844109584
:104CC00090ED000B4FF0005040EA660000EB84408E
:104CD0008DED080B00F5002009909DED080B53ECBD
:104CE0001C2B51EC100BFBF764FB9DED0E1B53ECE2
:104CF000112BFBF761FB41EC100B53EC102B9DEDDE
:104D0000100B51EC100BFBF75AFB9DED080B41EC1F
:104D10001C0B53EC102B9DED100B51EC100BFBF703
:104D20004EFB53EC1B2BFBF747FB53EC1C2BFBF709
:104D300040FB53EC1D2BFBF742FB41EC1C0B53ECEF
:104D40001A2B51EC1A0BFBF73AFB41EC1B0B9A4860
:104D50000621B0EE4B0AF0EE6B0A784400F01DFB22
:104D6000B0EE401AF0EE601AB0EE41DAF0EE61DA21
:104D700053EC1B2B51EC1B0BFBF721FB53EC1D2BB6
:104D8000FBF71DFB9DED100B41EC1B0B53EC1A2B9D
:104D900051EC100BFBF76CFA53EC1C2BFBF70FFBE1
:104DA00053EC1B2BFBF764FA9DED100B41EC1B0B36
:104DB00053EC102B51EC100BFBF701FB41EC1D0BDE
:104DC0009FED7FEB53EC1E2BFBF752FA53EC1B2BA2
:104DD000FBF74EFA0890CDE908519DED080B53EC16
:104DE0001E2B51EC100BFBF7E4FA53EC1D2BFBF7D9
:104DF000E0FA53EC1B2BFBF7DFFA9DED080B41ECBF
:104E00001D0B53EC102B9DED100B51EC100BFBF711
:104E1000D6FA41EC1B0B53EC1A2B51EC1D0BFBF794
:104E2000CEFA9DED080B41EC1A0B53EC102B51EC14
:104E30001C0BFBF7C4FA53EC1A2BFBF719FA41ECE5
:104E40001A0B51EC1B0B53EC1A2BFBF711FA0C90BD
:104E5000CDE90C519DED0C0B53EC1B2B51EC100BC1
:104E6000FBF7A7FA53EC1A2BFBF7A6FA41EC1B0B46
:104E70009FED550B53EC102B9DED0C0B51EC100BD3
:104E8000FBF79DFA41EC1A0B9FED510B51EC1B0BFC
:104E900053EC102BFBF793FA41EC1B0B9FED4E0BE1
:104EA00053EC102B9DED0C0B51EC100BFBF787FA1C
:104EB00053EC1B2BFBF7DCF941EC100B4848784412
:104EC00000EBC40090ED001B51EC100B53EC112BC8
:104ED000FBF7CEF941EC1B0B3846FBF751FBCDE954
:104EE000080153EC1B2B51EC1A0BFBF7C1F941ECF9
:104EF000100B3C48784400EBC40090ED00CB51EC23
:104F0000100B53EC1C2BFBF7B3F99DED081B53EC76
:104F1000112BFBF7ADF90690CDE906519DED080B7D
:104F200053EC102B9DED060B51EC100BFBF741FAE7
:104F300053EC1C2BFBF73DFA53EC1A2BFBF739FA19
:104F400053EC1B2BFBF738FA41EC100B9DED261BA5
:104F500053EC102B8DED001B00959DED260B51ECB5
:104F6000100BFBF72CFA9DED000B41EC1A0B53ECE8
:104F7000102B9DED260B51EC100BFBF71AFA9DED53
:104F8000061B53EC112B2FE0000000604715F73F84
:104F9000FE822B654715F73F44DF5DF80BAE543EAC
:104FA00000000000000040438E9803007AB60B001A
:104FB000D2360000983700000A36000000000000DA
:104FC0000000000000000840000000E009C7EE3FBC
:104FD000FD033ADC09C7EE3FF5015B14E02F3EBE4E
:104FE0009634000050340000FBF7E9F953EC1A2B1B
:104FF000FBF73EF99DED060B41EC1A0B53EC102B21
:105000009DED000B51EC100BFBF7D9F9CDE90C012C
:105010009DED0C0B51EC1A0B53EC102BFBF728F900
:10502000CDE902010C46AA498C422FDB611A0843E4
:1050300018D19DED0C0B53EC102B9DED020B51EC98
:10504000100BFBF7B6F941EC1B0B9FEDA30B51ECDA
:105050001A0B53EC102BFBF70BF953EC1B2BFBF744
:105060002BFC2DD2022000F083FA00F051FA10EE52
:10507000901A18EE900A8DED020B8DED008B61F306
:105080001E0003909DED020BFFF7BEBB944A24F077
:105090000041914214D39349214408437FF4EFAC7B
:1050A0009DED0C0B53EC102B9DED020B51EC100BF6
:1050B000FBF77FF953EC1A2BFBF7FEFB7FF6DFAC17
:1050C00024F000408849894A002601EB20518242A1
:1050D0002BDA481C4FF4801121FA00F02044844A56
:1050E000C0F30A517A44A1F2FF3192ED000B814ADC
:1050F0008DED080BCA4020EA0202C0F3130040F411
:105100008010C1F1140120FA01F60992002CB8BFF9
:1051100076429DED080B53EC102B9DED0C0B51ECE2
:10512000100BFBF746F9CDE90C019DED0C0B51EC92
:105130001A0B53EC102BFBF79BF89FED6F0B0890AD
:10514000CDE9085153EC102B9DED080B51EC100BE1
:10515000FBF735F941EC1B0B9FED690B53EC102B62
:105160009DED080B51EC100BFBF729F99DED0C0B95
:1051700041EC1C0B53EC102B9DED080B51EC100B6C
:10518000FBF717F953EC1A2BFBF716F99FED5E1B93
:1051900053EC112BFBF713F953EC1C2BFBF768F8BE
:1051A00041EC1A0B51EC1B0B53EC1A2BFBF760F87C
:1051B000CDE902019DED020B53EC1B2B51EC100BC2
:1051C000FBF7F7F853EC1A2BFBF7F6F89DED020B03
:1051D00041EC1A0B53EC102B51EC100BFBF7EFF8D2
:1051E000CDE908014A489DED080B0521784400F0FF
:1051F000D4F89DED081B51EC100B53EC112BFBF771
:10520000DEF89DED021B53EC112BFBF7D5F8CDE931
:1052100006019DED020B53EC1A2B51EC100BFBF722
:10522000CEF853EC1A2BFBF723F89FED3B0B41EC28
:105230001A0B53EC102B9DED060B51EC100BFBF7EA
:10524000B8F89DED060B41EC1B0B53EC102B9DEDBC
:10525000020B51EC100BFBF7B2F853EC1B2BFBF7D6
:1052600020F953EC1A2BFBF7A4F89DED021B53EC2D
:10527000112BFBF79EF853EC192BFBF79DF8CDE9AA
:10528000020101EB065001150029C8BF039015DC8F
:105290009DED020B324651EC100BFBF78CFAFEF73A
:1052A000DBFD042808BF00F043F932469DED020BF8
:1052B00051EC100BFBF77FFACDE902019DED020BDB
:1052C00051EC180B53EC102BFBF779F8FFF73ABBB6
:1052D0000000904000000000FE822B654715973CBF
:1052E00000CC904000346F3F01FCFFFF0000E03F26
:1052F00070330000FFFF0F0000000000432EE63F68
:10530000396CA80C615C20BEEF39FAFE422EE63FF4
:10531000A831000000000000000000000000004074
:1053200000B52DED048BB0EE409AF0EE609A83B09C
:1053300051EC190BFBF756FA41EC180B18EE100A5A
:1053400018EE901A8DED008B002818BF012008433D
:1053500020F00040C0F17F6000F1E040C00F14D0A9
:1053600019EE101A19EE900A8DED009B002918BF56
:105370000121084320F00040C0F17F6000F1E040CF
:10538000C00F04BF012000F0F3F8B0EE480A03B0EC
:10539000F0EE680ABDEC048B00BD70B504462DED3F
:1053A000028B4D1E00EBC500B0EE408AF0EE608A25
:1053B00090ED000B35F0060017D053EC182B51EC94
:1053C000100BFAF7FCFF41EC100B6D1E04EBC5004F
:1053D00090ED001B51EC100B53EC112BFAF748FF2A
:1053E00041EC100B35F00600E7D1022D36D0042D2C
:1053F0001CD0062D1CBFBDEC028B70BD53EC182BCE
:1054000051EC100BFAF7DBFF94ED0A1B53EC112B58
:10541000FAF72EFF53EC182BFAF7D1FF94ED081B87
:1054200053EC112BFAF724FF41EC100B53EC182B23
:1054300051EC100BFAF7C3FF94ED061B53EC112B44
:10544000FAF716FF53EC182BFAF7B9FF94ED040B9B
:1054500053EC102BFAF70CFF41EC100B53EC182B0C
:1054600051EC100BFAF7ABFF94ED021B53EC112B30
:10547000FAF7FEFE53EC182BFAF7A1FF94ED001B90
:1054800053EC112BFAF7F4FEBDEC028B41EC100B40
:1054900070BD0000000000009FED070B10B553EC3D
:1054A000102B9FED070B51EC100BFAF7FAFF41ECB4
:1054B000100B10BD00000000000000000000000004
:1054C000000000000000F03F10B553EC102B51EC31
:1054D000100BFAF7CDFE41EC100B10BD10B553ECDC
:1054E000112B51EC100BFAF7C3FE41EC100B10BD61
:1054F0009FED050B10B553EC102B51EC100BFAF788
:10550000D0FF41EC100B10BD0000000000000000B7
:105510009FED050B10B553EC102B51EC100BFAF767
:105520004EFF41EC100B10BD0000000000000070A9
:105530009FED050B10B553EC102B51EC100BFAF747
:105540003EFF41EC100B10BD0000000000000010F9
:1055500002E008C8121F08C1002AFAD1704770473C
:10556000002001E001C1121F002AFBD1704700009A
:105570000149086070470000F00000202DE9FF5F3E
:1055800082B00021DDE90430020DDDF840B00343B4
:1055900018D044F61050A2F2FF324243151411986D
:1055A00001281FD0A5EB0B00401C5FEA000A4FF05A
:1055B00000064E4FDFF83891B046504615D5CAF177
:1055C000000413E0119801244AA3012801D16FEAD5
:1055D0000B010298119AC0E90031C0E9024206B0FD
:1055E000BDE8F09FCBF10000DFE704460021404A10
:1055F000491842EB0450CDE9001012E0E00707D053
:1056000032463B4640464946FAF7D9FE804689462F
:1056100032463B4610461946FAF7D1FE06460F467B
:105620006410002CEAD1DDE90401DDE90023BAF1C0
:10563000000F06DAFAF7C3FE42464B46FAF7BFFE02
:1056400005E0FAF72EFF42464B46FAF72AFF0446DA
:105650000E460022284BFBF72FF903D84FF0FF30FE
:10566000014607E00022254B20463146FAF700FEAE
:10567000FBF709F9102409E0002C0ADB0A220023B9
:10568000FAF7A6FD039B30321A55641E50EA010258
:10569000F2D1641C039AC4F111031444119A012A33
:1056A00003D0012208430DD10AE0084304D00020B2
:1056B0004FF0110B119072E7A3EB0B056D1E0DE07F
:1056C0005B4504DD4FF0000205F1010504E003DA5B
:1056D0004FF00002A5F10105002AECD002981199C3
:1056E000C0E90231C0E9004579E70000000014403C
:1056F0000000F03F300000000000F0430000E03FF9
:105700002DE9FF4F95B09B468946064600250FE2DE
:10571000252877D100242746F84A0121059400E086
:10572000044316F8013F203B01FA03F01042F7D181
:1057300030782A2811D06FF02F033078A0F1300292
:10574000092A16D8059A44F0020402EB820203EB00
:1057500042021044761C0590EFE759F8042B05929D
:10576000002A03DA504244F40054059044F0020445
:10577000761C30782E2816D116F8010F44F0040458
:105780002A280DD06FF02F023078A0F13003092BBA
:1057900009D807EB870302EB4303C718761CF3E72E
:1057A00059F8047B761C30786C280FD006DC4C2826
:1057B00017D068280DD06A2814D104E0742810D0BE
:1057C0007A280FD10DE044F400140AE044F4801468
:1057D00001E044F440147278824202D104F580144E
:1057E000761C761C307866280BD013DC582877D0CE
:1057F00009DC002875D04528F6D04628F4D0472883
:105800001AD19DE118E0632835D0642879D0652845
:1058100012D195E1702873D008DC6728F1D069288F
:105820006FD06E280DD06F2806D1B5E073282CD02C
:10583000752875D0782874D05A46179990476D1CF2
:1058400075E1C4F30250022809D003280DD0D9F81D
:10585000001004280DD00D6009F1040967E1D9F8A2
:105860000010EA17C1E90052F6E7D9F800100D80E0
:10587000F2E70D70F0E719F8041B8DF80010002016
:105880008DF80100EA46012003E059F804AB4FF01F
:10589000FF3061074FF0000102D40DE008F1010173
:1058A0008846B9420FDA8045F8DB1AF8081000295B
:1058B000F4D108E008F1010188468142FADB1AF8C8
:1058C00008100029F6D105985B46A0EB0807214691
:1058D0003846179A00F094FA284400EB080507E0D0
:1058E0004DE029E10DE01AF8010B5A46179990474F
:1058F000B8F10108F7D25B4621463846179A13E102
:1059000042E00A220092C4F302524FF0000A022A37
:1059100008D059F804CB032A4FEAEC710AD00DE005
:1059200029E02AE009F1070121F00702F2E802C1AB
:10593000914609E00FFA8CFC4FEAEC71042A03D17E
:105940004FFA8CFC4FEAEC71002907DA0A46002175
:10595000DCF1000C61EB02012D2202E0220504D5EE
:105960002B228DF80420012203E0E20701D020223F
:10597000F7E7904659E00A2102E010220DE01021DD
:105980004FF0000A00910BE010224FF0000A44F0A3
:1059900004040827009203E008224FF0000A009256
:1059A000C4F30252022A05D059F804CB0021032A7D
:1059B00008D009E009F1070121F00702F2E802C16D
:1059C000914605E01FFA8CFC042A01D10CF0FF0C73
:1059D0004FF00008220728D5702806D0009B83F0DE
:1059E000100353EA0A0305D00EE040228DF804208C
:1059F000012208E05CEA010206D030228DF8042082
:105A00008DF8050002229046009B83F0080353EABC
:105A10000A030AD15CEA010201D1620705D53022EE
:105A20008DF804204FF001087F1E582804D034A0C0
:105A300003900EA802900DE036A0F9E753466046A9
:105A4000009AFAF7C5FB84460398825C0298401ED0
:105A5000029002705CEA0100F0D1029806A9081ACF
:105A600000F1200A600702D524F4803400E0012709
:105A7000574502DDA7EB0A0000E0002000EB0A0119
:105A8000009005984144401A0590E00306D45B4617
:105A90002146179A059800F0B3F90544002706E05F
:105AA00001A85A46C05D179990476D1C7F1C474559
:105AB000F6DBE0030CD55B462146179A059800F00B
:105AC0009FF9054404E030205A46179990476D1C11
:105AD0000099481E00900029F5DC08E00298029920
