:020000040800F2
:1000000058070020AD01000863300008FB260008F7
:10001000613000080D090008A53800080000000044
:100020000000000000000000000000006730000831
:10003000F50C00080000000065300008B130000831
:10004000C7010008C7010008C7010008C701000870
:10005000C7010008C7010008C7010008C701000860
:10006000C7010008C7010008C7010008C701000850
:10007000C7010008C7010008C7010008C701000840
:10008000C7010008C7010008C70100080000000000
:10009000000000000000000000000000F70C000855
:1000A000C7010008C7010008C70100085531000852
:1000B00061310008C7010008C7010008C701000836
:1000C000C7010008C7010008C7010008C7010008F0
:1000D000C701000885380008C701000800000000BB
:1000E000C7010008C7010008C701000800000000A0
:1000F000000000000000000000000000C701000830
:1001000000000000C7010008C7010008C70100087F
:1001100000000000000000000000000000000000DF
:10012000C7010008450C0008C7010008C701000806
:10013000C7010008000000000000000000000000EF
:10014000000000000000000000000000C7010008DF
:10015000C7010008C7010008C7010008913800085E
:10016000C7010008C70100080000000000000000EF
:10017000000000000000000000000000000000007F
:1001800000000000C701000800000000000000009F
:10019000C7010008C7010008DFF80CD000F0A4FB7D
:1001A000004800472562000858070020064880479D
:1001B00006480047FEE7FEE7FEE7FEE7FEE7FEE74C
:1001C000FEE7FEE7FEE7FEE745310008990100087B
:1001D0002DE9F05F0546002092469B46884606467C
:1001E000814640241BE0284641464746224600F00F
:1001F0002CFA53465A46C01A914110D3114618465C
:10020000224600F013FA2D1A67EB01084F462246EA
:100210000120002100F00AFA17EB00094E41201ED0
:10022000A4F10104DFDC484631462A464346BDE8D6
:10023000F09FD2B201E000F8012B491EFBD27047BB
:100240000022F6E710B513460A4604461946FFF7A2
:10025000F0FF204610BD30B504460020034600E004
:100260005B1C934203D2E05CCD5C401BF8D030BDF8
:100270002DE9FE4F804681EA0300C00F0C46009036
:1002800021F0004123F00045B8EB0200A94105D25E
:100290004046214690461C460B46024623F000404D
:1002A000104347D0270DC7F30A00C3F30A51029049
:1002B000401A019040286BDAC3F3130040F4801B0E
:1002C0000098924620B10023D2EB030A63EB0B0B9C
:1002D00001985946C0F14002504600F0A7F9064681
:1002E0000D4650465946019A00F0BFF910EB080040
:1002F0006141002487EA115284EAE7731A4340D02F
:10030000009A62B3019A012A4FEA075215DC001BDA
:1003100061EB02014FF0004202EA0752CDE90042D0
:10032000001C41F5801132462B4600F0F6F903B06F
:10033000BDE8F08F40462146F9E7001B61EB020162
:10034000001C41F5801300185B412018A2F500172E
:1003500047EB030140EAD570B6196D4111E06D0815
:100360004FEA360645EAC0754FEA0752001B61EBBB
:100370000201001C41F5801149084FEA30000019C4
:10038000514132462B4603B0BDE8F04F00F0B6B9FC
:100390000098012240000023D0EB020263EBE073DF
:1003A000009821464FEAE074B8EB000061EB0401CD
:1003B000E9E783F000435BE781F0004158E72DE96E
:1003C000FE4F81EA030404F0004421F00041009450
:1003D0004FF0000B23F0004350EA01045ED052EAD4
:1003E00003045BD0C3F30A54C1F30A552C44A4F2AE
:1003F000F3340194A0FB0254C1F3130141F48011C2
:10040000C3F3130343F4801301FB024400FB034EC8
:10041000840A970A44EA815447EA8357A4FB076891
:1004200002958D0A05FB07854FEA932C04FB0C54BB
:100430002705029D4FEA065847EA1637B5EB08052F
:100440006EEB070C870E920E47EA811742EA831281
:10045000A7FB0201B6EB0B0164EB00042B0D43EA92
:100460000C335E1844EB1C50DA465146E7FB0201A0
:10047000C5F313044FEA0B3343EA14534FEA043233
:10048000019C43EA0603A4F10C040294009CCDE90C
:1004900000B400F042F903B0BDE8F08F002001463F
:1004A000F9E72DE9F04D81EA030404F0004B21F057
:1004B000004514464FF0000A23F0004150EA0502BF
:1004C00020D054EA01021DD0C5F30A570246C5F3F5
:1004D0001303C1F31300C1F30A5640F4801543F42B
:1004E0008013A7EB0608101BD64608F2FD3873EB05
:1004F000050002D308F1010801E092185B41B8F150
:10050000000F03DA00200146BDE8F08D00204FF413
:100510008011064684460EE0171B73EB050705D3D2
:10052000121B63EB050306434CEA010C49084FEA32
:10053000300092185B4150EA0107EDD152EA030006
:1005400012D082EA040083EA0501084305D0101B9B
:10055000AB4106D20122002306E000224FF0004307
:1005600002E06FF0010253101AEB06004CEB085149
:1005700010EB0A0041EB0B01BDE8F04D00F0BEB8F6
:100580000EB5C10F80EAE0700844CA07002140F2AE
:1005900033438DE80E000A460B4600F0BEF803B068
:1005A00000BD00F0004230F000400AD0C10D01F55E
:1005B0006071C0F3160042EA0151C20840071143BE
:1005C000704700200146704701F0004330B421F02D
:1005D000004150EA010206D00A0DA2F56072C1F393
:1005E0001301002A02DC30BC00207047440F44EAAB
:1005F000C104C100E01830BC00EBC25000F047B8A5
:1006000030B50B46014600202022012409E021FAE2
:1006100002F59D4205D303FA02F5491B04FA02F5DF
:100620002844151EA2F10102F1DC30BD202A04DBB2
:10063000203A00FA02F1002070479140C2F12003F5
:1006400020FA03F3194390407047202A04DB203A34
:1006500021FA02F00021704721FA02F3D040C2F1E2
:1006600020029140084319467047202A06DBCB1729
:10067000203A41FA02F043EAE07306E041FA02F35D
:10068000D040C2F12002914008431946704700292A
:10069000A8BF7047401C490008BF20F00100704708
:1006A00010B4B0FA80FC00FA0CF050EA010404BF68
:1006B00010BC704749B1CCF1200421FA04F411FABE
:1006C0000CF118BF012121430843A3EB0C01CB1D02
:1006D0004FEA00614FEA102042BF002010BC704773
:1006E00000EBC35010440029A4BF10BC7047401C4D
:1006F000490008BF20F0010010BC704710B5141E5F
:1007000073F1000408DA401C41F1000192185B41CA
:100710001A4301D120F0010010BD2DE9F04D9246A1
:100720009B4611B1B1FA81F202E0B0FA80F22032B8
:100730009046FFF77BFF04460F4640EA0A0041EA75
:100740000B0153465A46084313D0114653EA0100A1
:1007500019D0C8F140025046FFF777FF05460E4614
:10076000504659464246FFF761FF084305D0012035
:1007700004E020463946BDE8F08D0020054346EAF6
:10078000E0762C4337430A986305E40AA0EB08009F
:100790000022FD0A44EA47540A3002D500200146EF
:1007A000E9E7010510196941DDE9084500196941CA
:1007B000BDE8F04DA2E770B521F0004303430CD033
:1007C000C1F30A550024D5EB040564EB0403D617E6
:1007D000AD1AB34102DB0020014670BD201841EB89
:1007E000025170BD2DE9F04D00231A461B1A8A41B3
:1007F00003DB00200146BDE8F08DC1F30A52C1F3CE
:10080000130141F480154FF0000BD10702D10018FD
:100810006D41521E0027044640F2FF11384601EB9D
:10082000620A3E468046024600204FF48011FFF7E0
:100830000CFFC2197141BB1846EB0100B4EB030C6D
:1008400075EB000C04D3E41A65EB000517460E4661
:10085000241908F101006D4180463428E3DDF919BF
:1008600046EB0600091BA84103D24FF0FF321346A6
:1008700001E0002213461BEB070046EB0A51BDE8DE
:10088000F04DFFF73BBFC1F30A52C1F3130140F231
:10089000FF3341F480119A4202DA0020014670478A
:1008A00040F233439A42A2F2334202DC5242FFF753
:1008B000CCBEFFF7BBBE000030B5041E71F10004D2
:1008C00004DB4FF00044404264EB0101141E73F15D
:1008D000000405DB1C464FF00043524263EB040367
:1008E000994208BF904230BD064C074D06E0E068D3
:1008F00040F0010394E8070098471034AC42F6D367
:10090000FFF74EFCD8810008F8810008FEE70000E0
:1009100070B50D4C0D4B00222060DA704FEA0201D9
:1009200003EB4105491CC9B2AA801029F8D3074935
:100930008022243101F079FC20680068C16841F010
:100940001001C16070BD000048000020900200202E
:100950003C48B0F80310C1F30A02A0F124018A80D8
:100960000279D308427943EA4213C3F30A03CB80E6
:100970008379920942EA8303C27943EA8223C3F36B
:100980000A030B815308027A43EAC213C3F30A0332
:100990004B811309427A43EA0213C3F30A038B81A2
:1009A000837AD20942EA4303C27A43EA4223C3F379
:1009B0000A03CB819308027B43EA8213C3F30A0341
:1009C0000B82437B520942EAC3024A82C289C2F3C4
:1009D0000A028A82C27BD308027C43EA4213C3F331
:1009E0000A03CB82437C920942EA8303827C43EA76
:1009F0008223C3F30A030B835308C27C43EAC21366
:100A0000C3F30A034B831309027D43EA0213C3F3C2
:100A10000A038B83437DD20942EA4303827D43EA82
:100A20004223C3F30A03CB839308C27D43EA8213B4
:100A3000C3F30A030B84007E520942EAC0004884D3
:100A400070470000B40200202DE9F05F314ADFF862
:100A5000C8B0A2F1240113780B700025DBF8000068
:100A6000C82B07D0CD708022243101F0DEFB00209E
:100A7000BDE8F09F5378182B06D0CD708022254911
:100A800001F0D3FB0120F3E79478162C06D0CD704B
:100A90008022204901F0C9FB0220E9E78A464B7019
:100AA0001A271726941C914600210A464FF0D50CB0
:100AB000A35C59405FF000035FEA016802D58CEA4D
:100AC000410100E049005B1CDBB2C9B2082BF3D343
:100AD000521CD2B2B242EBD309EB07028AF80210E1
:100AE00012F8012C544691420BD1FFF731FF01203F
:100AF000E07080220749DBF8000001F096FB04203B
:100B0000B6E78AF803508022024901F08EFB0320E9
:100B1000AEE70000B4020020480000202DE9F05F9D
:100B20004FF4005B59463E4800F0FEFC3D4D3E4C04
:100B30003E4F2868A0653868E065206A00260128D5
:100B400004D101F0FDFD00F0DBF8266204F0E6FEC2
:100B5000012805D1267000220821354800F0ECFC60
:100B60002078002856D1304A1E32911E881E01F08E
:100B70007FFEB4F91A0000EE100AF8EEC00A94EDF8
:100B80001A0AB1EE400A04F0AFFEDFF8A890B846AA
:100B9000C9F800003968286806F07AFBDFF898A0E9
:100BA000CAF800003968286806F0EAFA23490860A4
:100BB000D9F80020DAF8001011440A1A08442A6013
:100BC0003860D4E9160102F06FFE94ED1A0A02F0C3
:100BD00005FC1B49A0B10127C1F8B87230462E6050
:100BE0000146C8F8006002F03FFA2770A7706770EE
:100BF000012208210E4800F09FFCE07840B109E096
:100C0000C1F8B862D8F80010286802F02DFAF4E7AD
:100C100000F03EF95946BDE8F05F014800F084BCA1
:100C20000008024004000020880000200800002086
:100C3000000402403C00002040000020440000204E
:100C400000804042014800F0FBB900003002002063
:100C500001681823CAB2103AB2FBF3F2054B6FF3E6
:100C60000901032A9B5CC36500D9091D81650846FB
:100C700070470000EC7F000810B5014600208B692A
:100C80008A6A4FF0C07453B1B3F5005F15D072B1EA
:100C9000012A0CD0022A0AD0032A09D104E01AB191
:100CA000012A06D0022A03D1C96AC90100D5012050
:100CB00010BDC96AA142FAD010BD002AF7D0012A9E
:100CC000F2D0022AF3D0032AF3D010BD30B5046865
:100CD000256825F480252560046863608368402BBF
:100CE000036803D099600068C26030BD9A600068F4
:100CF000C16030BD7047402000F01ABB72B6FEE7FD
:100D00002DE9F0434FF47A742DED048B81B0C4F1DA
:100D10000008514F009440F21379F88843464A4640
:100D2000AC2105F0EFFA00EE100A4C4D4346B8EE48
:100D3000C00A4A46AC2185ED000A0094788905F086
:100D4000E1FA00EE100A464E4346B8EEC00A4A46A3
:100D5000AC2186ED000A0094F88905F0D3FA4149E8
:100D600008603068FFF71DFC41EC180B2868FFF79E
:100D700018FC41EC100BB0EE481AF0EE681A03F0C4
:100D800003F951EC100BFFF71FFC04463068FFF726
:100D900008FC9FED359B41EC100BB0EE491AF0EECC
:100DA000691A03F0E9F9B0EE402AF0EE602AB0EEDD
:100DB000428AF0EE628A2868FFF7F3FB41EC100BE1
:100DC000B0EE491AF0EE691A03F0D6F953EC182B7D
:100DD00051EC100BFFF74CFA41EC100B03F0F4FF51
:100DE00051EC100BFFF7F0FB214F0021214A224B61
:100DF000224D234EB8422ADD2248DFF88CC0271846
:100E00000120674502D81070197009E01F4FDFF804
:100E100078C027440CF1010C674508D21170187096
:100E20002970317001B0BDEC048BBDE8F083174F21
:100E30007F42BC4206D2134FFF43BC4202DC297002
:100E4000307001E0287005E011701970EAE7B842CF
:100E5000E8DA29703170F7E79002002014000020D2
:100E6000180000201C0000200000000000000040CE
:100E70000000484338000020390000203A000020DC
:100E80003B00002025F0B6C009BCCD0026F0B640DE
:100E900070B52B4C2DED028B82B0E07801280FD07D
:100EA000D4ED1A0A27490025B0EEE00A10EE100A28
:100EB0009FED258A884207DD84ED098AA5622571A8
:100EC00002B0BDEC028B70BD20780028206E01D1ED
:100ED000401C20660121642806DD10EE100A1B4A22
:100EE000904201DA217102E020790128E8D194EDE5
:100EF000090A42F2107270EE600AC4ED090AA06A93
:100F0000401CA0629042DBDB00EE100A104E012272
:100F1000B8EEC01A0F4880EE810A86ED000AE17033
:100F2000910300F009FB3068FFF73BFB41EC100B2D
:100F3000A06A009053EC102B07A002F0CFFCBBE797
:100F400088000020000070410000000000002041E7
:100F500034000020000802405A686F6E677A6869A2
:100F6000204175746F2D43616C69627261746564B0
:100F70003A202566202853616D706C65733A2025F0
:100F800064290D0A000000002DE9F0410446876D38
:100F900000F0D8FA064694F835000025022806D05D
:100FA0008020606584F834500120BDE8F08120681D
:100FB000016821F0160101602068416921F080017B
:100FC0004161206C08B9A06C20B12068016821F053
:100FD000080101602068016821F0010101600CE056
:100FE00000F0B0FA801B052807D920206065032097
:100FF00084F8350084F83450D7E720680068C007CB
:10100000EED194F85C103F208840B860012084F84D
:10101000350084F834500020C7E790F835100229D5
:1010200003D08021416501207047052180F83510EB
:101030000068016821F00101016000207047000094
:101040002DE9F84304464FF00009CDF800906348BD
:101050004FF41651A56D0068B0FBF1F72E6894F8B7
:101060005C10082000FA01F131420FD021680A68B3
:1010700052070BD50A6822F004020A6094F85C104B
:101080008840A860606D40F00100606594F85C10D5
:101090004FF0010808FA01F0304208D02168496990
:1010A000090604D5A860606D40F00200606594F800
:1010B0005C1004208840304208D021680968890704
:1010C00004D5A860606D40F00400606594F85C1081
:1010D00010208840304218D021680968090714D5CB
:1010E000A86020680168490304D50068000308D59A
:1010F000A16C07E00168C90503D4016821F008016B
:101100000160216C09B12046884794F85C102020CA
:101110008840304231D021680968C9062DD5A860C1
:1011200094F8350005282068016806D0490347D5A2
:10113000006800031DD4616C1CE021F01601016001
:101140002068416921F080014161206C08B9A06CE0
:1011500020B12068016821F00801016094F85C105A
:101160003F208840A86084F8358084F83490216D51
:101170001FE0E16B09B120468847606D00282BD045
:10118000606DC00714D0052084F835002068016820
:1011900021F0010101600098401C0090B84203D882
:1011A00020680068C007F6D184F8358084F8349050
:1011B000E16C002910D001B02046BDE8F04308479B
:1011C0000168C905D5D4016821F01001016084F8D7
:1011D000358084F83490CCE7BDE8F8830401002022
:1011E0002DE9F041044600F0ADF906465CB102205D
:1011F00084F83500002584F834502068016821F017
:10120000010101600DE00120BDE8F08100F09AF9D4
:10121000801B052805D920206065032084F835004F
:10122000F2E720680068C007F0D122681168204802
:101230000140D4E901031843D4E90336334318438A
:1012400063691843A3691843E3691843236A184381
:101250000843616A042903D1D4E90B1319430843F5
:10126000106020684069666A20F0070130460E432E
:10127000012704280CD1A06A0643E06A40B1204649
:10128000FFF7FAFC20B14020606584F83570BAE7BA
:10129000206846612046FFF7DBFC94F85C203F2184
:1012A00091408160656584F835700020ACE70000EE
:1012B0003F8010F02DE9F0410446866D90F834002F
:1012C000002501280DD0012084F8340094F83570F1
:1012D0000020012F07D084F8340002252846BDE8FD
:1012E000F0810220FBE7022784F835706065204614
:1012F000FFF7ECFC94F85C103F208840B060206859
:10130000016841F016010160206C20B1206801687D
:1013100041F0080101602068016841F001010160AD
:10132000DCE70000014901200862704788000020C6
:10133000044910B50A68024202D00860FFF7F2FFC4
:1013400010BD0000143C01402DE9F84FDFF8B8A1B2
:101350000022012403254FF00F090AF1040BAAF122
:10136000040E00BF0B6804FA02F63340B34273D197
:101370000F7907F00307012F01D0022F16D18768DC
:101380004FEA420805FA08FC27EA0C07D1F80CC01E
:101390000CFA08FC4CEA070CC0F808C04768B743D1
:1013A0000E79C6F3001696403E4346600E79F6432A
:1013B000B6070DD0C768560005FA06FC27EA0C07E9
:1013C000D1F808C00CFA06FC4CEA070CC0F80CC0B7
:1013D0000E7906F00306022E10D1D60800EB86081F
:1013E000D8F8206057074FEAD76C09FA0CF7BE43CC
:1013F0000F6907FA0CF73743C8F8207006684FEA00
:10140000420C05FA0CF7BE430F7907F0030707FA01
:101410000CF7374307604E6816F4403F6DD03B4EE3
:10142000376847F480473760366822F0030706F4D0
:1014300080460096364E07EB060CDCF808689707E6
:101440003F0F09FA07F826EA0806DFF8C88040458A
:1014500003D14FF000081EE04FE0DFF8BC804045AC
:1014600002D14FF0010816E0DFF8B080404502D10C
:101470004FF002080FE0DFF8A880404502D14FF09E
:10148000030808E0DFF89C80404502D14FF00408D3
:1014900001E04FF0070808FA07F848EA0608CCF818
:1014A0000888DAF800605746D1F804C09E435FEA26
:1014B000CC2C00D51E433E60DBF800605F46D1F8BF
:1014C00004C09E435FEA8C2C00D51E433E60DEF8CC
:1014D00000607746D1F804C09E435FEA8C3C00D59B
:1014E0001E433E60084F083F3E68D1F804C09E434B
:1014F0005FEACC3C00D51E433E60521C102AFFF42C
:1015000031AFBDE8F88F0000083C0140443802408C
:101510000030014000000240000402400008024088
:10152000000C024000100240426921EA02030A4016
:1015300043EA0241816170470AB181617047090441
:10154000FBE700000148806870470000F8000020B9
:10155000024881680278114481607047F8000020D9
:101560000B4810B5016841F400710160016841F455
:1015700080610160016841F480710160032000F026
:101580006FF8002000F006F800F024F8002010BDED
:10159000003C024070B50D4D04464FF47A71287836
:1015A000B1FBF0F00A490968B1FBF0F000F00CFB68
:1015B00048B9102C07D200222146501E00F030F806
:1015C00000206C6070BD012070BD0000F80000209C
:1015D000040100200A4808B5016841F48041016017
:1015E000006800F4804000900548001F016841F049
:1015F00080510160006800F08050009008BD00003C
:1016000044380240002809DB00F01F02012191400C
:101610004009800000F1E020C0F800117047000090
:10162000F0B40E4B1B680C46C3F30223C3F107054D
:10163000042D00D90425191D072901D2002300E03B
:10164000DB1E012606FA05F1491E214099409E4005
:10165000761E16403143F0BC02F068B90CED00E094
:10166000064900F0070208684FF6FF03184040EAF9
:101670000220034A10430860704700000CED00E0B0
:101680000000FA052DE9F0470E46050065D0DFF8A9
:101690001481D8F80000F7B200F00700B04207D27A
:1016A00088F80070D8F8000000F00700B04254D16C
:1016B00028683D4C810712D5400703D5206840F4C7
:1016C000E05020602878000703D5206840F460408F
:1016D00020602068A96820F0F00008432060287886
:1016E000C0072DD0304968680839012812D0022877
:1016F00013D0032811D00968890700292DDA216841
:1017000021F0030101432160FFF71CFF814641F2F4
:10171000883A0EE009688903EFE709688901ECE778
:10172000FFF710FFA0EB0901514502D90320BDE8E6
:10173000F0872068696800F00C00B0EB810FEFD1F2
:10174000D8F80010404601F00701B14207D90770F0
:10175000006800F00700B04201D00120E7E72878D8
:10176000400705D52068E96820F4E0500843206070
:101770002878000706D52068296920F4604040EAEF
:10178000C100206000F038F82168084AC1F3031155
:10179000515CC8400649086006480068FFF7FAFE39
:1017A0000020C4E7003C024008380240F47F0008F3
:1017B00004010020FC000020044805490068096875
:1017C000044AC1F38221515CC840704704010020E3
:1017D0000838024004800008044805490068096888
:1017E000044AC1F34231515CC840704704010020F3
:1017F0000838024004800008154810B5006810F051
:101800000C02144813D01449042A0FD0082A0ED110
:101810000F4C241F2268236802F03F025B0207D5A9
:101820002068C0F38810A0FB010106E0084610BD47
:101830002168C1F38811A1FB00010023FEF7C8FC59
:101840002168C1F30141491C4900B0FBF1F010BD12
:10185000083802400024F40040787D012DE9F84F5B
:1018600004006ED02078DFF84C93C007A9F104057E
:101870004AD009F104000168C1F38101012908D0AF
:101880000068C0F3810002280AD1D9F800004002A4
:1018900006D52868800337D560680028E1D033E09A
:1018A0006068B0F5803F10D0B0F5A02F286810D048
:1018B00020F480302860286820F480202860606848
:1018C000A8B1FFF73FFE06460DE0286840F48030DF
:1018D000F4E740F480202860F7E700BFFFF732FE0E
:1018E000801B642873D828688003F7D50CE0FFF7C5
:1018F00029FE064605E000BFFFF724FE801B642892
:10190000F0D828688003F7D42078DFF8AC8280070D
:101910004FF0000A3ED5A748001D016811F00C0FDA
:1019200008D00068C0F3810002280BD1D9F800006C
:10193000400207D42868800716D5E068012800D146
:1019400012E033E1E068B8B10120C8F80000FFF709
:10195000F9FD064605E000BFFFF7F4FD801B0228F5
:10196000C0D828688007F7D52868216920F0F800DA
:1019700040EAC10028600DE0C8F800A0FFF7E2FDD2
:10198000064604E0FFF7DEFD801B02281FD828680A
:101990008007F7D42078000722D5864F87486169F1
:1019A000703771B101210160FFF7CCFD064604E0FC
:1019B000FFF7C8FD801B022809D838688007F7D5D3
:1019C0000EE0C0F800A0FFF7BDFD064605E082E08E
:1019D000FFF7B8FD801B02287DD838688007F7D450
:1019E0002078400768D5DFF8CCB100270BF13C0B1D
:1019F000DBF80000C0000BD4DBF8001041F0805190
:101A0000CBF80010DBF80000012700F080500090B8
:101A10006B4E3068C00510D4306840F48070306080
:101A2000FFF790FD009005E0FFF78CFD0099401A4C
:101A3000022850D83068C005F6D55E4EA0686C36D6
:101A400001280FD00528306810D020F00100306048
:101A5000306820F004003060A068B8B1FFF772FD74
:101A600000900FE0306840F00100F4E740F004001F
:101A70003060F7E7FFF766FD0099411A41F28830C0
:101A8000814266D830688007F4D50EE0FFF75AFD32
:101A9000009007E0FFF756FD0099411A41F28830A7
:101AA000814256D830688007F4D42FB1DBF800109B
:101AB00021F08051CBF80010A069C8B33D49091D41
:101AC0000968C1F3810102294AD00228504607D093
:101AD000C8F8600000E03CE0FFF734FD04463BE05E
:101AE0004746C8F86000FFF72DFD064605E000BF39
:101AF000FFF728FD801B02282BD828688001F7D427
:101B0000D4E907010843A16A2E4A490802EB0141C2
:101B1000626A41EA8211084394F82C1040EA01619C
:101B2000C9F8001001203866FFF70CFD044606E0F6
:101B30003EE000BFFFF706FD001B022809D8286819
:101B40008001F7D534E000BFFFF7FCFC001B022842
:101B500002D90320BDE8F88F28688001F4D427E07B
:101B60000128F7D0D9F80000E26900F48001914221
:101B70001CD1226A00F03F01914217D147F6C07193
:101B8000626A0140B1EB821F10D1A26A4FF0FF33AD
:101B900000F4403103EB5202B1EB024F06D194F84E
:101BA0002C1000F07060B0EB016F01D00120D1E784
:101BB0000020CFE70438024000004742800E474231
:101BC000007000400000FFFF10B5401EB0F1807FA4
:101BD00001D3012010BD4FF0E02460610F21601798
:101BE00001F0A4FE0020A06107202061002010BDAC
:101BF0007047704710B590F83C20012A22D001228E
:101C000080F83C20CA688C6822F4407222434C68F9
:101C100022F4806222430C6822F4006222430C69A1
:101C200022F4805222434C6922F400522243C969B3
:101C3000002322F480420A4301684A6480F83C3061
:101C4000002010BD022010BD70B590F83C20012A84
:101C50002CD0012480F83C40022280F83D2003680B
:101C60005A689D6822F070060A6832435A60104B29
:101C700002689A420ED0B2F1804F0BD00D4B9A42BF
:101C800008D00D4B9A4205D00C4B9A4202D00C4B17
:101C90009A4204D1496825F080031943916080F885
:101CA0003D40002180F83C10084670BD022070BD08
:101CB000000001400004004000080040000C00400B
:101CC0000040014010B5040003D094F83D0010B16D
:101CD00007E0012010BD002084F83C00204600F001
:101CE0001FF8022084F83D00211D206801F03EFA13
:101CF000012084F8460084F83E0084F83F0084F810
:101D0000400084F8410084F8420084F8430084F8DD
:101D1000440084F8450084F83D00002010BD000018
:101D200008B50068154988420FD11548016841F08F
:101D3000010101600068002200F0010000901146DE
:101D40001B20FFF76DFC1B2012E0B0F1804F13D178
:101D50000B48001F016841F001010160006800228A
:101D600000F00100009001211C20FFF759FC1C200D
:101D7000BDE80840FFF746BC08BD00000000014078
:101D80004438024090F83D10012901D001207047ED
:101D9000022180F83D100168CA6842F00102CA6061
:101DA00000680E4988420ED0B0F1804F0BD00C492C
:101DB000884208D00B49884205D00B49884202D09E
:101DC0000A49884204D1816801F00701062903D03D
:101DD000016841F0010101600020704700000140EE
:101DE0000004004000080040000C0040004001409A
:101DF00070B5044690F83C000025012817D0012654
:101E000084F83C60022084F83D002068826822F05B
:101E1000770222F47F4282600868502838D00DDCB7
:101E200020284FD005DC90B3102811D14AE00220C1
:101E300070BD302846D040280AD13BE060282FD022
:101E400070280DD0B0F5805F03D0B0F5005F12D0E0
:101E5000012584F83D60002084F83C00284670BDD0
:101E6000CB68D1E90121206801F0DFF920688168A1
:101E700041F0770109E0CB68D1E90121206801F048
:101E8000D4F92068816841F480418160E1E719E07C
:101E9000CA684968206801F07DFA5021206806E090
:101EA000CA684968206801F086FA6021206801F05C
:101EB000C6F9CEE7CA684968206801F06BFA40218C
:101EC0002068F4E7226801461046F0E770472DE9E4
:101ED000F04104460068C66805694FF00007A9078D
:101EE00013D5B10711D5F91E0161012020772068B3
:101EF00080698007204602D0FFF7E8FF04E000F089
:101F0000D3F8204600F088F92777680716D57007C0
:101F100014D521686FF00400086102202077206842
:101F2000806910F4407F204602D0FFF7CFFF04E025
:101F300000F0BAF8204600F06FF92777280715D58A
:101F4000300713D521686FF008000861042020775E
:101F50002068C0698007204602D0FFF7B7FF04E081
:101F600000F0A2F8204600F057F92777E80616D5CA
:101F7000F00614D521686FF0100008610820207762
:101F80002068C06910F4407F204602D0FFF79EFF12
:101F900004E000F089F8204600F03EF92777E807D2
:101FA00008D0F00706D021686FF0010008612046D4
:101FB00000F033F9280608D5300606D521686FF001
:101FC000800008612046FFF713FE680608D57006FA
:101FD00006D521686FF040000861204600F024F922
:101FE000A8060AD5B00608D521686FF02000086160
:101FF0002046BDE8F041FFF7FCBDBDE8F0810000E0
:1020000010B586B0044614216846FEF719F90E494A
:102010002068884216D10D480021026842F0010272
:102020000260006800F0010005904FF440700090DD
:102030000220CDE901010390012004906946044883
:10204000FFF782F906B010BD0000014030380240B1
:102050000000024070B5044690F83C0000250128BD
:102060000FD0012084F83C006AB1042A0FD0082A5E
:1020700011D00C2A13D00125002084F83C002846FA
:1020800070BD022070BD206801F0E2F8F4E720681E
:1020900001F006F9F0E7206801F02EF9ECE720687E
:1020A00001F056F9E8E700000A4902688A4209D1BE
:1020B000007F012807D0022804D1886B064A1268E5
:1020C000104488637047486B044A126810444863A0
:1020D0007047000000000140100000200C000020AC
:1020E00010B5040003D094F83D0010B107E00120C2
:1020F00010BD002084F83C00204600F01EF80220AD
:1021000084F83D00211D206801F030F8012084F89A
:10211000460084F83E0084F83F0084F8400084F8CC
:10212000410084F8420084F8430084F8440084F8B5
:10213000450084F83D00002010BD704730B50025F3
:102140000446022249B1042912D0082944D094F847
:10215000410001284BD0012030BD94F83E000128F9
:10216000F9D184F83E202068C26842F0020209E0FA
:1021700094F83F000128EED184F83F202068C2681F
:1021800042F00402C2600122206801F041F81D49BA
:102190002068884203D1426C42F4004242642068C5
:1021A00088420ED0B0F1804F0BD01749884208D03A
:1021B0001649884205D01649884202D015498842FE
:1021C00004D1816801F00701062903D0016841F0BC
:1021D00001010160284630BD94F840000128BAD1C1
:1021E00084F840202068C26842F00802CAE784F8F8
:1021F00041200C2901D00125ECE72068C26842F09B
:102200001002BFE700000140000400400008004049
:10221000000C00400040014070470068B0F1804F62
:1022200001D1FEF77BBC7047704738B5044690F883
:102230004200202801D0022038BD61B15AB10120EE
:10224000206300206063204601F09AFA0028F3D151
:10225000216B012901D0012038BD21680A68496835
:10226000009121680C3151E8002F42F0100241E842
:102270000023002BF5D138BD70477047F8B50168D1
:1022800004460868CA684B6910F00F0F4FF000054C
:1022900059D003F0010602F49077374365D0C107A7
:1022A00005D0D10503D5616C41F00101616441079E
:1022B00005D5D90703D0616C41F002016164810743
:1022C00005D5D90703D0616C41F0040161640107B1
:1022D00007D502F02001314303D0616C41F00801C1
:1022E0006164616C00293AD0800604D5900602D55D
:1022F000204601F05DF920684069616CC0F38010F0
:10230000090700D460B3204601F01DF92068406938
:10231000400621D52068143050E8001F21F040010C
:1023200040E80012002AF5D1E06BA8B16E490165C2
:10233000E06BFEF772FE002811D0E06B016D01B07A
:10234000BDE8F040084783060FD593060DD520461B
:10235000BDE8F84001F02CB92046FFF78EFFF8BD2C
:102360002046FFF78AFF6564F8BD266B2023012E07
:102370007DD1C6067BD5D60679D508684868009019
:1023800048694FF00206400641D5E16B0868406895
:102390000004000CE8D0A28D8242E5D9E085C8692E
:1023A000B0F5807F2DD020680C3050E8001F21F45C
:1023B000807140E80012002AF5D12068143050E8FE
:1023C000001F21F0010140E80012002AF5D1206829
:1023D000143050E8001F21F0400140E80012002AAC
:1023E000F5D184F84230256320680C3050E8001F96
:1023F00021F0100140E80012002AF5D1E06BFEF751
:10240000C3FD6663A08DE18D401A81B22AE0A08DE4
:10241000E18D401A81B2E08D0028A5D00029A3D01B
:1024200022680C3252E8000F20F4907042E8000756
:10243000002FF5D12068143050E8002F22F001025F
:1024400040E80027002FF5D184F84230256320684A
:102450000C3050E8002F22F0100240E80023002B3F
:10246000F5D166632046FFF707FFF8BDFFE70506D5
:102470002BD5150629D594F841002128F5D1A0685F
:10248000B0F5805F01D12069B0B1206A411C2162A2
:10249000216800784860E08C401E0004000CE08455
:1024A000E3D12068C16821F08001C1602068C16863
:1024B00041F04001C160D8E7206A0088C0F30800FD
:1024C0004860206A801C2062E5E74006CDD55006B2
:1024D000CBD5CA68204622F04002CA6084F8413059
:1024E00000F00AF9C1E700004934000870B50400A3
:1024F00004D094F84100002510B106E0012070BD21
:1025000084F84050204600F023F8242084F841004D
:102510002068C16821F40051C160204601F0AAF88A
:102520002068016921F4904101612068416921F02E
:102530002A0141612068C16841F40051C1606564AD
:10254000202084F8410084F842006563002070BDBB
:10255000F0B587B0064614216846FDF771FE38498C
:10256000DFF8D8C037680025354814390222032423
:10257000344B674521D1066846F0100606600068B6
:1025800000F010000590086840F00100086008683D
:10259000694600F0010005904FF404408DE82500E5
:1025A0000720CDE903401846FEF7CEFE00220721A2
:1025B0002520FFF735F825203BE0DFF88CC0674584
:1025C00039D1076847F020070760006800F0200055
:1025D0000590086840F0010008600868694600F04E
:1025E000010005904FF4C0508DE825000820CDE98A
:1025F00003401846FEF7A8FE154C144820608005DD
:10260000C4E901054FF48060C4E903506561A56128
:10261000E561256220466562FEF7E2FD08B1FEF73E
:102620006DFBF463002205214720A663FEF7F8FF47
:102630004720FEF7E7FF07B0F0BD000000100140A3
:102640004438024000000240001401402864024067
:1026500030020020704770472DE9F843044690F897
:102660004100984616460D46202802D00220BDE8BB
:10267000F88385B17EB100206064212084F8410098
:10268000FEF760FFA6848146E684A0682027B0F5A7
:10269000805F02D003E00120E9E7206910B12E46F7
:1026A00000250EE000260CE08021204601F0B0F865
:1026B000A8B9C6B116F8010B21684860E08C401E2D
:1026C000E084E08C4B464FF00002CDF800800028FB
:1026D000EAD14FF04001204601F09AF840B184F869
:1026E00041700320C3E735F8020BC0F30800E3E7AD
:1026F00084F841700020BAE77047FEE700B54FF656
:10270000FF7160B104F0D4FC0B4A92FBF0F000EBD7
:10271000D0704010B0F5803F03D3084602E0084671
:1027200000BD80B205494A6D521C4A65322AF7D174
:1027300000224A6500BD000040420F0088000020D2
:10274000044A10B5111F081F03F012FE01496C392D
:10275000487210BDF400002010B500F0C3F88021CD
:102760006B2000F074FA00282ED020A001F0B6F8FB
:10277000642003F0FBF800216B2000F068FA0320CE
:1027800000F031FA002000F029FA322000F048FA77
:102790000021382000F05BFA00216A2000F057FA8F
:1027A0000021232000F053FA8021372000F04FFA57
:1027B000752000F0BFF90446014614A001F08EF820
:1027C000682C03D0012010BD17A0CFE701216B209A
:1027D00000F03DFA00216C2000F039FAC82000F02A
:1027E0001FFA19A001F07AF8002010BD7772697401
:1027F000696E67206F7065726174696F6E206973AE
:102800002077726F6E672021200D0A004D505536DB
:1028100030353020646576696365204E6F2E2069FF
:1028200073202578200D0A0077726974696E67201D
:102830006F7065726174696F6E2069732072696769
:10284000687421200D0A00004D5055363035305F38
:10285000496E6974207375636365737366756C6C18
:10286000792066696E697368656421200D0A00002D
:102870007CB514460D4606466B4606224321682069
:1028800000F076F900280BD1BDF8001049BA31806C
:10289000BDF8021049BA2980BDF8041049BA218058
:1028A0007CBD000070B50D4C0025C4F898520C4852
:1028B000016821F440410160016841F480410160F8
:1028C000C4F89C52012004F5267403F063F801203B
:1028D000206003F05FF8256070BD0000008040427A
:1028E0000004024010B586B014216846FDF7A8FC2C
:1028F0000E48016841F00201016000680C4C00F0D4
:1029000002000590C0200090012001900320039058
:1029100069462046FEF718FD0122C0212046FEF739
:102920000BFE04A000F0DAFF06B010BD3038024004
:102930000004024049494320696E69746961746505
:102940006421210D0A00000070B50D4C0025C4F86B
:1029500098520C48016821F440410160016841F43B
:10296000804101600126C4F89C62304604F526745B
:1029700003F010F82660012003F00CF8256070BD0C
:1029800000804042000402402DE9F047814616488D
:102990000024016821F44041016001680160134E88
:1029A000254627464FF00108C6F89872012002F02C
:1029B000F1FFC6F898826006040ED6F81C0208B132
:1029C000641CE4B2012002F0E5FF6D1CEDB2082D9D
:1029D000EAD3B9F1000F04D0FFF764FF2046BDE849
:1029E000F087FFF7B1FFF9E70004024000804042A2
:1029F0002DE9F04106461448016821F44041016088
:102A0000016841F480410160104C0027C4F89872BD
:102A10003D464FF00108F009C4F89C027006060E0E
:102A2000012002F0B7FFC4F89882012002F0B2FF43
:102A3000C4F89872012002F0ADFF6D1CEDB2082DB4
:102A4000E9D3BDE8F081000000040240008040426C
:102A500070B51148016821F440410160016841F4FA
:102A6000804101600D4C0120C4F89C02D4F81C1276
:102A700049B1C4F8980202F08DFF0025C4F89C52B9
:102A8000D4F81C0208B1002070BD012002F082FFC2
:102A9000C4F89852012070BD0004024000804042FA
:102AA0000D4810B5016821F440410160016841F40E
:102AB00080410160094C0020C4F89802C4F89C02CF
:102AC000012004F5267402F065FF0120206060609B
:102AD000BDE8104002F05EBF0004024000804042AA
:102AE00070B512480024016821F44041016001687A
:102AF00001600F4D0126C5F89C62304602F04AFF86
:102B0000C5F8986207E0641CE4B2FA2C03D9FFF719
:102B1000C7FF012070BD012002F03CFFD5F81C0268
:102B20000028F0D1C5F8980270BD000000040240F2
:102B30000080404210B50446FFF78AFFD020FFF71F
:102B400057FFFFF7CDFF2046FFF752FFFFF7C8FF03
:102B5000FFF77EFFD120FFF74BFFFFF7C1FF0020FB
:102B6000FFF712FF0446FFF79BFF204610BD000051
:102B70002DE9F0411D4614460F460646FFF768FF53
:102B80007006000EFFF734FFFFF7AAFF20B1FFF732
:102B900087FF0120BDE8F0813846FFF729FFFFF7E6
:102BA0009FFFFFF755FF012000EB4600C0B2FFF783
:102BB0001FFFFFF795FF09E0012C0DD05FF001002A
:102BC000FFF7E2FE641E05F8010BE4B2002CF3D11E
:102BD000FFF766FF0020DDE70020F1E7C006010EE9
:102BE0001C2000F034B8C006010E1B2000F02FB8E6
:102BF000BC2801D3012110E0622801D302210CE09E
:102C00002A2801D3032108E0142801D3042104E079
:102C10000A2801D3052100E006211A2000F017B888
:102C200010B504464FF47A70844201D9044602E09C
:102C3000042C00D20424B0FBF4F0401EC1B21920D1
:102C400000F005F86008BDE81040FFF7D1BF70B58F
:102C50000C460546FFF7FCFED020FFF7C9FEFFF744
:102C60003FFF50B92846FFF7C3FEFFF739FF204664
:102C7000FFF7BEFEFFF734FF18B1FFF711FF012089
:102C800070BDFFF70DFF002070BD2DE9F0411E461D
:102C900015460F460446FFF7DBFE6006000EFFF701
:102CA000A7FEFFF71DFF60B93846FFF7A1FEFFF74B
:102CB00017FF00240CE0305DFFF79AFEFFF710FFCE
:102CC00020B1FFF7EDFE0120BDE8F081641CE4B205
:102CD000AC42F0D3FFF7E4FE0020F5E7094808B561
:102CE000016841F4800101600068002200F4800066
:102CF000009009213920FEF793FCBDE808403920F7
:102D0000FEF780BC303802402DE9F04387B0142133
:102D10006846FDF795FA49480025016841F004012D
:102D20000160016801F004010591016841F0800132
:102D30000160016801F080010591016841F0010125
:102D40000160016801F001010591016841F0020193
:102D500001600068012200F00200394F5403059021
:102D600021463846FEF7E8FB660000223146384629
:102D7000FEF7E2FBDFF8CC8000221A214046FEF786
:102D8000DBFBDFF8C4900022CF214846FEF7D4FBDE
:102D9000012231464846FEF7CFFB009401246946E4
:102DA00038460194CDE90245FEF7CEFA1A208DE8A7
:102DB0003100694640460395FEF7C6FA4020009070
:102DC0004FF40410CDE9010469464046FEF7BCFA11
:102DD000CDE9006469463846CDE90245FEF7B4FA0C
:102DE000C7208DE831000320039069464846FEF76E
:102DF000ABFACDE9006469464846CDE90245FEF7E5
:102E0000A3FA0820CDE900040220CDE902056946B5
:102E10004846FEF799FA1020CDE90005694602946C
:102E20004846FEF791FA002202211720FEF7F8FB30
:102E30001720FEF7E7FB07B0BDE8F083303802400B
:102E400000080240000002400004024010B596B0A5
:102E500000240F9410941194129413941C2168462A
:102E60001494FDF7EDF9202107A8FDF7E9F92C48A6
:102E70002A4901606321C0E901144FF6FF71C0E9DE
:102E8000031444618461FEF71DFF08B1FDF736FFAE
:102E90004FF480500F900FA92148FEF7A9FF08B109
:102EA000FDF72CFF1E48FFF71BF908B1FDF726FFC1
:102EB000139413A91A481494FEF7C6FE08B1FDF73F
:102EC0001DFF3020CDE9000402940394049405947E
:102ED0000022694612480694FFF7BCF808B1FDF7D6
:102EE0000DFF042269460E48FFF7B4F808B1FDF75C
:102EF00005FF0794089409944FF400500A94CDE913
:102F00000B4007A906480E94FEF774FE08B1FDF7C2
:102F1000F5FE0348FFF774F816B010BD000001403D
:102F20001001002010B586B00024164800940194CA
:102F30000294039404944FF080410594016063214E
:102F4000C0E9011440F2E731C0E903148461FEF7DF
:102F5000B9FE08B1FDF7D2FE4FF4805000906946EB
:102F60000848FEF745FF08B1FDF7C8FE049404A920
:102F700004480594FEF768FE002801D0FDF7BEFE68
:102F800006B010BD580100200C4810B50A49016078
:102F90004FF4E1314160002181600C22C160C0E941
:102FA00004128161C161FFF7A1FA002803D0BDE8D6
:102FB0001040FDF7A3BE10BD00100140A00100208D
:102FC0000C4810B50A4901600B494160002181603D
:102FD0000C22C160C0E904128161C161FFF786FA69
:102FE000002803D0BDE81040FDF788BE10BD0000EA
:102FF00000140140E8010020A06806002DE9F0411E
:10300000154F06460024B8780D46012805D1142135
:103010001248FDF715F90020B8701049012200BFD1
:1030200031F8120001EB4203521CD2B223F8020C19
:103030000A2AF5D3701948825FF0000031F9102098
:10304000401CC0B214440A28F8D30A2094FBF0F0C4
:1030500000B2BDE8F0810000880000204403002099
:10306000FEE7FEE77047704710B50B4600240D4A97
:103070000121002802DDC2F8904201E0C2F890125E
:10308000002B02DDC2F88C4201E0C2F88C12FFF77F
:1030900035FB054908601846FFF730FB0349086017
:1030A00010BD0000000040420C0000201000002075
:1030B000FEF74EBA30B593B030216846FDF7C0F840
:1030C00014210CA8FDF7BCF81C480025016841F04C
:1030D00080510160006800F080501190184801682C
:1030E00041F4404101600068022400F44040119026
:1030F00001200090000401908001CDE906400C20E1
:1031000008906020CDE9090404200B906846FEF782
:10311000A5FB08B172B6FEE70CA90F2081E83100CB
:103120004FF48050CDE90F0503210CA8FEF7AAFA51
:10313000002801D072B6FEE713B030BD403802401F
:10314000007000400248016841F47001016070475E
:1031500088ED00E00148FEF7BABE00001001002033
:103160000148FEF7B4BE000058010020F0B5026827
:10317000204B214C9F03214D214E984207D0B8424D
:1031800005D0A04203D0A84201D0B04204D122F021
:10319000700C4A6842EA0C02984210D0B8420ED035
:1031A000A0420CD0A8420AD0B04208D0154CA04290
:1031B00005D0154CA04202D0144CA04203D122F4F9
:1031C0004074CA6822434C6922F0800222430260A4
:1031D0008A68C2620A688262984201D10969016301
:1031E000012141610169C90703D0016921F0010191
:1031F0000161F0BD000001400004004000080040F3
:10320000000C0040004001400044014000480140E3
:1032100010B501F01F030121046A99408C43046238
:10322000016A9A401143016210BD10B5846842EAF8
:10323000032224F47F440A432243826010BD826843
:1032400022F070020A4342F00701816070470000DB
:1032500030B5036A026A22F00102026242688469A0
:1032600024F073050C682C4323F002058B682B4374
:103270000A4DA8420BD123F00805CB6822F4407216
:103280002B434D6923F0040315438A692A434260A6
:10329000846149684163036230BD00000000014061
:1032A00030B5026A036A23F010030362436884693D
:1032B0000D6824F4E64444EA05248D6822F02002D7
:1032C00042EA05120B4DA8420ED1CD6822F08002D1
:1032D00042EA05124D6923F4406343EA85038D6990
:1032E00022F0400243EA85034360846149688163B8
:1032F000026230BD0000014030B5036A026A22F468
:10330000807202624268C46923F4007324F073057A
:103310000C682C438D6843EA05230C4DA8420ED15E
:10332000CD6823F4006343EA05234D6922F440523B
:1033300042EA05128D6923F4806342EA0512426075
:10334000C4614968C163036230BD000000000140F0
:1033500030B5046A026A22F4805202624268C3698C
:103360000D6823F4E64343EA05238D6824F40054F2
:1033700044EA0534064DA84204D14D6922F4804246
:1033800042EA85124260C36149680164046230BD4B
:103390000000014010B5036A046A24F001040462CD
:1033A000846924F0F00444EA021423F00A020A4378
:1033B0008461026210BD10B5036A046A24F010042F
:1033C0000462846923F0A00324F4704444EA0232C6
:1033D00043EA01118261016210BD000070B50F481F
:1033E0000568A5F22130B0F5C77F08D8F0EEC00A15
:1033F00010EE900A0A49884201DA00240CE0012408
:1034000010EE100AFDF7CDF841EC100B294653ECF5
:10341000102B04A000F062FA204670BD1C000020B2
:103420000000A04141726D2076616C756520256CAD
:10343000642C20416E676C652076616C7565202573
:1034400066200D0A0000000010B5806B0021C185C8
:10345000C184FEF712FF10BD70B5846B206840690F
:1034600094F84110C0F3C0100025212904D118B1EF
:10347000E584204600F08EF82068406994F84210F8
:10348000C0F38010222904D118B1E585204600F050
:103490005AF8606C40F0100060642046FEF7EDFEC4
:1034A00070BD10B50146806B096809684FF00002D5
:1034B000C9052ED4C28501680C3151E8003F23F4C0
:1034C000807341E80034002CF5D10168143151E8D3
:1034D000003F23F0010341E80034002CF5D10168DE
:1034E000143151E8003F23F0400341E80034002C40
:1034F000F5D1202180F84210016B012909D1016822
:103500000C3151E8003F23F0100341E80034002C57
:10351000F5D14263016B012902D0FFF79BF810BD82
:10352000818DFEF7A9FE10BD10B5806B01214163AE
:10353000016B012902D0FFF78EF810BD818D49087B
:10354000FEF79AFE10BD01680C3151E8002F22F4FD
:10355000907241E80023002BF5D10168143151E845
:10356000002F22F0010241E80023002BF5D1016B6E
:10357000012909D101680C3151E8002F22F0100215
:1035800041E80023002BF5D1202180F842100021D2
:103590000163704701680C3151E8002F22F0C0022E
:1035A00041E80023002BF5D1202180F8411070471D
:1035B00008B590F84210222901D0022008BD826887
:1035C0004FF480539A4201D1016921B1816A9A4234
:1035D0001BD04AB10AE00268816A5268C2F308024D
:1035E0000A80816A891C08E0026972B10268526827
:1035F00002F07F020A70816A491C8162C18D491EF6
:103600000904090CC18503D01BE002685268F1E788
:103610000168CA6822F02002CA600168CA6822F400
:103620008072CA6001684A6922F001024A61202161
:1036300080F8421000214163026B012A03D0FFF79A
:1036400009F8002008BD016301680C3151E8002F22
:1036500022F0100241E80023002BF5D101680A682E
:10366000D20602D50A6849680091818DFEF704FEF2
:10367000E7E7000070B5044600680169E26821F4DC
:103680004051114301612169A068E2690843616901
:10369000114308432168CA6849F20C639A43024304
:1036A000CA6020684169A26921F4407111434161F7
:1036B00031492068884202D03049884202D1FEF761
:1036C0008BF801E0FEF778F8E26900231921642500
:1036D0003226B2F5004F626828D0A0FB0101930F9B
:1036E0009200FCF775FD0146B0FBF5F06FF0180293
:1036F000504301EB800006EB0010B0FBF5F000F04A
:10370000F002B1FBF5F002EB0012B1FBF5F06FF047
:103710001803584301EB800006EB0010B0FBF5F0F6
:1037200000F00F0021681044886070BDA0FB01010B
:1037300092185B41FCF74CFD0146B0FBF5F002012D
:10374000B1FBF5F06FF01803584301EB800006EB76
:10375000C000B0FBF5F000F0F80002EB4002B1FB56
:10376000F5F0584301EB800006EBC000B0FBF5F02C
:1037700000F00700D6E700000010014000140140EF
:1037800038B5816204468285002013466064222297
:1037900084F84220E56B1B4AEA63E56B1A4A2A6407
:1037A000E56B1A4AEA64E26B10650A462168E06B31
:1037B000091DFDF77FFD20680168406800902069C1
:1037C00048B120680C3050E8001F41F4807140E897
:1037D0000012002AF5D12068143050E8001F41F093
:1037E000010140E80012002AF5D12068143050E8A9
:1037F000001F41F0400140E80012002AF5D10020EE
:1038000038BD0000A33400082935000859340008E9
:103810002DE9F843984617460D460446089E24E0D5
:10382000701C22D0FDF78EFEA0EB0800B0421AD823
:10383000CEB12068C168490717D5802D15D0402D1D
:1038400013D00168C94309070FD4016800254068F7
:1038500000902046FFF777FE0820606484F840500F
:103860000120BDE8F8830320FBE72068006835EA03
:10387000000004D00020B842D2D00020F1E701209F
:10388000F9E700000148FEF7F9BC0000A0010020A4
:1038900010B50348FEF7F2FCBDE81040FDF7D4B8C0
:1038A000E8010020FEE700000A4A43F2C82148422E
:1038B0001368834201DA106002E08B4200DD116080
:1038C000054A1368834201DA106070478B42FCDDC1
:1038D0001160704704000020080000200FB4054B61
:1038E00010B503A9044A029801F05EFC10BC5DF813
:1038F00014FB0000A16100080801002003B4019836
:103900004100009850EAC12018BF04204A0D18BF9A
:1039100040F0010040F2FF72B2EB515F08BF40F08F
:103920000200012808BF052002B070470907090EF0
:10393000002804DB00F1E02080F80014704700F05C
:103940000F0000F1E02080F8141D70470000000017
:1039500070B5C1482DED020B2DED0E8B82B0119D7F
:1039600025F000449FEDBEDB9FEDBFEB84423EDBC4
:10397000A4F140511098A1F17F6108430FD0BC48D9
:10398000844202DC28D1109830B39DED100B02B0B8
:10399000BDEC0E8B02B0BDE8704001F0E9BA9DEDC0
:1039A000100B53EC1D2B51EC100BFCF708FD9DED9B
:1039B000100B41EC180B53EC1E2B51EC100BFCF7C9
:1039C000FEFC53EC182BFCF753FC41EC100B02B03F
:1039D000BDEC0E8B02B070BD012001F01DFB02B0EA
:1039E000BDEC0E8B02B0BDE8704001F0D5BAA14825
:1039F0009FEDA18B844256DA9DED100BB4F1795FF7
:103A00000ADA51EC100BFFF779FF042808BF01F028
:103A1000E3FA9DED100BDAE753EC102B51EC100B91
:103A2000FCF7CDFC41EC190B95480621B0EE490A94
:103A3000F0EE690A784401F004FA53EC192B51ECCA
:103A4000100BFCF7BCFC41EC1A0B8E48B0EE490A97
:103A5000F0EE690A0421784401F0F3F953EC192BD4
:103A600051EC100BFCF7ABFC53EC182BFCF700FCF3
:103A700041EC100B51EC1A0B53EC102BFCF711FD21
:103A8000CDE900019DED000B53EC102B9DED100BCB
:103A900051EC100BFCF793FC9DED101B53EC112B1C
:103AA000FCF7E6FBD2E09DED100B51EC100B02F0A1
:103AB0006BFB53EC182BFCF77FFC9FED730BCDE9F0
:103AC000000153EC102B9DED000B51EC100BFCF79B
:103AD00076FC41EC190B6E480621B0EE490AF0EE77
:103AE000690A784401F0ADF953EC192B51EC100B35
:103AF000FCF765FC41EC1B0B6648B0EE490AF0EEA2
:103B0000690A0421784401F09CF953EC192B51EC1B
:103B1000100BFCF754FC53EC182BFCF7A9FB41EC01
:103B20001C0B51EC190B03F0F3FA41EC180B5A483B
:103B30009FED5BABA04222DC53EC1C2B51EC1B0B2A
:103B4000FCF7AFFCCDE900019DED000B51EC180B2B
:103B500053EC102BFCF733FC53EC182BFCF788FBD1
:103B600053EC1A2BFCF72BFC53EC1D2BFCF721FC20
:103B700053EC1E2BFCF720FC41EC100B5FE08DEDAD
:103B8000008B002000909DED000B51EC180B53ECC6
:103B9000102BFCF76DFB9DED000B41EC1E0B53EC65
:103BA000102B51EC100BFCF70AFC53EC192BFCF713
:103BB00003FC53EC1E2BFCF774FC41EC190B53EC8B
:103BC0001C2B51EC1B0BFCF76CFC41EC1B0B53EC5E
:103BD0001A2B51EC190BFCF7F2FB53EC1D2BFCF7E5
:103BE000EBFB41EC190B53EC1A2B51EC180BFCF7C7
:103BF000E6FB53EC1B2BFCF7E2FB53EC192BFCF719
:103C0000D8FB9DED000B41EC180B53EC1A2B51EC3B
:103C1000100BFCF7D4FB9FED249B53EC192BFCF706
:103C2000CBFB41EC100B51EC180B53EC102BFCF7B9
:103C3000C0FB53EC192BFCF7BFFB41EC100B002D24
:103C40003FF7C5AE51EC100B81F0004141EC100B79
:103C5000BDE60000000000000000F03F0000000092
:103C6000075C143326A6913C182D4454FB21F93FE0
:103C70000000F07F0000E03F000000000000F03F87
:103C8000D8450000E6450000000000000000E03FCD
:103C90002A450000384500003333EF3F00000000A4
:103CA0000000000000000040182D4454FB21E93FB3
:103CB00070B59B482DED020B2DED068B079D25F071
:103CC0000044A04218DC9748844202DC0AD10698DE
:103CD00040B19DED060BBDEC068B02B0BDE8704017
:103CE00001F046B9002DCCBF9FED8F0B9FED900BDF
:103CF000BDEC068B02B070BD8F48A04215DD8F4829
:103D0000A042D8BF4FF0FF3458DD9DED060B51ECBB
:103D1000100BFFF7F3FD042808BF01F05DF99DEDDE
:103D2000060BBDEC068B02B070BD9DED060B51EC91
:103D3000100B02F029FACDE9060181489FED828B34
:103D4000A0423CDD8248A0421FDD00249FED82ABF3
:103D50009DED060B53EC1A2B51EC100BFCF788FA77
:103D60009DED060B41EC190B53EC1A2B51EC100B8B
:103D7000FCF725FB53EC182BFCF71BFB53EC192B22
:103D8000FCF78FFBCDE9060149E09DED060B012410
:103D900053EC182B51EC100BFCF76AFA9DED060B57
:103DA00041EC190B53EC182B51EC100BFCF701FBF9
:103DB00053EC192BFCF775FBCDE906012FE06848A1
:103DC000A0421FDD02249FED689B9DED060B53EC86
:103DD000192B51EC100BFCF7F2FA53EC182BFCF7F3
:103DE00047FA9DED060B41EC180B53EC192B51ECE7
:103DF000100BFCF7DEFA53EC182BFCF752FBCDE965
:103E000006010CE09DED060B032453EC102B9FEDF7
:103E1000580B51EC100BFCF744FBCDE906019DED6E
:103E2000060B53EC102B51EC100BFCF7C8FA41ECCD
:103E3000180B53EC182BFCF7C2FA41EC190B4E4847
:103E40000621B0EE490AF0EE690A784400F0F9FF65
:103E500053EC182B51EC100BFCF7B1FA41EC180B9A
:103E60004648B0EE490AF0EE690A0521784400F0B0
:103E7000E8FF53EC192B51EC100BFCF7A0FA41ECC6
:103E8000100B51EC180B53EC102B002C0EDAFCF736
:103E9000EFF99DED061B53EC112BFCF790FA9DED0D
:103EA000061B53EC112BFCF787FA35E0FCF7E0F921
:103EB0009DED061B53EC112BFCF781FA41EC100B26
:103EC0002F48784400EBC40090ED001B51EC100B20
:103ED00053EC112BFCF76DFA9DED061B53EC112BE7
:103EE000FCF767FA41EC100B2648784400EBC4005D
:103EF00090ED001B51EC100B53EC112BFCF75CFA0E
:103F000041EC100B002DA2BFBDEC068B02B070BDC2
:103F100051EC100B81F0004141EC100B01E7000067
:103F2000000010440000F07F182D4454FB21F93F9D
:103F3000182D4454FB21F9BF0000DC3F0000203E57
:103F40000000F33F00000000000000000000F03F10
:103F50000000E63F000000000000000000000040FC
:103F60000080034000000000000000000000F83F57
:103F7000000000000000F0BF02430000B842000053
:103F800042420000FA41000070B56B4E2DED040B6B
:103F90002DED028B82B0DDF81CC0DDE905235C420B
:103FA0002CF000411C4341EAD474049D22F00040EF
:103FB000B44205D86C422C4340EAD474B4420BD9C5
:103FC0009DED061B9DED040B02B0BDEC028B04B011
:103FD000BDE8704000F0D6BFACF14054A4F17F645E
:103FE0001C430BD0022404EAAC7444EAD2740543A7
:103FF0009FED538B9FED542B07D015E09DED040BE7
:1040000051EC100B01F067FC42E0002C11BF012CB9
:104010009DED040B02B0BDEC028B04BF04B070BD7B
:10402000022C38D0032C3BD00B439FED491B9FED56
:104030004A0B0AD0B14218D1B04209D121F08041D7
:1040400020F08040079105900FE0002A15DA10E07B
:10405000434B7B44002C08BF93ED000B0DD0012C8B
:1040600010D0022C17D0032C1AD0B0421DD1002A38
:1040700003DAB0EE410AF0EE610A02B0BDEC028B49
:1040800004B070BD93ED000B51EC100B81F00041BA
:1040900041EC100BF1E7B0EE480AF0EE680AECE7ED
:1040A000B0EE420AF0EE620AE7E7401A00153C283B
:1040B000C8BF8DED000B19DCBCF1000FBEBF10F1C5
:1040C0003C0F9FED290B8DED000B0FDB9DED060BDB
:1040D00053EC102B9DED040B51EC100BFCF7E1F9A8
:1040E00002F052F801F0F7FBCDE90001002C08BF07
:1040F0009DED000BC1D0012C10D0022C9FED1C0BAC
:1041000053EC102B9DED000B51EC100B0DD0FCF778
:1041100050F953EC182BFCF74CF9B9E7019880F0F3
:10412000004001909DED000BA7E7FCF742F953EC2E
:10413000182BFCF741F9ABE70000F07F000000000E
:10414000182D4454FB210940182D4454FB2109C06B
:10415000182D4454FB21F9BF182D4454FB21F93F7D
:104160002A410000000000000000000000000000E4
:10417000075C143326A6A13C2DE9F04D2DED040B70
:104180002DED0E8B96B0DDE92550279CDDF890A033
:1041900025F0004624F00048BAF1000F14BF0121B9
:1041A000002101EB4502FC4953184A1093422AD3DF
:1041B000002814BF0123002303EB44030B44F749F9
:1041C0008B4220D358EA00019FEDF59B76D0DFF8B3
:1041D000D8B35D4503D1BAF1000F05D188E0BAF13B
:1041E000000F08BF002100D0012101EB450111F5AE
:1041F000001F08D8002814BF0121002101EB440151
:1042000011F5001F0BD99DED261B9DED240B16B05B
:10421000BDEC0E8B04B0BDE8F04D00F0B3BE00273E
:10422000002DBCBFE149884521DAE1498845A8BF96
:1042300002271CDAC3451ADCDE4901EB2851142998
:1042400008DDC1F1340220FA02F101FA02F28242E1
:104250000DD108E058B9C1F1140228FA02F101FAAF
:1042600002F2424503D101F00101C1F1020756EA11
:104270000A0124D1002C22DA002D18BF022F01D010
:10428000012F0AD0022000F0C7FE16B0BDEC0E8B45
:1042900004B0BDE8F04D00F053BE022000F0BCFEBB
:1042A00000F04EFE51EC100B81F0004141EC100B80
:1042B00016B0BDEC0E8B04B0BDE8F08D18E09FED9C
:1042C000BEAB9FEDBF8B002871D1B848804522D18D
:1042D00005F1804010F5801008BFBAF1000F07D03B
:1042E000B3450ADC002CA8BF9DED260BE0DA0DE0FB
:1042F000B0EE490AF0EE690ADAE7002C06DA9DED25
:10430000260B51EC100B81F000416FE0AE48784471
:1043100090ED000BCCE7D8454DD1002C48DA2EB1FA
:1043200086423AD1BAF1000F42D126E0BAF1000F2D
:1043300013D0022000F070FE00F03EFE8DED020B67
:104340009DED240B8DED000B10EE900A039961F3A7
:104350001E0003909DED020BAAE78DED02AB9DEDD3
:10436000240B1AEE901A10EE900A8DED000B61F3FB
:104370001E0003909DED020B9AE78DED028B9DEDE3
:10438000240B18EE901A10EE900A8DED000B61F3DD
:104390001E0003909DED020B8AE709DA9DED240BC8
:1043A00051EC190B53EC102BFCF77BF81EE020E0CE
:1043B0009DED240B7CE786421BDAB4F1804F0DD0D3
:1043C000A4F10050B0F1FF5013D1002D11DB9DED91
:1043D000240B51EC100B02F09BFE07E09DED240B2B
:1043E00053EC102B51EC100B00F0C2BC41EC100B45
:1043F0005EE79DED240B51EC100B01F0C5FEBAF108
:10440000000FCDE90E0142D19FED710B46B3A6F12D
:10441000E040B0F17F600CD05E4538D1002D00DA6D
:10442000A7B3022F0CBF01204FF0FF30FCF7A8F814
:10443000DCE7002D01DD002C0DDA002D01DD002C64
:104440001FDB002D16DA002C14DB012F08BF9FEDB7
:10445000620B3FF42DAFB0EE4A0AF0EE6A0A27E78E
:10446000022F18BF002D0CD0012F0AD1002DFFF60E
:104470001FAF06E0002DB8BF002C08DA012F3FF473
:1044800017AFB0EE480AF0EE680A11E71BE0012012
:1044900000EBE57050EA070115D0791EB0EE498AAD
:1044A000F0EE698A084308BF9FED4D8B4E4800250A
:1044B000804570DD4D494E48884514DDB0420DDB26
:1044C000002C19DB2FE0012000F0A6FD16B0BDEC9A
:1044D0000E8B04B0BDE8F04D00F05EBDB34502DCCC
:1044E000002C09DC1FE0864202DA002C1BDA03E014
:1044F0005E452BDD002C16DD022000F08DFD00F066
:104500005BFD8DED020B53EC1A2B51EC180BFBF7F6
:1045100056FFCDE900010399019861F31E00039055
:104520009DED020BC4E6022000F076FD00F054FD84
:1045300010EE901A18EE900A8DED020B8DED008BA7
:1045400061F31E0003909DED020BB1E69DED0E0B95
:1045500053EC192B51EC100BFBF72BFF9FED260BA7
:10456000CDE9080153EC102B9DED080B51EC100B1D
:10457000FBF725FF9FED221B53EC112BFBF71CFFD4
:104580009DED081B53EC112BFBF719FF9FED1E1B34
:1045900053EC112B3CE08CE0FFFF1F00FFFF0F00EE
:1045A000000000000000F03F0000F03F0000F07F3E
:1045B0000000404301FCFFFF000000000000F07F0E
:1045C00000000000000000006E3E0000000000003F
:1045D0000000000000000080000000000000F0FF6C
:1045E000000000000000F0BF0000E0410000F043C8
:1045F000FFFFEF3F00000000000000000000D03F80
:10460000555555555555D53F000000000000E03F79
:10461000FBF7D2FE9DED080B41EC1A0B53EC102B6F
:1046200051EC100BFBF7CBFE53EC1A2BFBF7C7FE3C
:1046300041EC1A0B9FEDFE0B53EC102B9DED080B7C
:1046400051EC100BFBF7BBFE41EC1B0B9FEDFA0B83
:1046500051EC1A0B53EC102BFBF7B1FE41EC1A0B8B
:104660009FEDF70B53EC102B9DED080B51EC100B4D
:10467000FBF7A5FE53EC1A2BFBF79BFE41EC1A0B44
:1046800051EC1B0B53EC1A2BFBF7F2FD0690CDE916
:1046900006519DED060B53EC1B2B51EC100BFBF759
:1046A00088FE53EC1A2BFBF787FE41EC100B00F051
:1046B000A1B90020B6F5801F0EDA9FEDE30B53EC95
:1046C000102B9DED0E0B51EC100BFBF778FECDE996
:1046D0000E016FF034000E4600EB2650A0F2FF37BB
:1046E000C6F31300DA4940F07F6646F04056884230
:1046F000D8BF002408DDD7498142C8BF012403DCAC
:104700000024A6F580167F1CD348784400EBC40033
:104710000F9690ED00CB9DED0E0B53EC1C2B51EC46
:10472000100BFBF746FE9DED0E0B41EC1B0B53EC03
:104730001C2B51EC100BFBF79BFD41EC100B51ECCB
:10474000190B53EC102BFBF7ACFE41EC1D0B51EC9D
:104750001B0B53EC1D2BFBF732FE41EC1A0BBF4831
:104760008DED10AB7844109590ED000B4FF000509C
:1047700040EA660000EB84408DED080B00F5002058
:1047800009909DED080B53EC1C2B51EC100BFBF723
:1047900010FE9DED0E1B53EC112BFBF70DFE41ECB3
:1047A000100B53EC102B9DED100B51EC100BFBF785
:1047B00006FE9DED080B41EC1C0B53EC102B9DED00
:1047C000100B51EC100BFBF7FAFD53EC1B2BFBF716
:1047D000F3FD53EC1C2BFBF7ECFD53EC1D2BFBF70F
:1047E000EEFD41EC1C0B53EC1A2B51EC1A0BFBF7B2
:1047F000E6FD41EC1B0B9A480621B0EE4B0AF0EEA9
:104800006B0A784400F01DFBB0EE401AF0EE601A1F
:10481000B0EE41DAF0EE61DA53EC1B2B51EC1B0BDE
:10482000FBF7CDFD53EC1D2BFBF7C9FD9DED100BE8
:1048300041EC1B0B53EC1A2B51EC100BFBF718FD42
:1048400053EC1C2BFBF7BBFD53EC1B2BFBF710FDB4
:104850009DED100B41EC1B0B53EC102B51EC100B8E
:10486000FBF7ADFD41EC1D0B9FED7FEB53EC1E2BD9
:10487000FBF7FEFC53EC1B2BFBF7FAFC0890CDE991
:1048800008519DED080B53EC1E2B51EC100BFBF760
:1048900090FD53EC1D2BFBF78CFD53EC1B2BFBF712
:1048A0008BFD9DED080B41EC1D0B53EC102B9DED8A
:1048B000100B51EC100BFBF782FD41EC1B0B53EC82
:1048C0001A2B51EC1D0BFBF77AFD9DED080B41EC0B
:1048D0001A0B53EC102B51EC1C0BFBF770FD53EC37
:1048E0001A2BFBF7C5FC41EC1A0B51EC1B0B53ECDC
:1048F0001A2BFBF7BDFC0C90CDE90C519DED0C0B78
:1049000053EC1B2B51EC100BFBF753FD53EC1A2B04
:10491000FBF752FD41EC1B0B9FED550B53EC102B9D
:104920009DED0C0B51EC100BFBF749FD41EC1A0B04
:104930009FED510B51EC1B0B53EC102BFBF73FFD84
:1049400041EC1B0B9FED4E0B53EC102B9DED0C0B14
:1049500051EC100BFBF733FD53EC1B2BFBF788FCE2
:1049600041EC100B4848784400EBC40090ED001B6C
:1049700051EC100B53EC112BFBF77AFC41EC1B0BA9
:104980003846FBF7FDFDCDE9080153EC1B2B51EC3C
:104990001A0BFBF76DFC41EC100B3C48784400EB24
:1049A000C40090ED00CB51EC100B53EC1C2BFBF72B
:1049B0005FFC9DED081B53EC112BFBF759FC069097
:1049C000CDE906519DED080B53EC102B9DED060B28
:1049D00051EC100BFBF7EDFC53EC1C2BFBF7E9FC47
:1049E00053EC1A2BFBF7E5FC53EC1B2BFBF7E4FC19
:1049F00041EC100B9DED261B53EC102B8DED001B95
:104A000000959DED260B51EC100BFBF7D8FC9DEDAE
:104A1000000B41EC1A0B53EC102B9DED260B51ECC7
:104A2000100BFBF7C6FC9DED061B53EC112B2FE082
:104A3000000000604715F73FFE822B654715F73FE2
:104A400044DF5DF80BAE543E000000000000404320
:104A50008E9803007AB60B0052390000183A000015
:104A60008A3800000000000000000000000008403C
:104A7000000000E009C7EE3FFD033ADC09C7EE3F46
:104A8000F5015B14E02F3EBE16370000D036000063
:104A9000FBF795FC53EC1A2BFBF7EAFB9DED060B9D
:104AA00041EC1A0B53EC102B9DED000B51EC100B4D
:104AB000FBF785FCCDE90C019DED0C0B51EC1A0BBD
:104AC00053EC102BFBF7D4FBCDE902010C46AA49AD
:104AD0008C422FDB611A084318D19DED0C0B53EC6F
:104AE000102B9DED020B51EC100BFBF762FC41EC1F
:104AF0001B0B9FEDA30B51EC1A0B53EC102BFBF788
:104B0000B7FB53EC1B2BFBF7D7FE2DD2022000F096
:104B100083FA00F051FA10EE901A18EE900A8DED1B
:104B2000020B8DED008B61F31E0003909DED020BD7
:104B3000FFF7BEBB944A24F00041914214D393493D
:104B4000214408437FF4EFAC9DED0C0B53EC102B8C
:104B50009DED020B51EC100BFBF72BFC53EC1A2BC9
:104B6000FBF7AAFE7FF6DFAC24F000408849894AB3
:104B7000002601EB205182422BDA481C4FF48011B1
:104B800021FA00F02044844AC0F30A517A44A1F289
:104B9000FF3192ED000B814A8DED080BCA4020EAEF
:104BA0000202C0F3130040F48010C1F1140120FA96
:104BB00001F60992002CB8BF76429DED080B53EC2C
:104BC000102B9DED0C0B51EC100BFBF7F2FBCDE91C
:104BD0000C019DED0C0B51EC1A0B53EC102BFBF759
:104BE00047FB9FED6F0B0890CDE9085153EC102B5C
:104BF0009DED080B51EC100BFBF7E1FB41EC1B0B9F
:104C00009FED690B53EC102B9DED080B51EC100B35
:104C1000FBF7D5FB9DED0C0B41EC1C0B53EC102B63
:104C20009DED080B51EC100BFBF7C3FB53EC1A2B5B
:104C3000FBF7C2FB9FED5E1B53EC112BFBF7BFFB99
:104C400053EC1C2BFBF714FB41EC1A0B51EC1B0B28
:104C500053EC1A2BFBF70CFBCDE902019DED020B87
:104C600053EC1B2B51EC100BFBF7A3FB53EC1A2B53
:104C7000FBF7A2FB9DED020B41EC1A0B53EC102B42
:104C800051EC100BFBF79BFBCDE908014A489DED69
:104C9000080B0521784400F0D4F89DED081B51EC79
:104CA000100B53EC112BFBF78AFB9DED021B53EC11
:104CB000112BFBF781FBCDE906019DED020B53ECB7
:104CC0001A2B51EC100BFBF77AFB53EC1A2BFBF76A
:104CD000CFFA9FED3B0B41EC1A0B53EC102B9DEDE3
:104CE000060B51EC100BFBF764FB9DED060B41EC42
:104CF0001B0B53EC102B9DED020B51EC100BFBF733
:104D00005EFB53EC1B2BFBF7CCFB53EC1A2BFBF796
:104D100050FB9DED021B53EC112BFBF74AFB53ECB0
:104D2000192BFBF749FBCDE9020101EB06500115F8
:104D30000029C8BF039015DC9DED020B324651ECF3
:104D4000100BFBF738FDFEF7D9FD042808BF00F073
:104D500043F932469DED020B51EC100BFBF72BFD96
:104D6000CDE902019DED020B51EC180B53EC102B19
:104D7000FBF725FBFFF73ABB000090400000000066
:104D8000FE822B654715973C00CC904000346F3F66
:104D900001FCFFFF0000E03FF0350000FFFF0F00C7
:104DA00000000000432EE63F396CA80C615C20BE79
:104DB000EF39FAFE422EE63F2834000000000000E2
:104DC000000000000000004000B52DED048BB0EEA7
:104DD000409AF0EE609A83B051EC190BFBF702FD9C
:104DE00041EC180B18EE100A18EE901A8DED008B9E
:104DF000002818BF0120084320F00040C0F17F6068
:104E000000F1E040C00F14D019EE101A19EE900A0C
:104E10008DED009B002918BF0121084320F00040C0
:104E2000C0F17F6000F1E040C00F04BF012000F03E
:104E3000F3F8B0EE480A03B0F0EE680ABDEC048B5C
:104E400000BD70B504462DED028B4D1E00EBC50074
:104E5000B0EE408AF0EE608A90ED000B35F006006F
:104E600017D053EC182B51EC100BFBF7A8FA41ECC0
:104E7000100B6D1E04EBC50090ED001B51EC100BE8
:104E800053EC112BFBF7F4F941EC100B35F0060055
:104E9000E7D1022D36D0042D1CD0062D1CBFBDEC51
:104EA000028B70BD53EC182B51EC100BFBF787FAFB
:104EB00094ED0A1B53EC112BFBF7DAF953EC182B8A
:104EC000FBF77DFA94ED081B53EC112BFBF7D0F99F
:104ED00041EC100B53EC182B51EC100BFBF76FFA55
:104EE00094ED061B53EC112BFBF7C2F953EC182B76
:104EF000FBF765FA94ED040B53EC102BFBF7B8F9B4
:104F000041EC100B53EC182B51EC100BFBF757FA3C
:104F100094ED021B53EC112BFBF7AAF953EC182B61
:104F2000FBF74DFA94ED001B53EC112BFBF7A0F9A6
:104F3000BDEC028B41EC100B70BD000000000000C6
:104F40009FED070B10B553EC102B9FED070B51ECA9
:104F5000100BFBF7A6FA41EC100B10BD000000008F
:104F60000000000000000000000000000000F03F12
:104F700010B553EC102B51EC100BFBF779F941EC09
:104F8000100B10BD10B553EC112B51EC100BFBF7AF
:104F90006FF941EC100B10BD9FED050B10B553ECF4
:104FA000102B51EC100BFBF77CFA41EC100B10BDF1
:104FB00000000000000000009FED050B10B553EC51
:104FC000102B51EC100BFBF7FAF941EC100B10BD54
:104FD00000000000000000709FED050B10B553ECC1
:104FE000102B51EC100BFBF7EAF941EC100B10BD44
:104FF000000000000000001002E008C8121F08C1F5
:10500000002AFAD170477047002001E001C1121F49
:10501000002AFBD17047000001490860704700007A
:105020000C0100202DE9FF5F82B00021DDE9043092
:10503000020DDDF840B0034318D044F61050A2F240
:10504000FF3242431514119801281FD0A5EB0B0025
:10505000401C5FEA000A4FF000064E4FDFF838911F
:10506000B046504615D5CAF1000413E0119801244A
:105070004AA3012801D16FEA0B010298119AC0E9F5
:105080000031C0E9024206B0BDE8F09FCBF100005C
:10509000DFE704460021404A491842EB0450CDE9BD
:1050A000001012E0E00707D032463B464046494632
:1050B000FBF785F98046894632463B46104619463D
:1050C000FBF77DF906460F466410002CEAD1DDE9B6
:1050D0000401DDE90023BAF1000F06DAFBF76FF9EE
:1050E00042464B46FBF76BF905E0FBF7DAF942461F
:1050F0004B46FBF7D6F904460E460022284BFBF739
:10510000DBFB03D84FF0FF30014607E00022254BC0
:1051100020463146FBF7ACF8FBF7B5FB102409E05D
:10512000002C0ADB0A220023FBF752F8039B3032E3
:105130001A55641E50EA0102F2D1641C039AC4F1AC
:1051400011031444119A012A03D0012208430DD1FE
:105150000AE0084304D000204FF0110B119072E7D1
:10516000A3EB0B056D1E0DE05B4504DD4FF0000267
:1051700005F1010504E003DA4FF00002A5F1010595
:10518000002AECD002981199C0E90231C0E900452B
:1051900079E70000000014400000F03F30000000FC
:1051A0000000F0430000E03F2DE9FF4F95B09B4623
:1051B0008946064600250FE2252877D10024274698
:1051C000F84A0121059400E0044316F8013F203B12
:1051D00001FA03F01042F7D130782A2811D06FF08D
:1051E0002F033078A0F13002092A16D8059A44F02E
:1051F000020402EB820203EB42021044761C05908B
:10520000EFE759F8042B0592002A03DA504244F4E0
:105210000054059044F00204761C30782E2816D1F4
:1052200016F8010F44F004042A280DD06FF02F0265
:105230003078A0F13003092B09D807EB870302EB84
:105240004303C718761CF3E759F8047B761C3078C3
:105250006C280FD006DC4C2817D068280DD06A289F
:1052600014D104E0742810D07A280FD10DE044F452
:1052700000140AE044F4801401E044F4401472780D
:10528000824202D104F58014761C761C30786628A0
:105290000BD013DC582877D009DC002875D04528BE
:1052A000F6D04628F4D047281AD19DE118E06328AB
:1052B00035D0642879D0652812D195E1702873D053
:1052C00008DC6728F1D069286FD06E280DD06F28D0
:1052D00006D1B5E073282CD0752875D0782874D005
:1052E0005A46179990476D1C75E1C4F30250022885
:1052F00009D003280DD0D9F8001004280DD00D6076
:1053000009F1040967E1D9F80010EA17C1E9005270
:10531000F6E7D9F800100D80F2E70D70F0E719F804
:10532000041B8DF8001000208DF80100EA460120D2
:1053300003E059F804AB4FF0FF3061074FF0000174
:1053400002D40DE008F101018846B9420FDA804528
:10535000F8DB1AF808100029F4D108E008F101017F
:1053600088468142FADB1AF808100029F6D1059820
:105370005B46A0EB080721463846179A00F094FADE
:10538000284400EB080507E04DE029E10DE01AF89C
:10539000010B5A4617999047B8F10108F7D25B46BE
:1053A00021463846179A13E142E00A220092C4F3DC
:1053B00002524FF0000A022A08D059F804CB032AFF
:1053C0004FEAEC710AD00DE029E02AE009F107016B
:1053D00021F00702F2E802C1914609E00FFA8CFCC5
:1053E0004FEAEC71042A03D14FFA8CFC4FEAEC71BE
:1053F000002907DA0A460021DCF1000C61EB02010A
:105400002D2202E0220504D52B228DF80420012252
:1054100003E0E20701D02022F7E7904659E00A2195
:1054200002E010220DE010214FF0000A00910BE085
:1054300010224FF0000A44F004040827009203E011
:1054400008224FF0000A0092C4F30252022A05D04B
:1054500059F804CB0021032A08D009E009F107011B
:1054600021F00702F2E802C1914605E01FFA8CFC28
:10547000042A01D10CF0FF0C4FF00008220728D5B8
:10548000702806D0009B83F0100353EA0A0305D06E
:105490000EE040228DF80420012208E05CEA0102BF
:1054A00006D030228DF804208DF8050002229046A7
:1054B000009B83F0080353EA0A030AD15CEA010265
:1054C00001D1620705D530228DF804204FF0010884
:1054D0007F1E582804D034A003900EA802900DE03F
:1054E00036A0F9E753466046009AFAF771FE844603
:1054F0000398825C0298401E029002705CEA0100F0
:10550000F0D1029806A9081A00F1200A600702D516
:1055100024F4803400E00127574502DDA7EB0A00A0
:1055200000E0002000EB0A01009005984144401A79
:105530000590E00306D45B462146179A059800F0D3
:10554000B3F90544002706E001A85A46C05D179943
:1055500090476D1C7F1C4745F6DBE0030CD55B468E
:105560002146179A059800F09FF9054404E0302081
:105570005A46179990476D1C0099481E00900029C3
:10558000F5DC08E0029802995A460078491C02911D
:10559000179990476D1CBAF10001AAF1010AF1DCDC
:1055A00065E10000092801003031323334353637E7
:1055B000383961626364656600000000303132335F
:1055C00034353637383941424344454600000000FF
:1055D00000F058F90544761C307800287FF4ECADD3
:1055E00019B02846BDE8F08F620700D4062709F1FC
:1055F000070222F0070CFCE80223E14603F0004812
:105600005FEA080C02D00FF2702C0DE05FEA045C38
:1056100002D50FF2682C07E05FEAC47C02D00FF2DB
:10562000602C01E0AFF2700C4FF0FF3823F0004324
:10563000CDF850C065280CD006DC452809D0462896
:105640001DD047283DD13DE0662818D067287ED17F
:1056500038E00021112F01DB112000E0781CCDE99A
:10566000000106A90EA8FFF7DDFCDDE90F010E9A87
:1056700003910021009207F1010A04914DE04FF0DF
:1056800000400097CDE9011006A90EA8FFF7CAFC5B
:10569000DDE90F0203920E9B11990022DDF80CA0A8
:1056A0000093049211B9791C00EB010AB7EB0A00D0
:1056B00004D4C0F1FF3007F1010A0490AAEB0700FF
:1056C000019044E0012F00DA01270021112F01DDB4
:1056D000112000E03846CDE9000106A90EA8FFF729
:1056E000A1FCDDE90F010E9A0391002104910092C3
:1056F000BA4621070CD40399514500DA8A46BAF11B
:10570000010F05DD009AAAF10101515C302908D092
:10571000B84202DA10F1040F06DA0121CDE90110D6
:1057200015E0AAF10101E9E7002805DC049901442C
:105730000491AAEB000102E0411C514500DD8A46BC
:105740000499401A401C01904FF00040029020073D
:1057500004D40198504501DBCDF8048000208DF879
:105760004F0002980DF14F07B0F1004F25D02B20CC
:105770000E9002984FF0020800280CDA4042029086
:105780002D200E9007E00A210298FAF739FF3031F8
:10579000029007F8011DB8F10001A8F10108F2DC40
:1057A00002980028EFD1791E0E980870307800F02A
:1057B000200040F0450007F8020D12A8C01B00F1C0
:1057C00007081498007800B1012000EB0A01019845
:1057D00001EBE07105984144401A401E0590E0033A
:1057E00006D45B462146179A059800F05DF80544FB
:1057F0001498007818B15A46179990476D1CE00329
:1058000024D55B462146179A059800F04DF80544CB
:105810001CE00498002807DBDDE90301884203DD72
:105820000098405C179901E0179930205A4690473C
:10583000049805F10105401C04900198401E019058
:1058400004D12E205A46179990476D1CBAF10001D9
:10585000AAF1010ADDDC05E017F8010B5A46179999
:1058600090476D1CB8F10001A8F10108F4DC5B461B
:105870002146179A0598ABE62D0000002B0000008A
:10588000200000002DE9F041044600251E46174681
:10589000880404D405E039462020B0476D1C641EFE
:1058A000F9D52846BDE8F0812DE9F04104460025F0
:1058B0001E469046C80301D5302700E02027880403
:1058C00004D505E041463846B0476D1C641EF9D545
:1058D0002846BDE8F08110B541EC100BFEF7E8F961
:1058E00051EC100B10BD0000094890ED001A09485A
:1058F00031EE400A90ED001A074821EE000A90EDC3
:10590000001A01EE200ABDEEC00A10EE100A704720
:1059100034000020200000202400002009480A490B
:10592000027A12B1D1F8102222B1D1F81012012955
:1059300004D005E0002101720120704701210172AD
:10594000002070478800002000804042C1080648BF
:1059500001EB41020170C2EBC1114FF6FF7202EA86
:10596000C1014180704700004C000020084949886F
:1059700048434FF0E02148610020886101220A611C
:105980000A69D30701D0D203FAD50861886170474C
:105990004C0000200849097848434FF0E021486155
:1059A0000020886101220A610A69D30701D0D2036D
:1059B000FAD50861886170474C00002008B560B1D5
:1059C00020208DF8000028208DF8010030208DF86F
:1059D000020038208DF8030004E0A3220421684669
:1059E000FAF727FC6A46042140F69E2001F036FBB8
:1059F00001F06CF808BD00003EB5044602208DF8A9
:105A00000000CA208DF80100E3208DF80200092073
:105A10008DF803006A460421682001F01FFBA320D3
:105A20008DF80000610609D5C0218DF80110C8214C
:105A30008DF80210C2218DF8031005E08DF80100E9
:105A40008DF802008DF8030014F4C07F09D0C42142
:105A50008DF80410CC218DF80510C6218DF80610A4
:105A600005E08DF804008DF805008DF806008DF82E
:105A700008008DF807008DF809006A460A2140F6F3
:105A8000A72001F0EBFAA0074FF0D80503D02020A3
:105A90008DF8000001E08DF800506A46012140F6C3
:105AA000B62001F0DBFAA00601D5012000E00020BD
:105AB00000F08EF814F4C07F1ED0E0050AD5B220A5
:105AC0008DF800008B208DF80100B6208DF80200C3
:105AD0009B2009E0B0208DF8000080208DF80100A7
